:020000040800F2
:1000000038570010A1010008735F0008154B000865
:10001000DD5700089B1F0008119800080000000031
:100020000000000000000000000000004164000823
:1000300053240008000000004762000869710008AE
:10004000BB010008BB010008BB010008BB010008A0
:10005000BB010008BB010008BB010008BB01000890
:10006000BB010008BB010008BB010008BB01000880
:10007000BB010008BB010008BB010008BB01000870
:10008000BB010008BB010008BB010008BB01000860
:10009000BB010008BB010008BB010008BB01000850
:1000A000BB010008BB010008BB010008BB01000840
:1000B000BB010008BB010008BB010008BB01000830
:1000C000BB010008BB010008BB010008BB01000820
:1000D000BB010008BB010008BB010008BB01000810
:1000E000BB010008BB010008BB010008BB01000800
:1000F000BB010008BB010008BB010008BB010008F0
:10010000BB010008BB010008BB010008BB010008DF
:10011000BB010008BB010008BB010008BB010008CF
:10012000BB010008BB010008BB010008BB010008BF
:10013000BB010008BB010008BB010008BB010008AF
:10014000BB010008BB010008BB010008755F000887
:10015000BB010008BB010008BB010008BB0100088F
:10016000BB010008BB010008BB010008BB0100087F
:10017000BB010008BB010008BB0100080000000033
:10018000BB010008BB010008DFF810D000F08EF8BA
:100190000048004795B10008AFF3008038570010C1
:1001A0000648804706480047FEE7FEE7FEE7FEE711
:1001B000FEE7FEE7FEE7FEE7FEE7FEE74572000822
:1001C000890100082DE9F05F0546002092469B4614
:1001D00088460646814640241BE02846414647465D
:1001E000224600F053F853465A46C01A914110D3A4
:1001F00011461846224600F03AF82D1A67EB01081E
:100200004F4622460120002100F031F817EB00098B
:100210004E41201EA4F10104DFDC484631462A4647
:100220004346BDE8F09F40EA01039B0703D009E085
:1002300008C9121F08C0042AFAD203E011F8013BD2
:1002400000F8013B521EF9D27047D2B201E000F82B
:10025000012B491EFBD270470022F6E710B513466A
:100260000A4604461946FFF7F0FF204610BD202A33
:1002700004DB203A00FA02F1002070479140C2F1FD
:10028000200320FA03F3194390407047202A04DB2F
:10029000203A21FA02F00021704721FA02F3D040FF
:1002A000C2F120029140084319467047064C074DA1
:1002B00006E0E06840F0010394E807009847103436
:1002C000AC42F6D3FFF764FFE8EE000828EF000821
:1002D00070B58D1810F8014B14F0030201D110F81D
:1002E000012B231106D110F8013B03E010F8016B3C
:1002F00001F8016B521EF9D1ABB110F8012B04F0DB
:100300000C048A1A0C2C03D0A2EB84129B1C08E06C
:1003100010F8014BA2EB0422F8E712F8014B01F8A8
:10032000014B5B1EF9D5A942D4D3002070BD00005B
:1003300070B50446002524B1012C02D002252846C0
:1003400070BD04EBC40000EBC410164901EB800043
:1003500090F82302012802D140252846F0E72146E3
:10036000032004F02FFC054604EBC40202EBC41288
:100370000C4B03EB8202D2F82C2102F1900104EB2A
:10038000C40202EBC41233F8220040F2011204F05E
:1003900026FD05432146022004F014FC05432846AF
:1003A000CEE7000074090010F8B506460C4600259B
:1003B0000120009024B1012C02D002252846F8BD6E
:1003C00004EBC40000EBC4105D4901EB800090F821
:1003D0002302012802D140252846F0E7214668463D
:1003E00000F0B0F805462146032004F0EBFB05437E
:1003F0009DF8000000287DD104EBC40202EBC4127A
:100400004F4B03EB8202D2F8182102F19E0104EB5C
:10041000C40202EBC41233F82200002204F0C4FC30
:10042000054304EBC40202EBC412454B03EB82020A
:10043000D2F8142102F5017104EBC40202EBC412DC
:1004400033F82200142204F0AFFC054304EBC4028D
:1004500002EBC4123A4B03EB8202D2F8142102F5EC
:10046000CD7104EBC40202EBC41233F82200002267
:1004700004F09AFC054304EBC40202EBC412304BB7
:1004800003EB8202D2F8142102F20A2104EBC40227
:1004900002EBC41233F82200012204F085FC05436C
:1004A00004EBC40202EBC412254B03EB8202D2F828
:1004B000142102F5017104EBC40202EBC41233F8FB
:1004C0002200142204F070FC054304EBC40202EB8A
:1004D000C4121B4B03EB8202D2F8142102F5CD713A
:1004E00004EBC40202EBC41233F82200002204F031
:1004F0005BFC00E01BE0054304EBC40202EBC4120A
:100500000F4B03EB8202D2F8142102F1540104EBE9
:10051000C40202EBC41233F82200324604F05FFC3E
:1005200005432146022004F04DFB054305E09DF8FC
:100530000000012801D1802041E728463FE7000064
:1005400074090010F8B505460C46002600200090FE
:1005500024B1012C02D002263046F8BD04EBC402BF
:1005600002EBC4120B4B03EB8202D2F8142102F20D
:10057000122104EBC40202EBC41233F822006A46D3
:1005800004F08AFB0646BDF8000000F00100287068
:100590003046E2E7740900102DE9F04107460E46A7
:1005A000144600252146384601F0CAFE05462CB106
:1005B000012C03D002252846BDE8F08104EBC400DD
:1005C00000EBC4101F4901EB800090F823020128C2
:1005D00002D140252846EFE72146032004F0F2FA35
:1005E000054604EBC40202EBC412164B03EB820275
:1005F000D2F8F42002F16B0104EBC40202EBC41246
:1006000033F82200324604F005FC054304EBC40233
:1006100002EBC4120B4B03EB8202D2F8F42002F17E
:10062000540104EBC40202EBC41233F8220001228D
:1006300004F0F0FB05432146022004F0C3FA054311
:100640002846B9E7740900102DE9FE4F05460C460F
:100650000026002002900190002704EBC40000EB6C
:10066000C410FE4901EB8000D0F8D4800020009037
:100670008146824683462CB1012C03D002263046A7
:10068000BDE8FE8F04EBC40202EBC412F34B03EB94
:100690008202D2F8F82002F1D00104EBC40202EB8E
:1006A000C41233F8220002AA04F020FB06469DF88B
:1006B0000870002F7DD10020287004EBC40202EBEB
:1006C000C412E64B03EB8202D2F81021911D04EB19
:1006D000C40202EBC41233F8220002AA04F006FBA3
:1006E00006439DF80800687004EBC40202EBC412D4
:1006F000DA4B03EB8202D2F81021511D04EBC40245
:1007000002EBC41233F8220002AA04F0EFFA064307
:100710009DF80810A97004EBC40202EBC412CF4B81
:1007200003EB8202D2F81021511C04EBC40202EB4D
:10073000C41233F8220002AA04F0D8FA06439DF846
:100740000810E97004EBC40202EBC412C34B03EBC4
:100750008202D2F81021911C04EBC40202EBC412F5
:1007600033F8220002AA04F0C1FA06439DF80810EB
:10077000297104EBC40202EBC412B84B03EB8202F2
:10078000D2F81021D11C04EBC40202EBC41233F8DE
:10079000220002AA04F0AAFA06439DF80810697123
:1007A0002879002818D004EBC40202EBC412AB4B2A
:1007B00000E012E003EB8202D2F81021111D04EBDD
:1007C000C40202EBC41233F8220002AA04F08EFA2B
:1007D00006439DF80810A97194E2012FFCD1012075
:1007E000287004EBC40202EBC4129C4B03EB8202A0
:1007F000D2F80421D11D04EBC40202EBC41233F879
:10080000220002AA04F072FA06439DF8080028723A
:1008100004EBC40202EBC412904B03EB8202D2F849
:100820000421511D04EBC40202EBC41233F8220070
:1008300002AA04F05BFA06439DF80810697204EB03
:10084000C40202EBC412854B03EB8202D2F80421EE
:10085000911D04EBC40202EBC41233F8220002AA79
:1008600004F044FA06439DF80810A97204EBC40290
:1008700002EBC412794B03EB8202D2F8082102F199
:10088000140104EBC40202EBC41233F8220002AAE2
:1008900004F02CFA06439DF80810E97204EBC40238
:1008A00002EBC4126D4B03EB8202D2F8FC20511C08
:1008B00004EBC40202EBC41233F8220002AA04F0D3
:1008C00015FA06439DF80810697304EBC40202EBA5
:1008D000C412624B03EB8202D2F8FC1004EBC40298
:1008E00002EBC41233F8220002AA04F0FFF9064317
:1008F0009DF80810297304EBC40202EBC412574B95
:1009000003EB8202D2F8FC20D11D04EBC40202EBFF
:10091000C41233F8220002AA04F0E8F906439DF855
:100920000810A97304EBC40202EBC4124B4B03EB97
:100930008202D2F8FC2002F1080104EBC40202EBAF
:10094000C41233F8220002AA04F0D0F906439DF83D
:100950000810E97304EBC40202EBC4123F4B03EB33
:100960008202D2F8FC2002F1090104EBC40202EB7E
:10097000C41233F8220002AA04F0B8F906439DF825
:100980000810297404EBC40202EBC412334B03EBCE
:100990008202D2F8FC2002F10B0104EBC40202EB4C
:1009A000C41233F8220002AA04F0A0F906439DF80D
:1009B0000810697404EBC40202EBC412274B03EB6A
:1009C0008202D2F80C21911C04EBC40202EBC41287
:1009D00033F8220002AA04F089F906434FF0000917
:1009E0001DE008F10108414608F1010804EBC402CA
:1009F00002EBC412194B33F822006A4604F076F970
:100A0000064308F101089DF8000010B94FF0010AF3
:100A100003E00BF1010000F0FF0B09F101099DF863
:100A200008008145DDD385F824B085F812A0BAF11D
:100A3000010F77D104EBC40202EBC412074B03EBA6
:100A40008202D2F8001104EBC40202EBC41233F8A4
:100A5000220002AA04F04AF9064301E074090010DA
:100A60009DF80810E97404EBC40202EBC412A64B13
:100A700003EB8202D2F80021D11D04EBC40202EB89
:100A8000C41233F8220002AA04F030F906439DF89C
:100A90000810297504EBC40202EBC4129A4B03EB55
:100AA0008202D2F8002102F1080104EBC40202EB39
:100AB000C41233F8220002AA04F018F906439DF884
:100AC0000810697504EBC40202EBC4128E4B03EBF1
:100AD0008202D2F8002102F1090104EBC40202EB08
:100AE000C41233F8220002AA04F000F906439DF86C
:100AF0000810A97504EBC40202EBC412824B03EB8D
:100B00008202D2F8002102F10B0104EBC40202EBD5
:100B1000C41233F8220002AA04F0E8F806439DF854
:100B20000810E97504EBC40202EBC412764B03EB28
:100B30008202D2F80421D11C04EBC40202EBC412DD
:100B400033F8220002AA04F0D1F806439DF80810F9
:100B5000297604EBC40202EBC4126B4B03EB820256
:100B6000D2F8082102F1160104EBC40202EBC41210
:100B700033F8220001AA04F08FF80643BDF80410F0
:100B8000698304EBC40202EBC4125F4B03EB8202E5
:100B9000D2F8082102F1180104EBC40202EBC412DE
:100BA00033F8220001AA04F077F80643BDF80410D8
:100BB000A98304EBC40202EBC412534B03EB820281
:100BC000D2F8082102F11A0104EBC40202EBC412AC
:100BD00033F8220001AA04F05FF80643BDF80410C0
:100BE000E98304EBC40202EBC412474B03EB82021D
:100BF000D2F80821511D04EBC40202EBC41233F8F1
:100C0000220002AA04F072F806439DF80810222080
:100C1000415504EBC40202EBC4123B4B03EB8202CE
:100C2000D2F80821911D04EBC40202EBC41233F880
:100C3000220002AA04F05AF806439DF80810212069
:100C4000415504EBC40202EBC4122F4B03EB8202AA
:100C5000D2F80821D11D04EBC40202EBC41233F810
:100C6000220002AA04F042F806439DF80810202052
:100C7000415504EBC40202EBC412234B03EB820286
:100C8000D2F80821511C04EBC40202EBC41233F861
:100C9000220002AA04F02AF806439DF80810232037
:100CA000415504EBC40202EBC412174B03EB820262
:100CB000D2F8082102F11D0104EBC40202EBC412B8
:100CC00033F8220002AA04F011F806439DF8081038
:100CD0002520415504EBC40202EBC4120A4B03EB7E
:100CE0008202D2F8082102F11E0104EBC40202EBD9
:100CF000C41233F8220001AA03F0CEFF0643BDF868
:100D00000410E9843046BBE47409001070B5054650
:100D10000C4600260020287024B1012C02D00226A7
:100D2000304670BD04EBC40000EBC410094901EB70
:100D30008000D0F8940058B104EBC40000EBC4105C
:100D400001EB80002146D0F89420284690470646C3
:100D50003046E6E77409001070B50446002524B15A
:100D6000012C02D00225284670BD04EBC40000EB24
:100D7000C410104901EB800090F82302012802D131
:100D800040252846F0E72146032003F01BFF0546D7
:100D900004EBC40101EBC411064A02EB8101886E29
:100DA000214604F03DFB2146022003F00BFF0543E2
:100DB0002846D9E7740900102DE9FC5F06460C4669
:100DC0000025052001904FF0280900274FF0000A68
:100DD0004FF0000B0020009080462CB1012C03D076
:100DE00002252846BDE8FC9F04EBC40101EBC411B9
:100DF000F34A02EB810101F10900214601F04AFEAC
:100E000005460DB12846EDE704EBC40000EBC41025
:100E1000EB4901EB8000407AB04201D10020E1E7CC
:100E20002146032003F0CEFE054304EBC40000EB93
:100E3000C410E34901EB800090F8A40000BB04EB70
:100E4000C40000EBC41001EB80004068DD49084499
:100E500098B966B1012E06D0022E02D0032E08D119
:100E600003E0D94F07E0D94F05E0D94F03E0D94F50
:100E700001E0D54F00BF00BF01E0D34F00BF52E0FB
:100E800004EBC40000EBC410CD4901EB80004068C6
:100E9000CC49084478BB26B3012E0ED0022E02D0D6
:100EA000032E29D113E004EBC40000EBC410C449A5
:100EB00001EB8000D0F8807128E004EBC40000EB67
:100EC000C410BF4901EB8000D0F884711EE004EB30
:100ED000C40000EBC410BA4901EB8000D0F888715F
:100EE00014E004EBC40000EBC410B54901EB800032
:100EF000D0F88C710AE00BE004EBC40000EBC410E6
:100F0000AF4901EB8000D0F8807100BF00BF09E05D
:100F100004EBC40000EBC410A94901EB8000D0F839
:100F2000807100BF00BF4DB9387800F0F000102884
:100F300002D14FF0010B01E0022053E7002D7FD1D9
:100F400004EBC40202EBC4129D4B03EB8202D2F805
:100F5000AC1004EBC40202EBC41233F822000122ED
:100F600003F03DFF054304EBC40000EBC4109449BB
:100F700001EB8000407A012801D0012E0BD004EB58
:100F8000C40000EBC4108E4901EB8000407A0128B8
:100F90000ED1012E0CD004EBC40000EBC410884924
:100FA00001EB80004672204605F008FE054307E08D
:100FB00004EBC40000EBC410814901EB80004672D1
:100FC000CDBBBBF1000F3BD004EBC40202EBC4125B
:100FD0007B4B03EB8202D2F8F02002F1A00104EB7C
:100FE000C40202EBC41233F82200002203F0F7FE21
:100FF000054304EBC40202EBC412714B03EB820203
:10100000D2F8AC1004EBC40202EBC41233F8220095
:10101000002203F0E4FE054301226946384600F051
:101020007FFF804608F0FF00012805D100212046FF
:1010300000F0C0F9054303E045F002052846D1E67B
:101040000AE050460AF1010A484502D345F002057C
:1010500007E0019800F0C0F8204603F05DFD00288D
:10106000EFD100BF04EBC40000EBC410544901EB06
:101070008000467204EBC40101EBC411504A02EB3C
:101080008101487A214605F0A9FA0543204604F07B
:10109000A1F90543204605F0E1FD054304EBC40139
:1010A00001EBC411464A02EB810191F8140221467A
:1010B00005F0E8FF054304EBC40101EBC411404A0D
:1010C00002EB810191F81502214605F0B5FF0543B9
:1010D00004EBC40101EBC411394A02EB810191F820
:1010E0001602214605F0F4FF054304EBC40101EBB1
:1010F000C411334A02EB810191F81702214605F031
:1011000077FD054304EBC40101EBC4112C4A02EB4B
:10111000810191F81802214605F07AFD054304EBA0
:10112000C40101EBC411264A02EB810191F81902B6
:10113000214605F0F3FF054304EBC40101EBC411A4
:101140001F4A02EB810191F81A02214605F002FFC5
:10115000054304EBC40101EBC411194A02EB810100
:1011600091F81B02214605F01BFF054304EBC40167
:1011700001EBC411124A02EB810191F81C022146D5
:1011800005F034FF0543204605F05CF9054304EB08
:10119000C40000EBC4100A4901EB800090F81F0264
:1011A00018B9204601F0D8F90543204606F058F852
:1011B0000543204604F068F90543284612E600007E
:1011C00074090010ABB69D9720000020BC110120CF
:1011D00035E9000834E9000810B5044620460CF053
:1011E000DCFE10BD2DE9F04104460E4615460127F0
:1011F000012000EB440084B2E1B2134A1268106887
:10120000114A1268936800229847071E02D00E20E8
:10121000BDE8F0812A880C49096808680A4909680C
:101220000B6931469847071E01D00E20F0E7064AA9
:1012300012681068044A126851698847071E01D075
:101240000E20E5E73846E3E7180000202DE9F041DD
:1012500004460E4615460127012000EB440084B2E7
:10126000E1B2134A12681068114A126893680022AA
:101270009847071E02D00E20BDE8F0812A880C494D
:10128000096808680A4909680B6931469847071ECA
:1012900001D00E20F0E7064A12681068044A12686E
:1012A00051698847071E01D00E20E5E73846E3E77D
:1012B000740800102DE9F04104460E46154601273A
:1012C00006B115B90220BDE8F0814FF6FF7000EAC3
:1012D0004404E1B2124A12681068114A1268936815
:1012E00000229847071E01D00E20ECE72A880C49FF
:1012F000096808680A490968CB6831469847071E9B
:1013000001D00E20DFE7064A12681068044A12680E
:1013100051698847071E01D00E20D4E73846D2E72E
:10132000180000202DE9F04104460E46154601271D
:1013300006B115B90220BDE8F0814FF6FF7000EA52
:101340004404E1B2124A12681068114A12689368A4
:1013500000229847071E01D00E20ECE72A880C498E
:10136000096808680A490968CB6831469847071E2A
:1013700001D00E20DFE7064A12681068044A12689E
:1013800051698847071E01D00E20D4E73846D2E7BE
:101390007408001001460020704700000146024812
:1013A0000160002070470000740800100146002012
:1013B000704700002DE9F04FADB00446002600272D
:1013C00000202C902B9082462A90299028902790DC
:1013D00026902590249023902290219020901F9079
:1013E00080461E901D901C90002583461B901A90ED
:1013F000199081461890179016901590149013909C
:101400001290119010900F900E900D900C900B90E8
:101410000A90079006900590049003900290019026
:1014200004EBC40000EBC410FE4901EB800090F80F
:10143000A40078BB04EBC40000EBC41001EB8000F7
:101440004068F949084400BB04EBC40000EBC41039
:10145000F44901EB8000407A78B1012807D00228D6
:1014600002D003280CD105E0F0482C900BE0F048A6
:101470002C9008E0EF482C9005E0EF482C9002E01B
:10148000EA482C9000BF00BF05E0022630462DB090
:10149000BDE8F08F00E059E004EBC40000EBC4109D
:1014A000E04901EB80004068DF49084480BB04EB61
:1014B000C40000EBC410DB4901EB8000407A40B36C
:1014C00001280FD0022802D003282ED115E004EB0A
:1014D000C40000EBC410D34901EB8000D0F88001B8
:1014E0002C902DE004EBC40000EBC410CD4901EBBF
:1014F0008000D0F884012C9022E004EBC40000EBC3
:10150000C410C84901EB8000D0F888012C9017E086
:1015100018E0FFE704EBC40000EBC410C14901EB85
:101520008000D0F88C012C900AE004EBC40000EBA2
:10153000C410BC4901EB8000D0F880012C9000BFA2
:1015400000BF02E002263046A1E700BF2C9F0C201E
:101550002B9001222BA9384600F0E2FC82460122A2
:101560002BA9384600F0DCFC2A9001222BA9384632
:1015700000F0D6FC299004222B99299802FB001038
:101580002B9001222BA9384600F0CAFC28902B99F9
:10159000289800EB91012A98814202D00226304619
:1015A00075E72B9880082490FDE301222BA938468B
:1015B00000F0B6FC23902398401E2B9901EB80008D
:1015C000229001222BA9384600F0AAFC21902198F4
:1015D00010B90120209092E0002003908AE00122BF
:1015E0002BA9384600F09CFC1F9001222BA93846FD
:1015F00000F096FC80461F98C0F3072027901F98A4
:10160000C0B226901F98C0F301402590259868B974
:10161000269806280AD004EBC40000EBC4108149C8
:1016200001EB800000F5CA7050F828802798012847
:1016300006D002280CD003280DD004280DD10BE0D1
:10164000B8F1000F01D1012000E00020804604E045
:101650006FEA080801E000E000BF00BF26980828F4
:1016600043D2DFE800F004141E282D32073ACDF8EB
:1016700080803BE004EBC40000EBC410694A02EB3D
:10168000800000F5CA70209940F828102EE02098BC
:1016900020B1B8F1000F01D0012000E0002020901F
:1016A00024E0209810B9B8F1000F01D0012000E02B
:1016B000002020901AE0209800EA0800209015E011
:1016C000209840EA0800209010E02098404501D181
:1016D000012000E00020209008E02098404501D043
:1016E000012000E00020209000E000BF00BF039830
:1016F000401C0390219903988842FFF470AF04EBDB
:10170000C40101EBC411474A32F821001EAA4B491B
:1017100003F0D7FA04EBC40101EBC411414A32F8DB
:1017200021001DAAA02103F0CCFA2098002877D030
:1017300001222BA9384600F0F3FB1C901C980B28C3
:101740002DD2DFE800F02D06B1FEFDFCFBFAF9F822
:10175000F7002146172003F035FA064601222BA98F
:10176000384600F0DDFB054601222BA9384600F083
:10177000D7FB83460EB9012100E0002104EBC40031
:1017800000EBC410274A02EB800000F5CA7040F855
:101790002B10681E04222B9902FB00102B90AEE345
:1017A00001222BA9384600F0BBFB1B9001222BA97C
:1017B000384600F0B5FB1A9001222BA9384600F0FC
:1017C000AFFB814604EBC40202EBC412154B03EBE2
:1017D0008202D2F8EC2002F1580104EBC40202EBC1
:1017E000C41233F82200524603F0F9FA04EBC401A4
:1017F00001EBC4110B4A32F8210051461A9A03F04A
:10180000EEFA04EBC40101EBC411064A32F82100E0
:101810004A460AF1040103F0E2FA214616200FE0DD
:101820006EE3000074090010ABB69D972000002005
:10183000BC11012035E9000834E9000848A6290058
:1018400003F0C0F9064604EBC40101EBC411FE4AE3
:1018500032F8210019AA0AF1080103F032FA012234
:101860002BA9384600F05CFB054601222BA938461F
:1018700000F056FB834619991B98814201D1012142
:1018800000E0002104EBC40000EBC410EE4A02EBC0
:10189000800000F5CA7040F82B10681E04222B99B6
:1018A00002FB00102B902AE301222BA9384600F0FE
:1018B00037FB814601222BA9384600F031FB1890F6
:1018C00001222BA9384600F02BFB17902A99179874
:1018D000084417901798800017904FEA89091798C5
:1018E000384407900798C01E0690079810F8010C1E
:1018F0008DF82400079810F8020C8DF82500079841
:1019000010F8030C8DF826000699189800F05AFB81
:1019100004EBC40101EBC411CB4A32F8210009F1F8
:101920000302069903F08CFA06439DF826100698E8
:10193000017007E0BEE21FE267E017E0FEE1DEE1D2
:1019400058E1D6E09DF82510069841709DF82410C6
:101950000698817001222BA9384600F0E1FA05466D
:1019600004222B9902FB05102B90C8E201222BA91F
:10197000384600F0D5FA814601222BA9384600F0FE
:10198000CFFA189001222BA9384600F0C9FA169018
:10199000B9F1040F0CD104EBC40101EBC411AA4A44
:1019A00032F82100169A189903F019FA064620E039
:1019B000B9F1020F0DD116998AB204EBC40101EB03
:1019C000C411A14B33F82100189903F0EDF9064634
:1019D0000FE0B9F1010F0CD11699CAB204EBC401A2
:1019E00001EBC411984B33F82100189903F012FA57
:1019F000064601222BA9384600F092FA054604213A
:101A00002B9801FB05002B9079E201222BA9384687
:101A100000F086FA814601222BA9384600F080FAB0
:101A2000139001222BA9384600F07AFA05460122CC
:101A30002BA9384600F074FA8346B9F1040F18D187
:101A400004EBC40101EBC4117F4A32F8210016AA4D
:101A5000139903F036F9064604EBC40000EBC410FA
:101A6000794A02EB800000F5CA70169940F82B10F5
:101A700038E0B9F1020F19D104EBC40101EBC41134
:101A8000714A32F8210015AA139903F005F90646A8
:101A9000BDF8541004EBC40000EBC4106A4A02EB1A
:101AA000800000F5CA7040F82B101BE0B9F1010F5F
:101AB00018D104EBC40101EBC411634A32F82100D0
:101AC00014AA139903F012F906469DF8501004EB7E
:101AD000C40000EBC4105C4A02EB800000F5CA7041
:101AE00040F82B10681E04222B9902FB00102B904B
:101AF00005E201222BA9384600F012FA12900122C9
:101B00002BA9384600F00CFA11902B983844059018
:101B10000598C01E0490059810F8010C8DF820005F
:101B2000059810F8020C8DF82100059810F8030CA8
:101B30008DF822000499129800F044FA00200290D7
:101B40000FE00020019006E0032001901198029020
:101B50000198401C019001980328F5D30298401C7D
:101B60000290119902988842EBD3119901EB41013F
:101B70008A0004EBC40101EBC411334B33F821009C
:101B8000049903F05DF99DF82210049801709DF806
:101B90002110049841709DF82010049881700C2247
:101BA0002B99119802FB00102B9004EBC40202EB5E
:101BB000C412254B03EB8202D2F8EC2002F158014B
:101BC00004EBC40202EBC41233F82200129A03F0B1
:101BD00006F92146152002F0F5FF064601222BA941
:101BE000384600F09DF9054604222B9902FB0510AA
:101BF0002B9084E101222BA9384600F091F9109036
:101C000001222BA9384600F08BF9139001222BA951
:101C1000384600F085F91890109858B901222BA980
:101C2000384600F07DF90F9001222BA9384600F0CC
:101C300077F90E9004EBC40202EBC412024B03EBE3
:101C40008202D2F8EC2001E07409001002F1580180
:101C500004EBC40202EBC41233F82200524603F034
:101C6000BEF804EBC40101EBC411AC4A32F8210008
:101C70005146109A03F0B3F804EBC40101EBC41110
:101C8000A64A32F821000AF10401139A03F0A7F8DA
:101C900004EBC40101EBC411A04A32F821000AF19F
:101CA0000801189A03F09BF81098B8B904EBC40126
:101CB00001EBC411994A32F821000AF10C010F9A84
:101CC00003F08DF804EBC40101EBC411934A32F820
:101CD00021000AF110010E9A03F081F82146182024
:101CE00002F070FF064601222BA9384600F018F9D1
:101CF000054604212B9801FB05002B90FFE004EB27
:101D0000C40202EBC412854B03EB8202D2F8A81086
:101D100004EBC40202EBC41233F82200012203F0E8
:101D20005EF8064301222BA9384600F0F9F8054673
:101D300004222B9902FB05102B90E0E004EBC40277
:101D400002EBC412754B03EB8202D2F8A81004EB2D
:101D5000C40202EBC41233F82200002203F03FF861
:101D600001222BA9384600F0DBF8054604212B9808
:101D700001FB05002B90C2E001222BA9384600F0A0
:101D8000CFF8129001222BA9384600F0C9F8119023
:101D90002B98384410F8010C8DF824002B98384407
:101DA00010F8020C00E0AFE08DF825002B983844C5
:101DB00010F8030C8DF826002B983844C11E129899
:101DC00000F000F91198A8B1119B03EB43034FF009
:101DD000030C0CEB83039AB22B9B3B44D91E04EB00
:101DE000C40303EBC413DFF834C13CF8230003F051
:101DF00027F806439DF824002B99394401F8010C7B
:101E00009DF825002B99394401F8020C9DF8260015
:101E10002B99394401F8030C119800EB40002B99E1
:101E200001EB80002B9014200C9000BFDDE90B012A
:101E3000884202D90220FFF72ABB04EBC40202EB5E
:101E4000C412364B03EB8202D2F8E01004EBC4025A
:101E500002EBC41233F822000DAA02F032FF06434F
:101E60000B98401C0B900D9800F001000028DDD06D
:101E700000BF0D9890B104EBC40202EBC412274BD3
:101E800003EB8202D2F8E41004EBC40202EBC412AA
:101E900033F82200129A02F0A2FF064301222BA976
:101EA000384600F03DF8054604212B9801FB05005B
:101EB0002B9024E001222BA9384600F031F80A903B
:101EC00001222BA9384600F02BF8054601222BA948
:101ED000384600F025F8834604EBC40101EBC41139
:101EE0000E4A02EB810101F5CA710A9841F82B00F4
:101EF000681E04222B9902FB00102B9000BF02E009
:101F000022982B9000E000BF2899249808442B9930
:101F1000B0EB910F3FF649AB30468CE774090010E7
:101F200030B5034600200C681C5D25060C68641C57
:101F30001C5D45EA04450C68A41C1C5D45EA0424AC
:101F40000D68ED1C5D5D44EA050012B10C68241DAE
:101F50000C6030BD0022426843680B444360436814
:101F600043604368934202D203685B1C036070477E
:101F700010B500224268436803EB014343604368A5
:101F800043604368934201D2012300E0002303EB46
:101F9000114304682344036010BD00BFFEE7002026
:101FA00070470020704702460020704702120A70F6
:101FB00048707047020E0A70020C4A70020A8A705A
:101FC000C8707047020C0A70020A4A708870704725
:101FD00070B505460C4600BF04EBC40202EBC41208
:101FE000094B03EB8202D2F8F82002F1D20104EB94
:101FF000C40202EBC41233F822002A4602F076FE35
:102000000646304670BD000074090010F8B505465C
:102010000F46144600260020009037B1012F07D04C
:10202000022F1FD0032F4FD136E0002028604CE054
:1020300004EBC40202EBC412254B03EB8202D2F87C
:10204000F82002F58A7104EBC40202EBC41233F8E3
:1020500022006A4602F035FE064664210098484395
:10206000286032E004EBC40202EBC412184B03EB0D
:102070008202D2F8F82002F58E7104EBC40202EB62
:10208000C41233F822006A4602F01BFE06466421A1
:1020900000984843286018E004EBC40202EBC41225
:1020A0000B4B03EB8202D2F8F82002F58C7104EBA3
:1020B000C40202EBC41233F822006A4602F001FEA9
:1020C00006460098286000E000BF00BF3046F8BD1B
:1020D00074090010F8B505460C4600BF00200090BA
:1020E00004EBC40202EBC4120A4B03EB8202D2F8E7
:1020F000F82002F1D60104EBC40202EBC41233F85B
:1021000022006A4602F0C8FD0646BDF800002860BD
:102110003046F8BD74090010F8B504460D46002697
:10212000002000902946684602F00EFF06460098FF
:1021300020803046F8BD000070B5044600BF04EBB7
:10214000C40303EBC4137D4E06EB83039A6904EBCF
:10215000C40303EBC41306EB8303D3F8F43003F199
:10216000080104EBC40303EBC41336F8230002F0A8
:1021700036FE054604EBC40303EBC41306EB8303EE
:102180005A6904EBC40303EBC41306EB8303D3F8CF
:10219000F43003F16C0104EBC40303EBC41336F811
:1021A000230002F01CFE054304EBC40202EBC41240
:1021B000334603EB8202D2F8F42002F1410104EB32
:1021C000C40202EBC41233F82200012202F022FE04
:1021D000054304EBC40202EBC412334603EB820254
:1021E000D2F8F42002F1430104EBC40202EBC41262
:1021F00033F82200012202F00DFE054304EBC40275
:1022000002EBC412334603EB8202D2F8F42002F14F
:10221000400104EBC40202EBC41233F82200002296
:1022200002F0F8FD054304EBC40303EBC41306EB13
:10223000830393F85C2004EBC40303EBC41306EBA5
:102240008303D3F8F43003F10F0104EBC40303EB71
:10225000C41336F8230002F0DDFD054304EBC4018E
:1022600001EBC411324602EB8101886D214600F07A
:1022700089F8054304EBC40101EBC411324602EBBB
:10228000810191F8541081F00100214600F0AEF870
:10229000054304EBC40000EBC410314601EB8000A1
:1022A000007AE8B1012804D0022803D003282ED1F7
:1022B00017E000BF04EBC40202EBC4121F4B03EB98
:1022C0008202D2F8F42002F1760104EBC40202EBA0
:1022D000C41233F82200012202F09CFD054316E0EF
:1022E00000BF04EBC40202EBC412144B03EB8202E6
:1022F000D2F8F42002F1760104EBC40202EBC4121E
:1023000033F82200002202F085FD054300BF00BF24
:1023100004EBC40000EBC410084901EB800090F806
:102320001D0220B9204600F0F3F8054303E02046E3
:1023300000F090F80543284670BD000074090010B5
:102340002DE9F04105460C4600BF0C4B53F8252003
:1023500004EBC40303EBC413094F07EB8303D3F867
:10236000F430191D04EBC40303EBC41337F8230046
:1023700002F035FD06463046BDE8F08158010010F8
:10238000740900102DE9F04105460C4600BF0027F6
:1023900004EBC40000EBC410134901EB800080691A
:1023A000A84208D804EBC40000EBC41001EB800085
:1023B00080692F1A00E02F4604EBC40202EBC4121E
:1023C000094B03EB8202D2F8F42002F1440104EB42
:1023D000C40202EBC41233F822003A4602F0FFFCBA
:1023E00006463046BDE8F0817409001070B5054618
:1023F0000C4600BF04EBC40202EBC412094B03EB12
:102400008202D2F8F42002F1770104EBC40202EB5D
:10241000C41233F822002A4602F0FCFC064630467D
:1024200070BD0000740900100146002008784A7849
:1024300002EB002290B270470146002008784A78EB
:1024400002EB00208A7802EB0020CA7802EB002021
:102450007047704770B5044600BF012004EBC4010B
:1024600001EBC4110C4A02EB810181F81D0204EB5F
:10247000C40202EBC412084B03EB8202D2F8BC1078
:1024800004EBC40202EBC41233F82200022202F071
:10249000A6FC0546284670BD74090010FFB500274C
:1024A000002500260299039C009B019A03B912B1F2
:1024B000B1FBF2F010B1002004B0F0BD1BB911B9AE
:1024C000B4FBF2F0F8E783B10DE0640801F001001D
:1024D00008B104F100444908520803F0010008B1B2
:1024E00002F100425B08002BEFD100260CE0CF1771
:1024F000480040EAD47164006D0041EA0700904250
:1025000001D3891A6D1C761C1F2EF0D92846D3E7FB
:1025100070B5044600BF002004EBC40101EBC411F8
:102520000C4A02EB810181F81D0204EBC40202EBAC
:10253000C412084B03EB8202D2F8BC1004EBC402B5
:1025400002EBC41233F82200062202F048FC0546D2
:10255000284670BD7409001070B5044600BF002005
:1025600004EBC40101EBC4110C4A02EB810181F8B8
:102570001F0204EBC40202EBC412084B03EB8202FD
:10258000D2F8C81004EBC40202EBC41233F82200E4
:10259000002202F024FC0546284670BD7409001094
:1025A0007FB582B01C4600BF0020009001909DF8CE
:1025B000082004EBC40303EBC413674E06EB83034C
:1025C000D3F8B03003F1C00104EBC40303EBC41330
:1025D00036F8230002F003FC05469DF8092004EBC1
:1025E000C40303EBC41306EB8303D3F8B03003F149
:1025F0008C0104EBC40303EBC41336F8230002F090
:10260000EEFB054304EBC40000EBC410314601EBC4
:10261000800040694FF47A71B0FBF1F631466846AC
:10262000039A03F0DDF804EBC40303EBC4134A4E32
:1026300006EB8303019AD3F8B03003F1900104EB69
:10264000C40303EBC41336F8230002F0C8FB0543B0
:1026500004EBC40303EBC41306EB8303009AD3F823
:10266000B03003F1940104EBC40303EBC41336F858
:10267000230002F0B4FB054304EBC40303EBC413D3
:1026800006EB8303039AD3F8B03003F1980104EB0F
:10269000C40303EBC41336F8230002F0A0FB054388
:1026A00004EBC40202EBC412334603EB8202D2F8FD
:1026B000B02002F19C0104EBC40202EBC41233F817
:1026C0002200002202F08BFB05439DF80800012840
:1026D0003ED104EBC40202EBC412334603EB820288
:1026E000D2F8B02002F1880104EBC40202EBC4125C
:1026F00033F82200002202F072FB054304EBC4020F
:1027000002EBC412334603EB8202D2F8B02002F18E
:10271000880104EBC40202EBC41233F82200012248
:1027200002F05DFB054304EBC40202EBC412334626
:1027300003EB8202D2F8B02002F1880104EBC4025C
:1027400002EBC41233F82200002202F048FB0543DA
:10275000284606B070BD00007409001070470000E4
:10276000F0B587B006460F46144600BF002006901D
:1027700005900490214601A8FEF7C8FA9DF80400D0
:1027800001280AD1002104EBC40000EBC410BF4AA9
:1027900002EB8000A0F836110FE0012104EBC40029
:1027A00000EBC410B94A02EB8000A0F83611B8481B
:1027B00030604FF44A4007B0F0BD052F18D2DFE873
:1027C00007F003040506160000BF00BF00BF04EBBE
:1027D000C40000EBC410AD4901EB8000224639462D
:1027E000D0F8A0303046984705462846E3E701E098
:1027F00000BF00BF00BF04EBC40202EBC412A34B36
:1028000003EB8202D2F8B02002F1080104EBC4020B
:1028100002EBC41233F8220006AA02F052FA05466F
:1028200004EBC40202EBC412984B03EB8202D2F811
:10283000B02002F10C0104EBC40202EBC41233F825
:10284000220005AA02F03DFA05430598C000059054
:102850000598B0F1004F7DD904EBC40202EBC4121D
:102860008A4B03EB8202D2F8B020111D04EBC402A4
:1028700002EBC41233F8220004AA02F022FA054344
:10288000049840F00200049004EBC40202EBC4126E
:102890007E4B03EB8202D2F8B020111D04EBC40280
:1028A00002EBC41233F82200049A02F098FA0543AE
:1028B00004EBC40202EBC412744B03EB8202D2F8A5
:1028C000B02002F1080104EBC40202EBC41233F899
:1028D000220006AA02F0F5F9054304EBC40202EB5C
:1028E000C4126A4B03EB8202D2F8B02002F10C0151
:1028F00004EBC40202EBC41233F8220005AA02F072
:10290000E0F90543049820F00200049004EBC402AF
:1029100002EBC4125D4B03EB8202D2F8B020111D12
:1029200004EBC40202EBC41233F82200049A02F052
:1029300056FA05430598C000059004EBC40101EB6D
:10294000C411524A02EB810101F59C700599FFF711
:1029500001FB00E00EE004EBC40101EBC4114B4AA3
:1029600002EB810101F5A0700699FFF7F3FA002050
:102970000590069004EBC40000EBC410434901EB42
:102980008000D0F8381104EBC40000EBC4103F4ABB
:1029900002EB8000C0F8481104EBC40000EBC41047
:1029A000114601EB8000D0F83C1104EBC40000EBB1
:1029B000C41002EB8000C0F84C1104EBC40101EB21
:1029C000C41102EB810101F5A4700599FFF7C2FA69
:1029D00004EBC40000EBC4102C4901EB8000D0F8DC
:1029E000401104EBC40000EBC410284A02EB800045
:1029F000C0F8501104EBC40000EBC410114601EB09
:102A00008000D0F8441104EBC40000EBC41002EBCA
:102A10008000C0F8541104EBC40101EBC41102EBB7
:102A2000810101F5A8700699FFF794FA04EBC40040
:102A300000EBC410154A02EB8000154AD0F854117F
:102A400002A802F0CDFE04EBC40000EBC4100F4955
:102A500001EB8000DDE9022300F5A47003C8FFF755
:102A60001DFD04EBC40101EBC411084A02EB810116
:102A7000C1F8780104EBC40000EBC410114601EB6F
:102A80008000D0F878013060284694E67409001080
:102A900000CA9A3BF8B505460C4600BF00200090DE
:102AA00004EBC40202EBC4120A4B03EB8202D2F81D
:102AB000EC2002F1240104EBC40202EBC41233F84F
:102AC00022006A4602F0FDF806460098287030465B
:102AD000F8BD00007409001070B50A480468001DB4
:102AE0000568001D0668344454B108220649204692
:102AF00002F0E9FC042204491031284602F0E3FC0C
:102B000070BD0000107AFF1F3A16012070B5044610
:102B100000F016F906462546681C10B104480078F6
:102B2000054400BF00F00CF9801BA842FAD370BD29
:102B300094080010F8B502460B460025002400203A
:102B40000021DCE0012606FA01F51E6806EA05040C
:102B5000AC4273D15E68012E08D05E68022E05D0AB
:102B60005E68112E02D05E68122E13D190684F005D
:102B70000326BE40B0434F00DE68BE403043906045
:102B8000506801268E40B0431E79C6F300168E4071
:102B900030435060D0684F000326BE40B0434F0022
:102BA0009E68BE403043D0605E68022E02D05E68F0
:102BB000122E13D1CF0802F1200656F827004E0737
:102BC000F70E0F26BE40B0434F07FF0E1E69BE40F2
:102BD0003043CF0802F1200646F8270010684F0066
:102BE0000326BE40B0431E7906F003064F00BE40E8
:102BF000304310605E6806F08056B6F1805F7DD18C
:102C000000BF00260096404E366846F480463E4F90
:102C10003E603E46366806F48046009600BF00BF20
:102C20003A4E8F0856F827008E07370F0F26BE4002
:102C3000B043374EB24202D1002624E05EE0354E6A
:102C4000B24201D101261EE0334EB24201D102262A
:102C500019E0324EB24201D1032614E0304EB242A6
:102C600001D104260FE02F4EB24201D105260AE021
:102C70002D4EB24201D1062605E02C4EB24201D1C2
:102C8000072600E008268F073F0FBE4030431F4E47
:102C90008F0846F82700264E3068A0435E6806F489
:102CA0008036B6F5803F00D12043214E3060361D7E
:102CB0003068A0435E6806F40036B6F5003F00D1E8
:102CC00020431B4E361D3060361D3068A0435E68C1
:102CD00006F48016B6F5801F00D12043144E083646
:102CE0003060361D3068A0435E6806F40016B6F505
:102CF000001F00D120430E4E0C363060491C1029B5
:102D0000FFF420AFF8BD000044380240083801400D
:102D1000000002400004024000080240000C024093
:102D2000001002400014024000180240001C024043
:102D3000003C01400AB1816101E00B0483617047EE
:102D400001480068704700008C08001070B5044608
:102D50000CB9012070BD94F83D0028B9002084F81A
:102D60003C00204600F0DAF8242084F83D0020687A
:102D7000006820F00100216808602068006840F4C5
:102D80000040216808602068006820F40040216845
:102D9000086001F069F905465C496068884206D818
:102DA0005B48854201D2012007E0002005E0594838
:102DB000854201D2012000E00020012800D1C9E7AE
:102DC0005548B5FBF0F62068406820F03F003043DE
:102DD000216848604D496068884201D8701C07E04E
:102DE0004FF4967070434FF47A71B0FBF1F0401CD1
:102DF0002168096A21F03F010843216808624349BC
:102E00006068884214D8681E61684900B0FBF1F020
:102E1000401CC0F30B00042801D204203DE0681ED2
:102E200061684900B0FBF1F0401CC0F30B0034E0D6
:102E3000A06838B9681E616801EB4101B0FBF1F090
:102E4000401C0AE0681E616801EBC10202EB01113F
:102E5000B0FBF1F0401C40F48040C0F30B0008B917
:102E600001201AE0A06848B9681E616801EB4101C1
:102E7000B0FBF1F0401CC0F30B000CE0681E616871
:102E800001EBC10202EB0111B0FBF1F0401CC0F3F9
:102E90000B0040F4804040F400402168C9694CF6C2
:102EA000FF72914308432168C861D4E907010843D0
:102EB0002168096821F0C001084321680860D4E94D
:102EC000031008432168896848F2FF3291430843A0
:102ED00021688860D4E9050108432168C96821F0A8
:102EE000FF0108432168C8602068006840F00100C5
:102EF0002168086000202064202084F83D00002024
:102F0000206384F83E0000BF24E70000A086010093
:102F100080841E0000093D0040420F0010B586B0BD
:102F20000446142101A8FDF797F91B49206888423F
:102F30002FD100BF002000901848006840F0020028
:102F4000164908600846006800F00200009000BFC3
:102F500000BFC020019012200290012003900320A6
:102F600004900420059001A90D48FFF7E3FD00BF80
:102F70000020009009481030006840F40010074914
:102F8000103108600846006800F40010009000BF8F
:102F900000BF06B010BD00000054004030380240B1
:102FA00000040240034800680349097808440149C5
:102FB000086070478C0800109408001010B50D4888
:102FC000006840F400700B4908600846006840F44F
:102FD000806008600846006840F480700860032044
:102FE00000F0A2F8002000F007F800F02BF8002015
:102FF00010BD0000003C024070B504460E48007849
:103000004FF47A71B1FBF0F00C490968B1FBF0F5AF
:10301000284601F041FC08B1012070BD102C07D2F8
:1030200000222146501E00F041F80548046001E0EE
:103030000120F2E70020F0E7940800105416012068
:103040009008001008B500BF002000900E480068EE
:1030500040F480400C4908600846006800F4804055
:10306000009000BF00BF00BF00200090081F006854
:1030700040F08050091F08600846006800F080504A
:10308000009000BF00BF08BD44380240014608461A
:10309000002809DB00F01F0301229A4043099B002E
:1030A00003F1E023C3F8002100BF70472DE9F05F72
:1030B00080460D461646002706F0BCFB07463946FB
:1030C0002A46334601F00700C0F1070ABAF1040F9F
:1030D00002D94FF0040A01E0C0F1070AD14600F11D
:1030E000040ABAF1070F02D24FF0000A01E0A0F182
:1030F000030AD4464FF0010A0AFA09FAAAF1010AB2
:103100000AEA020A0AFA0CFA4FF0010B0BFA0CFB5E
:10311000ABF1010B0BEA030B4AEA0B0421464046D4
:1031200006F090FBBDE8F09F00BF00F00702064BE1
:1031300019684FF6FF031940044B0B4343EA022181
:10314000014B196000BF70470CED00E00000FA056C
:10315000704702461068416200207047F0B5034690
:1031600015461868446A21B944EA05401E68B062F1
:1031700019E01868806A04EB1044002208E018681F
:1031800000F5827050F8220004EB1044501CC2B2CB
:10319000481E9042F3D844EA0547186800F582704B
:1031A0004E1E40F826700020F0BD10B50446D4F83D
:1031B000040404F0F1FF10BD70B504460D46C5EBE4
:1031C000C50304F13C0101EB8301CA682946D4F828
:1031D000040404F00EFF70BD70B504460D46C5EB47
:1031E000C50304F5FE7101EB8301CA682946D4F8D2
:1031F000040404F07EFF70BD10B50446D4F8040446
:1032000004F0CDFF10BD70B504460E4606F08000F8
:1032100080280AD106F00F00C0EBC00104F13C0089
:1032200000EB81050120687009E006F00F00C0EB9B
:10323000C00104F5FE7000EB81050020687006F007
:103240000F00287000BF94F8BC03012801D10220B0
:1032500070BD012084F8BC0300BF2946206805F03A
:103260008FFC00BF002084F8BC0300BF00BFEFE765
:1032700070B504460E4606F00F006168884201D919
:10328000012070BD06F0800080280AD106F00F00F2
:10329000C0EBC00104F13C0000EB81050120687027
:1032A00009E006F00F00C0EBC00104F5FE7000EB72
:1032B0008105002068700020A87006F00F002870BB
:1032C00000BF94F8BC03012801D10220D9E70120F6
:1032D00084F8BC0300BF2946206805F0F9FE00BF52
:1032E000002084F8BC0300BF00BFCAE72DE9F04707
:1032F00005460E4690461F464FF0000906F0800036
:1033000080280AD106F00F00C0EBC00105F13C0097
:1033100000EB81040120607009E006F00F00C0EBB3
:10332000C00105F5FE7000EB81040020607006F01E
:103330000F002070C4F80880E770607808B120782A
:10334000E080022F01D10020207100BF95F8BC035E
:10335000012802D10220BDE8F087012085F8BC03D6
:1033600000BF2146286805F017FB00BF002085F844
:10337000BC0300BF4846EEE72DE9F04104460E4687
:103380001746984606F00F00C0EBC00104F5FE702A
:1033900000EB8105EF60C5F814800020A86168701B
:1033A00006F00F0028702069012800D12F6106F077
:1033B0000F0028B9227C2946206805F065FD04E04D
:1033C000227C2946206805F017FF0020BDE8F08127
:1033D00070B504460D4605F00F006168884201D9BA
:1033E000012070BD05F0800080280AD105F00F0093
:1033F000C0EBC00104F13C0000EB810601207070BD
:1034000007E0C5EBC50104F5FE7000EB8106002066
:1034100070700120B07005F00F00307000BF94F89C
:10342000BC03012801D10220DBE7012084F8BC03A2
:1034300000BF3146206805F092FE05F00F0028B964
:10344000217C04F57172206805F00AFE00BF00209F
:1034500084F8BC0300BF00BFC3E72DE9F041044678
:103460000E461746984606F00F00C0EBC00104F167
:103470003C0000EB8105EF60C5F814800020A861D6
:103480000120687006F00F0028702069012800D123
:103490002F6106F00F0028B9227C2946206805F02C
:1034A000F3FC04E0227C2946206805F0A5FE0020FC
:1034B000BDE8F0812DE9FE4F044620680290029E8F
:1034C000206806F084F800287DD1206806F0BEF858
:1034D00008B9BDE8FE8F206806F0B8F800F00200D9
:1034E000022805D12068406900F002002168486187
:1034F000206806F0ABF800F40020B0F5002F58D19A
:103500000025206806F072F882464FE00AF00100BC
:10351000002848D0E9B2206806F08BF8804608F011
:10352000010048B1012106F5306000EB45108160D3
:103530002946204602F06CFD08F00800082809D151
:103540002946204602F01EFD082106F5306000EBFA
:103550004510816008F01000102805D1102106F5F3
:10356000306000EB4510816008F0200020280ED16B
:103570002069012805D104F571720121206805F048
:103580006FFD202106F5306000EB4510816008F4E6
:103590000050B0F5005F06D14FF4005106F53060E1
:1035A00000EB451081606D1C4FEA5A0ABAF1000F1A
:1035B000ACD1206806F04AF800F48020B0F5802FE6
:1035C0007ED1206800E012E206F006F8824600256F
:1035D00086E00AF0010000287FD0E9B2206806F0FA
:1035E0000FF8804608F00100E8B305F00F01012054
:1035F0008840019040F634008159019821EA00008A
:1036000040F634018851012106F5106000EB4510A9
:1036100081602069012815D1C5EBC50104F13C008A
:1036200000EB8100C5EBC502C16804F13C0000EB72
:10363000820080680144C5EBC50204F13C0000EB48
:103640008200C160E9B22046FFF7B6FD206901287B
:1036500010D145B9C5EBC50104F13C0000EB810078
:10366000406900B900E005E004F5717201212068AD
:1036700005F0F6FC08F00800082805D1082106F539
:10368000106000EB4510816008F01000102805D193
:10369000102106F5106000EB4510816008F0400035
:1036A000402805D1402106F5106000EB45108160EF
:1036B00008F00200022808D1022106F5106001E09E
:1036C00012E00AE000EB4510816008F080008028DD
:1036D00003D12946204602F05BFD6D1C4FEA5A0AD1
:1036E000BAF1000F7FF475AF206805F0AFFF00F06E
:1036F0000040B0F1004F1CD140F60400805920F08A
:10370000010140F60400815194F8F403012807D127
:10371000002084F8F40300212046FFF719FD02E0A1
:10372000204600F097FA2068406900F000402168C8
:103730004861206805F08AFF00F40060B0F5006F72
:103740000ED140F60800805900F0010010B120466B
:1037500000F0D8FA2068406900F4006021684861F0
:10376000206805F073FF00F48050B0F5805F72D1DF
:1037700040F60400805920F0010140F60400815118
:103780001021206805F0F8FE002726E04FF67F3173
:1037900006F5106000EB4710816006F5106000EB45
:1037A0004710006820F4001106F5106000EB471088
:1037B00001604FF67F3106F5306000EB4710816005
:1037C00006F5306000EB4710006820F4001106F5A4
:1037D000306000EB471001607F1C6068B842D5D8AC
:1037E00040F61C00805940F0011140F61C00815148
:1037F000206B70B1D6F8840840F00B01C6F884182D
:1038000040F64400805940F00B0140F644008151DD
:103810000FE040F61400805942F22B01084340F6B5
:1038200014018851081F805940F00B014FF40160CA
:103830008151D6F8000820F4FE60C6F80008217C0B
:1038400004F57172206805F00BFC2068406900F4F3
:10385000805021684861206805F0F8FE00F40050AF
:10386000B0F5005F17D1206805F0FEF8206805F07C
:103870009BFEE06000F0F2FB0090227B2068009944
:1038800005F034FF204600F0CDF92068406900F4CF
:10389000005021684861206805F0D8FE00F0100053
:1038A000102846D12068806920F0100021688861C6
:1038B0000298D0F8209009F00F00C0EBC00104F589
:1038C000FE7000EB810BC9F3434002281AD147F682
:1038D000F07009EA000030B3C9F30A12DBF80C10EB
:1038E000029805F0B8FEC9F30A11DBF80C00084491
:1038F000CBF80C00C9F30A11DBF818000844CBF828
:10390000180010E0C9F3434006280CD1082204F542
:103910007171029805F09FFEC9F30A11DBF81800D7
:103920000844CBF818002068806940F01000216836
:103930008861206805F08AFE00F00800082808D198
:10394000204600F08EF92068406900F008002168E8
:103950004861206805F07AFE00F48010B0F5801F01
:103960000AD100252946204600F043F82068406926
:1039700000F4801021684861206805F067FE00F4BB
:103980000010B0F5001F0AD100252946204600F09E
:1039900039F82068406900F4001021684861206807
:1039A00005F054FE00F08040B0F1804F08D1204671
:1039B000FFF7FBFB2068406900F080402168486108
:1039C000206805F043FE00F0040004280FD12068B1
:1039D000D0F8049009F00400042802D12046FFF733
:1039E0000BFC2068406840EA09002168486000BF7D
:1039F0006FE570B504460D462946D4F8040404F07A
:103A00002BFC70BD70B504460D462946D4F804045D
:103A100004F025FC70BD70B58AB0044614B90120CD
:103A20000AB070BD266894F8BD0328B9002084F858
:103A3000BC03204600F0A2F8032084F8BD03F06B1D
:103A400000F4807008B900212161206805F014FAA3
:103A5000282204F110016846FCF7E5FB94E80F000A
:103A600005F026F820B1022084F8BD030120D7E735
:103A70000021206805F000FE002531E00121C5EBA2
:103A8000C50204F13C0000EB82004170C5EBC501AA
:103A900004F13C0000F82150C5EBC50100EB8100AA
:103AA000C5800021C5EBC50204F13C0000EB82009B
:103AB000C170C5EBC50204F13C0000EB82008160DF
:103AC000C5EBC50204F13C0000EB8200C160C5EB10
:103AD000C50204F13C0000EB82004161681CC5B2E4
:103AE0006068A842CAD800252AE00021C5EBC502BB
:103AF00004F5FE7000EB82004170C5EBC50104F5D2
:103B0000FE7000F821500021C5EBC50200EB8200D9
:103B1000C170C5EBC50204F5FE7000EB8200816048
:103B2000C5EBC50204F5FE7000EB8200C160C5EB79
:103B3000C50204F5FE7000EB82004161681CC5B24D
:103B40006068A842D1D8282204F110016846FCF729
:103B50006AFB94E80F0005F095F820B1022084F884
:103B6000BD0301205CE7002084F83800012084F8C0
:103B7000BD03206805F076F8002051E710B586B047
:103B80000446142101A8FCF767FB2068B0F1A04FA0
:103B900042D100BF002000902048006840F00100A2
:103BA0001E4908600846006800F00100009000BF50
:103BB00000BF4FF4C05001900220029000200390FB
:103BC000032004900A20059001A91548FEF7B2FFD2
:103BD00000BF1248001D006840F080000F49091D19
:103BE000086000BF002000900C481430006840F4CA
:103BF00080400A49143108600846006800F480409B
:103C0000009000BF00BF00BF002211464320FFF715
:103C10004DFA4320FFF73AFA06B010BD30380240A3
:103C20000000024070B504460125E06808B900258F
:103C300006E0E068022801D1012501E0FEF78EFDD3
:103C40002946D4F8040404F083FBD4F8040404F0F7
:103C500039FB70BD10B50446D4F8040404F060FBD1
:103C600010BD10B50446D4F8040404F060FB10BD88
:103C700070B504460D4600BF94F8BC03012801D17D
:103C8000022070BD012084F8BC0300BF84F83850C6
:103C90002946206805F00BFD00BF002084F8BC0316
:103CA00000BF00BFEDE710B5044604F57171D4F80C
:103CB000040404F064FB10BD70B50446256800BF21
:103CC00094F8BC03012801D1022070BD012084F8C2
:103CD000BC0300BFA06A012806D1A069012803D057
:103CE000A86B40F48030A863206804F0ABFF206824
:103CF00005F024FC00BF002084F8BC0300BF00BF17
:103D0000E3E7000010B50446D4F8040404F090FB87
:103D10002068D0F8000E40F001002168C1F8000EC4
:103D2000206A28B10348006840F006000149086095
:103D300010BD000010ED00E0F8B504460025002697
:103D4000207800F0010020B9207800F00400042859
:103D50002FD100205B498866FEF7F2FF054606E09A
:103D6000FEF7EEFF401B022801D90320F8BD56489C
:103D70000068C0F3C0600028F2D160688101207A39
:103D800041EA007050498431086001204D4988663D
:103D9000FEF7D6FF054606E0FEF7D2FF401B0228DD
:103DA00001D90320E2E748480068C0F3C06000285A
:103DB000F2D0207800F0020002287DD100BF002060
:103DC000009041484030006840F080503E4940310A
:103DD00008600846006800F08050009000BF00BFF7
:103DE0003A48006840F4807038490860FEF7A8FF40
:103DF000054606E0FEF7A4FF401B022801D9032078
:103E0000B4E73248006800F480700028F2D02E48F1
:103E10007030006800F440764EB3A08900F4407022
:103E2000B04224D028487030006820F44076012049
:103E30002749086000200860234870300660006849
:103E400000F0010098B1FEF77BFF054608E0FEF7A1
:103E500077FF401B41F28831884201D9032085E772
:103E6000194870300068C0F340000028EFD000BF50
:103E7000A08900F44070B0F5407F0CD112480830A2
:103E8000006820F4F810134AE168114008430E4915
:103E90000831086007E00C480830006820F4F8108A
:103EA000094908310860084870300068A189C1F3E9
:103EB0000B010843044900E002E07031086000BFD4
:103EC000002053E7000047420038024000700040E5
:103ED000400E4742FFFCFF0F70B504460D460CB97B
:103EE000012070BD5848006800F00F00A84209D2B8
:103EF00055490D700846006800F00F00A84201D037
:103F00000120EEE7207800F0020002281DD1207881
:103F100000F00400042805D14C48006840F4E0504B
:103F20004A490860207800F00800082805D1474871
:103F3000006840F46040454908604448006820F04B
:103F4000F000A168084341490860207800F00100B2
:103F5000A8B36068012807D13C4808380068C0F35E
:103F60004040B8B90120BCE76068022802D0606810
:103F7000032807D1354808380068C0F3406048B9C5
:103F80000120AEE7314808380068C0F3400008B9A6
:103F90000120A6E72D48006820F00300616808436F
:103FA0002A490860FEF7CCFE064609E0FEF7C8FE87
:103FB000801B41F28831884202D9032091E707E053
:103FC0002248006800F00C006168B0EB810FEDD171
:103FD0001D48006800F00F00A84209D91A490D7069
:103FE0000846006800F00F00A84201D0012078E7E1
:103FF000207800F00400042807D11448006820F459
:10400000E050E168084311490860207800F008009A
:10401000082808D10D48006820F46040216940EA72
:10402000C1000A49086000F03FF808490968C1F377
:104030000311074A515CC8400649086006480068F9
:10404000FEF7DAFF00204CE7003C0240083802404F
:10405000EEEA00085416012090080010014800689C
:10406000704700005416012000B5FFF7F7FF044920
:104070000968C1F38221034A515CC84000BD0000B9
:1040800008380240FEEA000800B5FFF7E7FF0449E0
:104090000968C1F34231034A515CC84000BD0000C9
:1040A00008380240FEEA00082DE9F0470024002508
:1040B0000026A1462548006800F00C0020B1042825
:1040C00005D008283AD105E0DFF8849039E0DFF820
:1040D000849036E01D48001F006800F03F041B4834
:1040E000001F006800F4800078B11A481749091FC2
:1040F0000968C1F38811A0FB017001462246002324
:104100003846FCF75FF805460EE011480F49091FD5
:104110000968C1F38811A0FB017001462246002303
:104120003846FCF74FF805460848001F0068C0F302
:104130000140401C4600B5FBF6F902E0DFF81090A4
:1041400000BF00BF4846BDE8F087000008380240C5
:104150000024F400001BB700F8B504460CB9012098
:10416000F8BD207800F00100002874D0F9480068FC
:1041700000F00C0004280DD0F648006800F00C0098
:10418000082813D1F348001F006800F48000B0F540
:10419000800F0BD1EF4808380068C0F3404000287A
:1041A00059D06068002856D10120D9E700BF606867
:1041B000B0F5803F08D1E7480838006840F4803007
:1041C000E449083908601EE06068B0F5A02F0DD101
:1041D000E0480838006840F48020DE49083908606B
:1041E0000846006840F4803008600CE0D948083880
:1041F000006820F48030D749083908600846006814
:1042000020F48020086000BF606890B1FEF798FD40
:10421000054606E0FEF794FD401B642801D9032003
:104220009EE7CC4808380068C0F340400028F1D031
:1042300011E0FEF785FD054606E0FEF781FD401B17
:10424000642801D903208BE7C24808380068C0F30E
:1042500040400028F1D1207800F0020002285FD110
:10426000BC48006800F00C0058B1BA48006800F083
:104270000C0008281CD1B748001F006800F480001B
:10428000B0B9B44808380068C0F3400020B1E06815
:10429000012801D0012063E7AE480838006820F00B
:1042A000F800216940EAC100AA490839086037E0EE
:1042B000E06800B30120A8490860FEF741FD05460B
:1042C00006E0FEF73DFD401B022801D9032047E729
:1042D000A04808380068C0F340000028F1D09D488D
:1042E0000838006820F0F800216940EAC1009949C7
:1042F0000839086014E0002097490860FEF720FDA7
:10430000054606E0FEF71CFD401B022801D90320EC
:1043100026E7904808380068C0F340000028F1D133
:10432000207800F0080008282CD16069A8B101208D
:104330008A490860FEF704FD054606E0FEF700FD29
:10434000401B022801D903200AE782486C3000682C
:10435000C0F340000028F1D014E000207F4908603D
:10436000FEF7EEFC054606E0FEF7EAFC401B0228DD
:1043700001D90320F4E677486C300068C0F34000B0
:104380000028F1D1207800F00400042870D1002723
:1043900070483830006800F0805090B900BF0020AD
:1043A00000906C483830006840F0805069493831DE
:1043B00008600846006800F08050009000BF00BF11
:1043C00001276748006800F48070B0B9644800684D
:1043D00040F4807062490860FEF7B2FC054606E0D2
:1043E000FEF7AEFC401B022801D90320B8E65C486A
:1043F000006800F480700028F2D000BFA068012897
:1044000008D154486830006840F0010051496831D3
:1044100008601DE0A06805280DD14E48683000688E
:1044200040F004004B49683108600846006840F0DD
:10443000010008600CE047486830006820F0010087
:104440004449683108600846006820F004000860AC
:1044500000BFA068A8B1FEF773FC054609E0FEF7AF
:104460006FFC401B41F28831884202D9032077E675
:1044700026E0384868300068C0F340000028EED0DD
:1044800013E0FEF75DFC054608E0FEF759FC401B13
:1044900041F28831884201D9032061E62D48683015
:1044A0000068C0F340000028EFD1012F07D1294850
:1044B0003830006820F0805026493831086000BF4D
:1044C000A069002845D02348006800F00C000828A7
:1044D0005DD0A069022845D100201F490866FEF77B
:1044E0002FFC054606E0FEF72BFC401B022801D9F5
:1044F000032035E6174808380068C0F340600028FC
:10450000F1D1D4E907010843616A40EA811101222F
:10451000A06AC2EB500041EA00412C20005D41EA54
:1045200000600C49091F086001200B490866FEF76E
:1045300007FC054606E0FEF703FC401B022801D9F4
:1045400003200DE6034808380068C0F340600028E7
:10455000F1D03FE00838024000004742800E474259
:104560000070004000201C490866FEF7E9FB054684
:1045700006E0FEF7E5FB401B022801D90320EFE52A
:1045800016480068C0F340600028F2D122E0A0691C
:10459000012800D1E4E511480830066806F48001DE
:1045A000E069814214D106F03F01206A81420FD1B7
:1045B00047F6C0703040616A884209D106F4403144
:1045C000A06A814204D106F07061E06A814201D0A4
:1045D0000120C5E50020C3E5000047420038024045
:1045E00010B504460CB9012010BD607F20B9002031
:1045F0002077204600F060F80220607700BFCA20D4
:104600002168486253202168486200BF204601F0BB
:104610001BFE40B100BFFF202168486200BF04209C
:1046200060770120E0E7206880682249084021681F
:104630008860216960680843616908432168896866
:104640000843216888602168E06808612068016982
:10465000208941EA0040216808612068C06820F094
:1046600080002168C8602068806800F0200060B980
:10467000204600F02DF840B100BFFF2021684862BD
:1046800000BF042060770120AEE72068006C20F4B2
:104690008020216808642068006CA16908432168B3
:1046A000086400BFFF202168486200BF01206077D6
:1046B000002099E7BFFF8FFF034A0168914202D1B2
:1046C0000121024A11607047002800403C0E474219
:1046D00070B5044600252068C06820F0A00021685D
:1046E000C860FEF72DFB054607E0FEF729FB401BDF
:1046F000B0F57A7F01D9032070BD2068C06800F052
:1047000020000028F1D00020F6E710B504460CB9CF
:10471000012010BD606A00B900BF0021A16294F8B9
:10472000510028B9002084F85000204600F034F8E9
:10473000022084F851002068006820F040002168C1
:104740000860D4E901010843E1680843216908438E
:1047500061690843218B01F400710843E169084352
:10476000216A0843A16A0843216808600421A069FE
:1047700001EA1040616A0843216848602068C06906
:1047800020F400602168C86100206065012084F881
:1047900051000020BDE7000010B586B0044614218A
:1047A00001A8FBF759FD37492068884230D100BF86
:1047B000002000903448006840F48050324908607E
:1047C0000846006800F48050009000BF00BF00BFA2
:1047D000002000902C481438006840F002002A495C
:1047E000143908600846006800F00200009000BF1D
:1047F00000BF382001900220029000200390032087
:1048000004900520059001A92048FEF793F936E0B1
:104810001F492068884232D100BF002000901A480A
:10482000001F006840F400401749091F086008464F
:10483000006800F40040009000BF00BF00BF0020EF
:10484000009011481438006840F004000E491439F3
:1048500008600846006800F00400009000BF00BF38
:104860004FF4E050019002200290002003900320BA
:1048700004900620059001A90648FEF75BF906B0F2
:1048800010BD0000003001404438024000040240E6
:10489000003C00400008024070B504462546681EF2
:1048A000B0F1807F01D301200FE0681E4FF0E021BE
:1048B00048610F214FF0FF3004F0C4FF00204FF09B
:1048C000E021886107200861002070BD10B5044612
:1048D0000CB9012010BDA06900B100E000BF94F840
:1048E000390028B9002084F83800204600F028F864
:1048F000242084F839002068C06820F40050216822
:10490000C860204602F046FD2068006920F490400F
:10491000216808612068406920F02A002168486108
:104920002068C06840F400502168C8600020E0633F
:10493000202084F8390084F83A000020CAE70000FB
:1049400010B586B00446142101A8FBF785FC364952
:104950002068884231D100BF0020009033480068B1
:1049600040F01000314908600846006800F010006F
:10497000009000BF00BF00BF002000902B481438FB
:10498000006840F0010029491439086008460068B1
:1049900000F00100009000BF00BF4FF4C060019024
:1049A000022002900120039003200490072005902C
:1049B00001A91F48FEF7BEF833E01E49206888426F
:1049C0002FD100BF002000901848006840F0200060
:1049D000164908600846006800F02000009000BFFB
:1049E00000BF00BF0020009010481438006840F05D
:1049F00004000E49143908600846006800F00400FD
:104A0000009000BF00BFC020019002200290012052
:104A10000390032004900820059001A90648FEF7A2
:104A200089F806B010BD0000001001404438024073
:104A30000000024000140140000802402DE9F84344
:104A400004460D4616461F464FF0000994F83900FB
:104A500020285DD105B116B90120BDE8F88300BF5B
:104A600094F83800012801D10220F6E7012084F8EB
:104A7000380000BF0020E063212084F83900FEF7F1
:104A80005FF98146A684E68400BF002084F83800E0
:104A900000BF2BE0E08C401EE084A068B0F5805F92
:104AA00016D14B46002280212046009702F066FE78
:104AB00008B10320D1E7A846B8F80000C0F3080009
:104AC00021684860206908B9AD1C0FE06D1C0DE03D
:104AD0004B46002280212046009702F04FFE08B18D
:104AE0000320BAE715F8010B21684860E08C002824
:104AF000D0D14B46002240212046009702F03EFED6
:104B000008B10320A9E7202084F839000020A4E799
:104B10000220A2E700BFFEE77CB5044600BF0020EC
:104B20000190009004EBC40202EBC412124B03EBA1
:104B30008202D2F8A81004EBC40202EBC41233F8CC
:104B400022006A4600F0BDF8054604EBC40101EB03
:104B5000C411094A32F8210001AAA02100F0B1F8DD
:104B600005433DB90098012803D0044901988842C3
:104B700000D0022528467CBD74090010F77FA55A95
:104B800038B5044600BF0020009004EBC40202EBDD
:104B9000C4120B4B03EB8202D2F8EC1004EBC402FC
:104BA00002EBC41233F822006A4600F075F805469D
:104BB0001DB9BDF8000000B11025284638BD000021
:104BC000740900102DE9F84306460C4600BF00208A
:104BD000009000BF00BF00BF002704EBC40101EB41
:104BE000C4112C4A02EB810101F10A00FCF7DEFB43
:104BF00085B209E038467F1C322802D945F01005FD
:104C000007E00A20FCF7E8FA2046FFF7B9FF002882
:104C1000F0D100BFDDB900208DF800008DF80160F3
:104C20006846FDF701FC804604EBC40202EBC412A7
:104C3000184B03EB8202D2F8EC1004EBC40202EB37
:104C4000C41233F82200424600F0AEF805430027B4
:104C500000BF0A20FCF7C0FA38467F1C322802D970
:104C600045F0100504E02046FFF78AFF0028F0D148
:104C700000BF04EBC40101EBC411064A02EB810141
:104C800001F10A00FCF786FB284385B22846BDE8FF
:104C9000F883000074090010F8B506460F46144664
:104CA00000250020009002236A463946304600F075
:104CB00031F805461DB96846FDF7B6FB2080284649
:104CC000F8BDF8B506460F461446002500200090B2
:104CD00004236A463946304600F01CF805461DB9E3
:104CE0006846FDF7A9FB20602846F8BDF8B50646E2
:104CF0000F46144600250020009001236A463946DD
:104D0000304600F007F8054615B99DF80000207000
:104D10002846F8BD2DE9FE4381460F4615469846C4
:104D20000024002002900190002600901D48FCF70E
:104D30003DFB84B26CBB02A93846FDF743F9032062
:104D4000019001AA02A94846FCF7ECFA84B204BB20
:104D50001FFA88F000900EE040200190A91901AAE6
:104D60004846FCF773FA204384B24036BDF8000091
:104D7000403880B20090BDF800004028ECDCBDF85F
:104D8000000030B1A9196A464846FCF75FFA204393
:104D900084B20448FCF7FEFA204384B22046BDE802
:104DA000FE8300001C0000202DE9FC4106460C4655
:104DB0001546002700200090019069462046FDF727
:104DC00001F90DF103012846FDF7F0F805226946C7
:104DD000304600F035F807463846BDE8FC812DE93D
:104DE000FC4106460C461546002700200090019025
:104DF00069462046FDF7E6F80DF103012846FDF768
:104E0000D9F807226946304600F01AF807463846B6
:104E1000BDE8FC81F8B506460C4615460027002083
:104E2000009069462046FDF7CDF88DF80350042226
:104E30006946304600F004F807463846F8BD0000E1
:104E40002DE9FE4F83460C46924600270020019034
:104E5000029000900025804681460026BAF1030F9B
:104E600002D20220BDE8FE8FAAF1030A3548FCF702
:104E70009DFA87B2002F5DD126783602607806440D
:104E80003602A0780644D1464FF03D08002528E0C0
:104E900008F1030080B20090605D8DF80400681C8A
:104EA000205C8DF80500A81C205C8DF806006119B7
:104EB0003046FDF787F861196A465846FCF732FA22
:104EC000384387B29DF8040060559DF80510681CB2
:104ED00021549DF80610A81C215446444544A9EBD2
:104EE0000809C145D4D809F1030080B20090605D83
:104EF0008DF80400681C205C8DF80500A81C205C5F
:104F00008DF8060061193046FDF75CF861196A46B4
:104F10005846FCF707FA384387B29DF804006055FD
:104F20009DF80510681C21549DF80610A81C2154FA
:104F30004E444D440348FCF72DFA384387B23846B7
:104F400090E700001C0000202DE9FC4707460C46B6
:104F500000250020019000900126804681462146D0
:104F600001A8FDF735F805469DF80490B9F1010F49
:104F700057D104EBC40202EBC4122C4B03EB8202A8
:104F8000D2F8EC2002F1240104EBC40202EBC412BB
:104F900033F822006A46FFF794FE05460098C6B231
:104FA000052E3BD2DFE806F034320336380004EB3E
:104FB000C40202EBC4121D4B03EB8202D2F8F820AC
:104FC00002F1D00104EBC40202EBC41233F8220058
:104FD00001AAFFF78BFE05469DF80480B8F1000F8B
:104FE00003D0B8F1010F0CD105E02146384600F09E
:104FF0001FF8054308E02146384600F029F905432B
:1050000002E00220BDE8FC8700BF09E08020F9E74C
:105010008020F7E78020F5E78020F3E70220F1E722
:1050200001E0002038602846ECE700007409001019
:105030002DE9F04F93B0054688464FF00009002057
:10504000129082461190109000260F900E9000272B
:1050500000244FF0030B0390029001200190424680
:10506000012112A8FDF77CFB81461298642802D822
:105070004FF0640A27E01298642822D96D491298EB
:1050800088421ED86C491298B1FBF0F00F901620A0
:105090000E90002707E0694850F837100F988142BA
:1050A00000D903E07F1C0E988742F4D300BF07B9F4
:1050B0000127781E614901EBC0004068A0F1280A71
:1050C00001E04FF00F0A414604A8FBF7BDFA40EAA1
:1050D00009099DF813B09DF8150002909DF8140081
:1050E00003900398F0B9002413E0554810F83400F9
:1050F00058450CD1524800EBC400417802988142D7
:1051000005D14F4800EBC4004068119003E0601CDB
:1051100084B20F2CE9D300BF0F2C45D1802013B0EF
:10512000BDE8F08F08EBC80202EBC812454B03EB59
:105130008202D2F8F42002F16A0108EBC80202EB05
:10514000C81233F8220001AAFFF7D0FD40EA09098E
:10515000002422E03C4800EBC400407858451AD1B6
:10516000394800EBC40081780298814213D1364857
:1051700010F834009DF8041088420CD1324800EB3E
:10518000C400C1780398814205D12F4800EBC400C8
:105190004068119003E0601C84B23C2CDAD300BF5D
:1051A0003C2C01D18020BAE7414610A8FCF792FFC1
:1051B00040EA09090C211098B0FBF1F0109908445D
:1051C0001090109864301090DDE910100E1A16F54A
:1051D0002F7F02DA0020286014E016F52F7F0FDB06
:1051E000B6F5967F0CDAA6F596700A2190FBF1F0E1
:1051F000643000FB0AF06421B0FBF1F0286001E0AC
:10520000C5F800A016F52F7F11DD0B4912988842D2
:105210000DD10E48008828600C4800880A300B49E0
:10522000088008460088642801DD00200880484680
:1052300075E7000040420F0000CA9A3B4406001088
:105240006C01001074090010E40100106E080010D9
:105250002DE9F04F8DB0054689464FF0000800203B
:105260000C9000240B900027824683460026009075
:105270004A4603210CA8FDF773FA8046494601A867
:10528000FBF7E2F940EA08089DF813A09DF812B078
:1052900000BF56E04C4810F8360050454FD14A4800
:1052A00000EBC6004078584549D1474800EBC6009E
:1052B00044680A349DF80F109DF80C0001EBC00003
:1052C00000904249009801EBC00040680444C83493
:1052D0009DF8130018B19DF81300012801D1641D39
:1052E0002CE09DF81300022810D19DF8120018B18F
:1052F0009DF81200012801D1641D1FE09DF81200E5
:10530000052801D1193419E00F3417E09DF8120077
:1053100008B90F3412E09DF81200032801D12D3492
:105320000CE09DF81200042801D1373406E09DF806
:105330001200052801D1413400E0193403E0701C4B
:1053400086B2202EA6D300BF202E03D180200DB020
:10535000BDE8F08F49460BA8FCF7BCFE40EA080800
:105360000C210B98B0FBF1F00B9908440B900B98B3
:10537000071B17F5967F02DA0020286022E017F558
:10538000967F1DDBB7F5967F1ADC0C98642806D84B
:1053900007F59670062190FBF1F0286012E00C985A
:1053A00064280AD30A490C98884206D807F59670F3
:1053B0000F2190FBF1F0286004E00020286001E05C
:1053C000642028604046C2E7C4030010C4040010F3
:1053D000A086010070B5054600BF29460320FFF7EF
:1053E000F1FB29460120FFF7EDFB04462946112079
:1053F000FFF7E8FB044329461220FFF7E3FB0443D1
:1054000005EBC50000EBC510044A02EB8000D0F8A4
:105410009010284688470443204670BD7409001048
:105420002DE9F04105460C4600BF002704EBC400FF
:1054300000EBC410134901EB80008069A84208D832
:1054400004EBC40000EBC41001EB800080692F1A4C
:1054500000E02F4604EBC40202EBC412094B03EB3D
:105460008202D2F81C2102F1440104EBC40202EBD7
:10547000C41233F822003A46FFF7B1FC0646304624
:10548000BDE8F081740900103EB50446002524B142
:10549000012C02D0022528463EBD01208DF80000D7
:1054A0008DF8010040F6B8300190002002902346AC
:1054B0009DE80700FDF774F80546204600F0E4FE7D
:1054C00005432846E8E730B50B46002100BF16E04B
:1054D0000A24B4EB107F05D9302404EB107403F8D0
:1054E000114005E0412404EB10740A3C03F811401C
:1054F000000100254C00641C1D554C1CE1B291427A
:10550000E6DB30BD00B587B0142102A8FAF7A4FE8F
:1055100000BF002001904E48006840F010004C4948
:1055200008600846006800F01000019000BF00BF4E
:1055300000BF002001900846006840F004000860A9
:105540000846006800F00400019000BF00BF00BFE3
:10555000002001900846006840F08000086008467E
:10556000006800F08000019000BF00BF00BF002075
:1055700001900846006840F0010008600846006895
:1055800000F00100019000BF00BF00BF00200190AB
:105590000846006840F0080008600846006800F00F
:1055A0000800019000BF00BF00BF00200190084626
:1055B000006840F0020008600846006800F0020041
:1055C000019000BF00BF012224212248FDF7B2FB59
:1055D00000224FF4F0411F48FDF7ACFB00220221EE
:1055E0001D48FDF7A7FB012211021C48FDF7A2FB95
:1055F00047F62400029001200390002004900590BB
:1056000002A91448FDF796FA48F21800029000200B
:105610000390049002A90F48FDF78CFA0220029033
:105620000120039000200490059002A90A48FDF78C
:1056300081FA4FF4807002900120039000200490C2
:10564000059002A90548FDF775FA07B000BD0000F6
:105650003038024000100240000C024000040240BA
:1056600010B50B480B4908600B48486000210948F9
:105670008160C1604FF4804101610021416181611D
:10568000C1610162FDF762FB08B1FDF767F810BD6B
:1056900000540040BC0D0010801A060010B50A48E6
:1056A0000A490860002048607F2108488160FF2186
:1056B000C1600021016141618161FEF791FF08B184
:1056C000FDF74CF810BD0000002800406C160120CA
:1056D00010B50E480E4908604FF4827048600021F2
:1056E0000B488160C160016141614FF400718161CB
:1056F0000021C1610162416281620A21C162FFF73A
:1057000004F808B1FDF72AF810BD00000030014090
:105710008C16012010B50E480E4908604FF48270B7
:10572000486000210B488160C160016141614FF414
:10573000007181610021C1610162416281620A21BF
:10574000C162FEF7E2FF08B1FDF708F810BD0000E6
:10575000003C0040E416012010B50B480B490860DE
:105760004FF4E1304860002108488160C160016168
:105770000C21416100218161C161FFF7A7F808B1E7
:10578000FCF7ECFF10BD000000100140100E0010EF
:1057900010B500220D490E4802F0ECFB08B1FCF7F1
:1057A000DDFF0C490A4802F079FE08B1FCF7D6FF8C
:1057B0000949074802F0B2F808B1FCF7CFFF0448E6
:1057C00002F036FF08B1FCF7C9FF10BD0416012036
:1057D000900E0010980800107C08001000BFFEE733
:1057E00070B504460D461646A8B2B1B24843606093
:1057F00000202060280CB2B200FB02F12046FCF72A
:10580000B7FB300CAAB200FB02F12046FCF7B0FB5C
:10581000290C320C206801FB0200206070BDF8B535
:1058200007460C4600260025002000903BE005EBD3
:105830004500205C50B905EB45002044407828B96C
:1058400005EB45002044807800B92EE005EB4500CB
:1058500020444078FF2809D005EB4500215C6A46CA
:10586000384600F03BFB064606B11EE005EB45005E
:10587000204441789DF800008843009005EB4500E6
:10588000204480789DF800100843009005EB450007
:10589000215C9DF80020384600F054FB064606B116
:1058A00003E0681C85B2002EC1D000BF3046F8BDB1
:1058B0002DE9F84380460E461446002700250020B7
:1058C0000090002C2BD000BF0CE02068012806D1EE
:1058D00020798DF8000060798DF8010005E0681CE2
:1058E000C5B2083420680028EFD100BF002512E0BF
:1058F00015492068401AB0420AD820680844B042CE
:1059000006D320798DF8000060798DF8010005E05C
:10591000681CC5B2083420680028E9D100BF002502
:1059200009E01DF805200948415D404600F00AFBEA
:105930000743681CC5B20548401E0078A842F0DC49
:105940003846BDE8F883000020A107002D010010B3
:105950002DE9F74384B08046002600240020039000
:1059600002900190009081460027002212214046BB
:1059700000F0E8FA04439DF81800012879D19DF859
:105980001A00032876DCA7490598884212D21F2204
:105990007C21404600F0D6FA04439DF81A0018B165
:1059A0009DF81A00032802D1C120039014E0812041
:1059B000039011E09F227C21404600F0C3FA04438B
:1059C0009DF81A0018B19DF81A00032802D1D120C1
:1059D000039001E09120039001220021404600F055
:1059E000B1FA04439DF80C203121404600F0AAFA98
:1059F000044300221146404600F0A4FA04438A49B9
:105A00000598884209D39DF81A0018B19DF81A002C
:105A1000032802D14FF0370901E04FF059094A46F7
:105A2000A921404600F08EFA04439DF81A0030B1D7
:105A3000012807D0022806D0032806D100E000BFC5
:105A40007A4F03E000BF7A4F00E000BF00BF2FB1E4
:105A50003A4640460599FFF72BFF04439DF819008D
:105A6000202810D007DC58B101280AD002282BD1F9
:105A700008E0D2E0D0E0212806D0222824D104E09A
:105A800000BF00BF00BF00BF00BF9DF819200F215D
:105A9000404600F057FA04434FF47A710598B0FB82
:105AA000F1F5AD0105F5FA70B0FBF1F6F2B2102197
:105AB000404600F047FA0443C6F30722112140464E
:105AC00000F040FA044302E044F0040400BF00BFC9
:105AD00001220B21404600F035FA04430122002147
