:020000040800F2
:1000000060580020AD01000875280008412500084F
:10001000712800084F030008D153000800000000B9
:100020000000000000000000000000005F2B00083E
:1000300071030008000000001F2B0008732B00084C
:10004000C7010008C7010008C7010008C701000870
:10005000C7010008C7010008C7010008C701000860
:10006000C7010008C7010008C7010008C701000850
:10007000C7010008C7010008C7010008C701000840
:10008000C7010008C7010008C70100080000000000
:10009000000000000000000000000000C701000890
:1000A000C7010008C7010008C7010008C701000810
:1000B000C7010008C7010008C7010008C701000800
:1000C000C7010008C7010008C7010008C7010008F0
:1000D000C701000829320008C7010008000000001D
:1000E000C7010008C7010008C701000800000000A0
:1000F000000000000000000000000000C701000830
:1001000000000000C7010008C7010008C70100087F
:1001100000000000000000000000000000000000DF
:10012000C7010008C7010008C7010008C70100088F
:10013000C7010008000000000000000000000000EF
:100140000000000000000000000000007928000806
:10015000C7010008C7010008C7010008C70100085F
:10016000C7010008C70100080000000000000000EF
:10017000000000000000000000000000000000007F
:1001800000000000C701000800000000000000009F
:10019000C7010008DFF810D000F09CF800480047C5
:1001A00041830008AFF30080605800200648804774
:1001B00006480047FEE7FEE7FEE7FEE7FEE7FEE74C
:1001C000FEE7FEE7FEE7FEE7552C00089501000874
:1001D0002DE9F05F0546002092469B46884606467C
:1001E000814640241BE0284641464746224600F00F
:1001F00060F853465A46C01A914110D3114618462A
:10020000224600F047F82D1A67EB01084F462246B8
:100210000120002100F03EF817EB00094E41201E9E
:10022000A4F10104DFDC484631462A464346BDE8D6
:10023000F09F40EA01039B0703D009E008C9121FA1
:1002400008C0042AFAD203E011F8013B00F8013B90
:10025000521EF9D27047D2B201E000F8012B491EBC
:10026000FBD270470022F6E710B513460A46044653
:100270001946FFF7F0FF204610BD30B504460020B8
:10028000034600E05B1C934203D2E05CCD5C401B64
:10029000F8D030BD202A04DB203A00FA02F1002019
:1002A00070479140C2F1200320FA03F319439040B4
:1002B0007047202A04DB203A21FA02F0002170471F
:1002C00021FA02F3D040C2F12002914008431946BE
:1002D00070470000064C074D06E0E06840F001035F
:1002E00094E8070098471034AC42F6D3FFF756FF66
:1002F0002CE700084CE7000870B58C1810F8015B7B
:1003000015F0070301D110F8013B2A1106D110F8AE
:10031000012B03E010F8016B01F8016B5B1EF9D1B2
:100320002B0705D40023521E0DD401F8013BFAE738
:1003300010F8013BCB1A921C03E013F8015B01F8A3
:10034000015B521EF9D5A142D8D3002070BD00BF79
:10035000FEE70020704700207047000070B504469B
:100360000D46024803F00FF8002070BD440900203C
:100370007047704770B50A480468001D0568001D85
:100380000668344454B108220649204602F0DAF8DF
:10039000042204491031284602F0D4F870BD000050
:1003A000107AFF1F52060020014691F835000228FE
:1003B00003D08020486501207047052081F8350072
:1003C0000868006820F001000A6810600020F3E768
:1003D00070B5044600F000F906462546681C10B1C9
:1003E00004480078054400BF00F0F6F8801BA842DE
:1003F000FAD370BDA8060020F8B503460A460025CA
:10040000002400200021CDE0012606FA01F516683F
:1004100006EA0504AC4273D15668012E08D056682E
:10042000022E05D05668112E02D05668122E13D116
:1004300098684F000326BE40B0434F00D668BE40C8
:1004400030439860586801268E40B0431679C6F351
:1004500000168E4030435860D8684F000326BE40D7
:10046000B0434F009668BE403043D8605668022EB5
:1004700002D05668122E13D1CF0803F1200656F889
:1004800027004E07F70E0F26BE40B0434F07FF0E62
:100490001669BE403043CF0803F1200646F8270016
:1004A00018684F000326BE40B043167906F00306D5
:1004B0004F00BE4030431860566806F08056B6F1D3
:1004C000805F6ED100BF00260096384E366846F435
:1004D0008046364F3E603E46366806F480460096BB
:1004E00000BF00BF324E8F0856F827008E07370F27
:1004F0000F26BE40B0432F4EB34202D1002615E076
:100500004FE02D4EB34201D101260FE02B4EB342F6
:1005100001D102260AE02A4EB34201D1032605E0AA
:10052000284EB34201D1042600E007268F073F0F73
:10053000BE4030431E4E8F0846F82700224E3068DA
:10054000A043566806F48036B6F5803F00D12043BC
:100550001D4E3060361D3068A043566806F40036E4
:10056000B6F5003F00D12043174E361D3060361DD2
:100570003068A043566806F48016B6F5801F00D197
:100580002043114E08363060361D3068A04356684F
:1005900006F40016B6F5001F00D120430A4E0C36B3
:1005A0003060491C1029FFF42FAFF8BD44380240D9
:1005B00008380140000002400004024000080240E8
:1005C000000C024000100240003C01400AB1816171
:1005D00001E00B0483617047014800687047000028
:1005E000A006002070B504460CB9012070BD94F837
:1005F0003D0028B9002084F83C00204600F0DAF8DD
:10060000242084F83D002068006820F00100216863
:1006100008602068006840F4004021680860206895
:10062000006820F400402168086001F07DF905466B
:100630005C496068884206D85B48854201D2012047
:1006400007E0002005E05948854201D2012000E082
:100650000020012800D1C9E75548B5FBF0F6206815
:10066000406820F03F003043216848604D49606891
:10067000884201D8701C07E04FF4967070434FF425
:100680007A71B0FBF1F0401C2168096A21F03F014A
:1006900008432168086243496068884214D8681E8C
:1006A00061684900B0FBF1F0401CC0F30B00042866
:1006B00001D204203DE0681E61684900B0FBF1F002
:1006C000401CC0F30B0034E0A06838B9681E6168B4
:1006D00001EB4101B0FBF1F0401C0AE0681E6168CB
:1006E00001EBC10202EB0111B0FBF1F0401C40F440
:1006F0008040C0F30B0008B901201AE0A06848B997
:10070000681E616801EB4101B0FBF1F0401CC0F3D1
:100710000B000CE0681E616801EBC10202EB0111E5
:10072000B0FBF1F0401CC0F30B0040F4804040F4FB
:1007300000402168C9694CF6FF7291430843216863
:10074000C861D4E9070108432168096821F0C001A4
:10075000084321680860D4E90310084321688968C8
:1007600048F2FF329143084321688860D4E90501CB
:1007700008432168C96821F0FF0108432168C86067
:100780002068006840F001002168086000202064B3
:10079000202084F83D000020206384F83E0000BF44
:1007A00024E70000A086010080841E0000093D00AF
:1007B00040420F0010B586B00446142101A8FFF78F
:1007C00051FD1B49206888422FD100BF00200090B6
:1007D0001848006840F002001649086008460068A2
:1007E00000F00200009000BF00BFC0200190122066
:1007F000029001200390032004900420059001A999
:100800000D48FFF7F9FD00BF0020009009481030A7
:10081000006840F40010074910310860084600687D
:1008200000F40010009000BF00BF06B010BD000033
:100830000054004030380240000402400348006881
:10084000034909780844014908607047A006002060
:10085000A806002010B50D48006840F400700B4950
:1008600008600846006840F4806008600846006838
:1008700040F480700860032000F0A2F8002000F02F
:1008800007F800F02BF8002010BD0000003C0240EB
:1008900070B504460E4800784FF47A71B1FBF0F061
:1008A0000C490968B1FBF0F5284601F055FC08B188
:1008B000012070BD102C07D200222146501E00F0EE
:1008C00041F80548046001E00120F2E70020F0E76C
:1008D000A8060020AC060020A406002008B500BF32
:1008E000002000900E48006840F480400C490860E9
:1008F0000846006800F48040009000BF00BF00BFC1
:1009000000200090081F006840F08050091F086018
:100910000846006800F08050009000BF00BF08BD8E
:100920004438024001460846002809DB00F01F0356
:1009300001229A4043099B0003F1E023C3F8002100
:1009400000BF70472DE9F05F80460D461646002730
:1009500004F050FD074639462A46334601F00700A9
:10096000C0F1070ABAF1040F02D94FF0040A01E0FE
:10097000C0F1070AD14600F1040ABAF1070F02D20A
:100980004FF0000A01E0A0F1030AD4464FF0010A3B
:100990000AFA09FAAAF1010A0AEA020A0AFA0CFAA0
:1009A0004FF0010B0BFA0CFBABF1010B0BEA030B45
:1009B0004AEA0B042146404604F024FDBDE8F09FBE
:1009C00000BF00F00702064B19684FF6FF031940FD
:1009D000044B0B4343EA0221014B196000BF7047EF
:1009E0000CED00E00000FA05704702461068416215
:1009F00000207047F0B5034615461868446A21B9CF
:100A000044EA05401E68B06219E01868806A04EB89
:100A10001044002208E0186800F5827050F82200A7
:100A200004EB1044501CC2B2481E9042F3D844EA72
:100A30000547186800F582704E1E40F826700020A9
:100A4000F0BD10B50446D4F8040403F03CF910BD21
:100A500070B504460D46C5EBC50304F13C0101EB3E
:100A60008301CA682946D4F8040403F070F870BD05
:100A700070B504460D46C5EBC50304F5FE7101EBE8
:100A80008301CA682946D4F8040403F0D3F870BD82
:100A900010B50446D4F8040403F018F910BD70B57D
:100AA00004460E4606F0800080280AD106F00F00AA
:100AB000C0EBC00104F13C0000EB8105012068702F
:100AC00009E006F00F00C0EBC00104F5FE7000EB7A
:100AD00081050020687006F00F00287000BF94F8B0
:100AE000BC03012801D1022070BD012084F8BC03A1
:100AF00000BF2946206803F0E9FD00BF002084F80C
:100B0000BC0300BF00BFEFE770B504460E4606F019
:100B10000F006168884201D9012070BD06F0800095
:100B200080280AD106F00F00C0EBC00104F13C00A0
:100B300000EB81050120687009E006F00F00C0EBB2
:100B4000C00104F5FE7000EB8105002068700020F4
:100B5000A87006F00F00287000BF94F8BC030128AD
:100B600001D10220D9E7012084F8BC0300BF294647
:100B7000206804F08DF800BF002084F8BC0300BF9B
:100B800000BFCAE72DE9F04705460E4690461F46CE
:100B90004FF0000906F0800080280AD106F00F000F
:100BA000C0EBC00105F13C0000EB81040120607046
:100BB00009E006F00F00C0EBC00105F5FE7000EB88
:100BC00081040020607006F00F002070C4F80880D7
:100BD000E770607808B12078E080022F01D1002012
:100BE000207100BF95F8BC03012802D10220BDE8A6
:100BF000F087012085F8BC0300BF2146286803F078
:100C000081FC00BF002085F8BC0300BF4846EEE72A
:100C10002DE9F04104460E461746984606F00F00AF
:100C2000C0EBC00104F5FE7000EB8105EF60C5F874
:100C300014800020A861687006F00F0028702069F9
:100C4000012800D12F6106F00F0028B9227C294627
:100C5000206803F0F9FE04E0227C2946206804F0B5
:100C6000ABF80020BDE8F08170B504460D4605F0F4
:100C70000F006168884201D9012070BD05F0800035
:100C800080280AD105F00F00C0EBC00104F13C0040
:100C900000EB81060120707007E0C5EBC50104F58B
:100CA000FE7000EB8106002070700120B07005F02E
:100CB0000F00307000BF94F8BC03012801D102205E
:100CC000DBE7012084F8BC0300BF3146206804F054
:100CD00026F805F00F0028B9217C04F57172206810
:100CE00003F09EFF00BF002084F8BC0300BF00BFDC
:100CF000C3E72DE9F04104460E461746984606F034
:100D00000F00C0EBC00104F13C0000EB8105EF6077
:100D1000C5F814800020A8610120687006F00F005B
:100D200028702069012800D12F6106F00F0028B932
:100D3000227C2946206803F087FE04E0227C2946B5
:100D4000206804F039F80020BDE8F0812DE9FE4F5D
:100D5000044620680290029D206804F018FA0028DA
:100D60007DD1206804F052FA08B9BDE8FE8F2068F2
:100D700004F04CFA00F00200022805D12068406916
:100D800000F0020021684861206804F03FFA00F09A
:100D90001000102846D12068806920F010002168DA
:100DA00088610298D0F8209009F00F00C0EBC001D4
:100DB00004F5FE7000EB810BC9F3434002281AD101
:100DC00047F6F07009EA000030B3C9F30A12DBF805
:100DD0000C10029804F01FFAC9F30A11DBF80C009A
:100DE0000844CBF80C00C9F30A11DBF818000844DA
:100DF000CBF8180010E0C9F3434006280CD10822B4
:100E000004F57171029804F006FAC9F30A11DBF8CF
:100E100018000844CBF818002068806940F01000E2
:100E200021688861206804F0F1F900F40020B0F531
:100E3000002F52D10026206804F0B8F9824649E01C
:100E40000AF00100E8B3F1B2206804F0D2F980465C
:100E500008F0010058B1012105F5306000E021E201
:100E600000EB461081603146204601F03FFD08F05E
:100E70000800082809D1082105F5306000EB46106C
:100E800081603146204601F0FFFC08F01000102878
:100E900005D1102105F5306000EB4610816008F0A7
:100EA0002000202805D1202105F5306000EB4610F8
:100EB000816008F40050B0F5005F08D14FF4005194
:100EC00000E004E005F5306000EB46108160761C20
:100ED0004FEA5A0ABAF1000FB2D1206804F096F92D
:100EE00000F48020B0F5802F7ED1206804F054F902
:100EF0008246002683E00AF0010000287CD0F1B28F
:100F0000206804F05DF9804608F00100F0B306F0B7
:100F10000F0101208840019040F6340041590198AA
:100F200021EA000040F634014851012105F5106026
:100F300000EB461081602069012824D1C6EBC60170
:100F400004F13C0000EB8100C6EBC602C16804F16D
:100F50003C0000EB820080680144C6EBC60204F14D
:100F60003C0000EB8200C1606EB9C6EBC60104F123
:100F70003C0000EB8100406928B904F57172012141
:100F8000206803F04DFEF1B2204600E001E0FFF7DB
:100F90005FFD08F00800082805D1082105F510605C
:100FA00000EB4610816008F01000102805D11021D8
:100FB00005F5106000EB4610816008F04000402805
:100FC00005D1402105F5106000EB4610816008F066
:100FD0000200022805D1022105F5106000EB461041
:100FE000816008F0800001E00DE005E0802803D179
:100FF0003146204601F038FD761C4FEA5A0ABAF114
:10100000000F7FF478AF206804F000F900F0004092
:10101000B0F1004F1CD140F60400405920F001010E
:1010200040F60400415194F8F403012807D1002050
:1010300084F8F40300212046FFF7D6FC02E02046A6
:1010400000F05EFA2068406900F0004021684861C5
:10105000206804F0DBF800F40060B0F5006F0ED1FA
:1010600040F60800405900F0010010B1204600F0A1
:101070009FFA2068406900F4006021684861206898
:1010800004F0C4F800F48050B0F5805F7DD140F6E4
:101090000400405920F0010140F6040041511021A4
:1010A000206804F049F800273EE04FF67F3105F54F
:1010B000106000EB4710816005F5106000EB4710F1
:1010C000006820F4001105F5106000EB4710016086
:1010D00005F5106000EB4710006840F0006105F571
:1010E000106000EB471001604FF67F3105F530606E
:1010F00000EB4710816005F5306000EB4710006899
:1011000020F4001105F5306000EB4710016005F593
:10111000306000EB4710006840F0006105F530607A
:1011200000EB471001607F1C6068B842BDD840F6F4
:101130001C00405940F0011140F61C004151206B49
:1011400070B1D5F8840840F00B01C5F8841840F65A
:101150004400405940F00B0140F6440041510FE07B
:1011600040F61400405942F22B01084340F61401A6
:101170004851081F405940F00B014FF401604151A4
:10118000D5F8000820F4FE6000E00DE0C5F8000886
:10119000217C04F57172206803F042FD20684069EB
:1011A00000F4805021684861206804F02FF800F4B2
:1011B0000050B0F5005F17D1206803F00BFA2068EB
:1011C00003F0D2FFE06000F0A9FB0090227B2068D2
:1011D000009904F06BF8204600F080F9206840691F
:1011E00000F4005021684861206804F00FF800F016
:1011F0000800082808D1204600F089F920684069D5
:1012000000F0080021684861206803F0FFFF00F447
:101210008010B0F5801F0AD100263146204600F02C
:1012200043F82068406900F4801021684861206814
:1012300003F0ECFF00F40010B0F5001F0AD1002607
:101240003146204600F039F82068406900F400106B
:1012500021684861206803F0D9FF00F08040B0F1B8
:10126000804F08D12046FFF7ECFB2068406900F072
:10127000804021684861206803F0C8FF00F0040046
:1012800004280FD12068D0F8049009F00400042845
:1012900002D12046FFF7FCFB2068406840EA0900C5
:1012A0002168486000BF60E570B504460D462946D8
:1012B000D4F8040402F06AFD70BD70B504460D4612
:1012C0002946D4F8040402F064FD70BD70B58AB0FC
:1012D000044614B901200AB070BD266894F8BD0315
:1012E00028B9002084F8BC03204600F0A3F80320AE
:1012F00084F8BD03F06B00F4807008B9002121610F
:10130000206803F099FB282204F110016846FEF7DB
:1013100090FF94E80F0003F071F920B1022084F8E7
:10132000BD030120D7E70021206803F085FF0025D9
:1013300031E00121C5EBC50204F13C0000EB820065
:101340004170C5EBC50104F13C0000F82150C5EB2C
:10135000C50100EB8100C5800021C5EBC50204F189
:101360003C0000EB8200C170C5EBC50204F13C00FB
:1013700000EB82008160C5EBC50204F13C0000EB8C
:101380008200C160C5EBC50204F13C0000EB8200A5
:101390004161681CC5B26068A842CAD800252AE02D
:1013A0000021C5EBC50204F5FE7000EB8200417020
:1013B000C5EBC50104F5FE7000F821500021C5EB16
:1013C000C50200EB8200C170C5EBC50204F5FE70DA
:1013D00000EB82008160C5EBC50204F5FE7000EBF6
:1013E0008200C160C5EBC50204F5FE7000EB82000F
:1013F0004161681CC5B26068A842D1D8282204F1B6
:1014000010016846FEF715FF94E80F0003F024FA78
:1014100020B1022084F8BD0301205CE7002084F89D
:101420003800012084F8BD03206803F005FA00208D
:1014300051E7000010B586B00446142101A8FEF75C
:1014400011FF2068B0F1A04F42D100BF00200090F2
:101450002048006840F001001E4908600846006806
:1014600000F00100009000BF00BF4FF4C050019099
:101470000220029000200390032004900A2005908F
:1014800001A91548FEF7B8FF00BF1248001D00680B
:1014900040F080000F49091D086000BF0020009047
:1014A0000C481430006840F480400A491431086048
:1014B0000846006800F48040009000BF00BF00BFF5
:1014C000002211464320FFF73DFA4320FFF72AFA96
:1014D00006B010BD303802400000024070B504462E
:1014E0000125E068022801D0FEF743FF2946D4F821
:1014F000040402F0CAFCD4F8040402F07DFC70BDC0
:1015000010B50446D4F8040402F0A3FC10BD10B5D5
:101510000446D4F8040402F0A7FC10BD70B50446DC
:101520000D4600BF94F8BC03012801D1022070BD14
:10153000012084F8BC0300BF84F838502946206895
:1015400003F095FE00BF002084F8BC0300BF00BF7D
:10155000EDE710B5044604F57171D4F8040402F007
:10156000ABFC10BD70B50446256800BF94F8BC0301
:10157000012801D1022070BD012084F8BC0300BF06
:10158000A06A012806D1A069012803D0A86B40F405
:101590008030A863206803F03FF9206803F0AEFDB7
:1015A00000BF002084F8BC0300BF00BFE3E70000D9
:1015B00010B50446D4F8040402F0DBFC2068D0F82F
:1015C000000E40F001002168C1F8000E206A28B129
:1015D0000348006840F006000149086010BD0000A3
:1015E00010ED00E0F8B5044600250026207800F054
:1015F000010020B9207800F0040004282FD1002039
:101600005F498866FEF7E8FF054606E0FEF7E4FF5F
:10161000401B022801D90320F8BD5A480068C0F3D6
:10162000C0600028F2D160688101207A41EA007030
:10163000544984310860012051498866FEF7CCFF87
:10164000054606E0FEF7C8FF401B022801D903202B
:10165000E2E74C480068C0F3C0600028F2D0207870
:1016600000F0020002287DD100BF00200090454814
:101670004030006840F080504249403108600846E0
:10168000006800F08050009000BF00BF3E48006836
:1016900040F480703C490860FEF79EFF054606E076
:1016A000FEF79AFF401B022801D90320B4E7364811
:1016B000006800F480700028F2D032487030006872
:1016C00000F440764EB3A08900F44070B04224D0BC
:1016D0002C487030006820F4407601202B490860C7
:1016E00000200860274870300660006800F00100A4
:1016F00098B1FEF771FF054608E0FEF76DFF401B4D
:1017000041F28831884201D9032085E71D487030B5
:101710000068C0F340000028EFD000BFA08900F4AB
:101720004070B0F5407F0CD116480830006820F4B6
:10173000F810174AE168114008431249083108605F
:1017400007E010480830006820F4F8100D4908310F
:1017500008600C4870300068A189C1F30B01084390
:10176000084900E002E07031086000BF207800F016
:101770000800082802D1207C0649086000204BE7B9
:10178000000047420038024000700040400E4742CF
:10179000FFFCFF0FE011474270B504460D460CB93F
:1017A000012070BD5848006800F00F00A84209D21F
:1017B00055490D700846006800F00F00A84201D09E
:1017C0000120EEE7207800F0020002281DD12078E9
:1017D00000F00400042805D14C48006840F4E050B3
:1017E0004A490860207800F00800082805D14748D9
:1017F000006840F46040454908604448006820F0B3
:10180000F000A168084341490860207800F0010019
:10181000A8B36068012807D13C4808380068C0F3C5
:101820004040B8B90120BCE76068022802D0606877
:10183000032807D1354808380068C0F3406048B92C
:101840000120AEE7314808380068C0F3400008B90D
:101850000120A6E72D48006820F0030061680843D6
:101860002A490860FEF7B8FE064609E0FEF7B4FE16
:10187000801B41F28831884202D9032091E707E0BA
:101880002248006800F00C006168B0EB810FEDD1D8
:101890001D48006800F00F00A84209D91A490D70D0
:1018A0000846006800F00F00A84201D0012078E748
:1018B000207800F00400042807D11448006820F4C0
:1018C000E050E168084311490860207800F0080002
:1018D000082808D10D48006820F46040216940EADA
:1018E000C1000A49086000F03FF808490968C1F3DF
:1018F0000311074A515CC840064908600648006861
:10190000FEF7C6FF00204CE7003C024008380240CA
:101910006FE30008AC060020A40600200148006820
:1019200070470000AC06002000B5FFF7F7FF044940
:101930000968C1F38221034A515CC84000BD000020
:10194000083802407FE3000800B5FFF7E7FF0449CD
:101950000968C1F34231034A515CC84000BD000030
:10196000083802407FE300082DE9F04700240025F5
:101970000026A1462548006800F00C0020B104288C
:1019800005D008283AD105E0DFF8849039E0DFF887
:10199000849036E01D48001F006800F03F041B489B
:1019A000001F006800F4800078B11A481749091F29
:1019B0000968C1F38811A0FB01700146224600238B
:1019C0003846FEF705FC05460EE011480F49091F91
:1019D0000968C1F38811A0FB01700146224600236B
:1019E0003846FEF7F5FB05460848001F0068C0F3BF
:1019F0000140401C4600B5FBF6F902E0DFF810900C
:101A000000BF00BF4846BDE8F0870000083802402C
:101A10000024F400001BB700F8B504460CB90120FF
:101A2000F8BD207800F00100002874D0F948006863
:101A300000F00C0004280DD0F648006800F00C00FF
:101A4000082813D1F348001F006800F48000B0F5A7
:101A5000800F0BD1EF4808380068C0F340400028E1
:101A600059D06068002856D10120D9E700BF6068CE
:101A7000B0F5803F08D1E7480838006840F480306E
:101A8000E449083908601EE06068B0F5A02F0DD168
:101A9000E0480838006840F48020DE4908390860D2
:101AA0000846006840F4803008600CE0D9480838E7
:101AB000006820F48030D74908390860084600687B
:101AC00020F48020086000BF606890B1FEF784FDBC
:101AD000054606E0FEF780FD401B642801D903207F
:101AE0009EE7CC4808380068C0F340400028F1D099
:101AF00011E0FEF771FD054606E0FEF76DFD401BA7
:101B0000642801D903208BE7C24808380068C0F375
:101B100040400028F1D1207800F0020002285FD177
:101B2000BC48006800F00C0058B1BA48006800F0EA
:101B30000C0008281CD1B748001F006800F4800082
:101B4000B0B9B44808380068C0F3400020B1E0687C
:101B5000012801D0012063E7AE480838006820F072
:101B6000F800216940EAC100AA490839086037E055
:101B7000E06800B30120A8490860FEF72DFD054686
:101B800006E0FEF729FD401B022801D9032047E7A4
:101B9000A04808380068C0F340000028F1D09D48F4
:101BA0000838006820F0F800216940EAC10099492E
:101BB0000839086014E0002097490860FEF70CFD22
:101BC000054606E0FEF708FD401B022801D9032068
:101BD00026E7904808380068C0F340000028F1D19B
:101BE000207800F0080008282CD16069A8B10120F5
:101BF0008A490860FEF7F0FC054606E0FEF7ECFCBB
:101C0000401B022801D903200AE782486C30006893
:101C1000C0F340000028F1D014E000207F490860A4
:101C2000FEF7DAFC054606E0FEF7D6FC401B02286C
:101C300001D90320F4E677486C300068C0F3400017
:101C40000028F1D1207800F00400042870D100278A
:101C500070483830006800F0805090B900BF002014
:101C600000906C483830006840F080506949383145
:101C700008600846006800F08050009000BF00BF78
:101C800001276748006800F48070B0B964480068B4
:101C900040F4807062490860FEF79EFC054606E04D
:101CA000FEF79AFC401B022801D90320B8E65C48E5
:101CB000006800F480700028F2D000BFA0680128FE
:101CC00008D154486830006840F00100514968313B
:101CD00008601DE0A06805280DD14E4868300068F6
:101CE00040F004004B49683108600846006840F045
:101CF000010008600CE047486830006820F00100EF
:101D00004449683108600846006820F00400086013
:101D100000BFA068A8B1FEF75FFC054609E0FEF72A
:101D20005BFC401B41F28831884202D9032077E6F0
:101D300026E0384868300068C0F340000028EED044
:101D400013E0FEF749FC054608E0FEF745FC401BA2
:101D500041F28831884201D9032061E62D4868307C
:101D60000068C0F340000028EFD1012F07D12948B7
:101D70003830006820F0805026493831086000BFB4
:101D8000A069002845D02348006800F00C0008280E
:101D90005DD0A069022845D100201F490866FEF7E2
:101DA0001BFC054606E0FEF717FC401B022801D984
:101DB000032035E6174808380068C0F34060002863
:101DC000F1D1D4E907010843616A40EA8111012297
:101DD000A06AC2EB500041EA00412C20005D41EABC
:101DE00000600C49091F086001200B490866FEF7D6
:101DF000F3FB054606E0FEF7EFFB401B022801D986
:101E000003200DE6034808380068C0F3406000284E
:101E1000F1D03FE00838024000004742800E4742C0
:101E20000070004000201C490866FEF7D5FB0546FF
:101E300006E0FEF7D1FB401B022801D90320EFE5A5
:101E400016480068C0F340600028F2D122E0A06983
:101E5000012800D1E4E51148001D066806F4800160
:101E6000E069814214D106F03F01206A81420FD11E
:101E700047F6C0703040616A884209D106F44031AB
:101E8000A06A814204D106F07061E06A814201D00B
:101E90000120C5E50020C3E50000474200380240AC
:101EA00010B504460CB9012010BD607F20B9002098
:101EB0002077204600F060F80220607700BFCA203B
:101EC0002168486253202168486200BF204600F024
:101ED00027FE40B100BFFF202168486200BF0420F8
:101EE00060770120E0E72068806822490840216887
:101EF00088602169606808436169084321688968CE
:101F00000843216888602168E068086120680169E9
:101F1000208941EA0040216808612068C06820F0FB
:101F200080002168C8602068806800F0200060B9E7
:101F3000204600F02DF840B100BFFF202168486224
:101F400000BF042060770120AEE72068006C20F419
:101F50008020216808642068006CA169084321681A
:101F6000086400BFFF202168486200BF012060773D
:101F7000002099E7BFFF8FFF034A0168914202D119
:101F80000121024A11607047002800403C0E474280
:101F900070B5044600252068C06820F0A0002168C4
:101FA000C860FEF719FB054607E0FEF715FB401B6E
:101FB000B0F57A7F01D9032070BD2068C06800F0B9
:101FC00020000028F1D00020F6E710B504460CB937
:101FD000012010BD606A00B900BF0021A16294F821
:101FE000510028B9002084F85000204600F034F851
:101FF000022084F851002068006820F04000216829
:102000000860D4E901010843E168084321690843F5
:1020100061690843218B01F400710843E1690843B9
:10202000216A0843A16A0843216808600421A06965
:1020300001EA1040616A0843216848602068C0696D
:1020400020F400602168C86100206065012084F8E8
:1020500051000020BDE7000010B586B004461421F1
:1020600001A8FEF7FFF837492068884230D100BF49
:10207000002000903448006840F4805032490860E5
:102080000846006800F48050009000BF00BF00BF09
:10209000002000902C481438006840F002002A49C3
:1020A000143908600846006800F00200009000BF84
:1020B00000BF3820019002200290002003900320EE
:1020C00004900520059001A92048FEF795F936E017
:1020D0001F492068884232D100BF002000901A4872
:1020E000001F006840F400401749091F08600846B7
:1020F000006800F40040009000BF00BF00BF002057
:10210000009011481438006840F004000E4914395A
:1021100008600846006800F00400009000BF00BF9F
:102120004FF4E05001900220029000200390032021
:1021300004900620059001A90648FEF75DF906B057
:1021400010BD00000030014044380240000402404D
:10215000003C00400008024070B504462546681E59
:10216000B0F1807F01D301200FE0681E4FF0E02125
:1021700048610F214FF0FF3003F044F900204FF089
:10218000E021886107200861002070BD70470000D1
:102190002DE9F0470446206805682068C668206875
:1021A00047694FF00008C14605F00F08B8F1000F6D
:1021B0000AD105F0200038B106F0200020B12046F9
:1021C00000F080FDBDE8F087B8F1000F72D007F095
:1021D000010018B906F4907000286BD005F00100DA
:1021E00030B106F4807018B1E06B40F00100E0639C
:1021F00005F0040030B107F0010018B1E06B40F0C9
:102200000200E06305F0020030B107F0010018B1F0
:10221000E06B40F00400E06305F0080048B106F010
:10222000200010B907F0010018B1E06B40F0080081
:10223000E063E06B70B305F0200028B106F02000E9
:1022400010B1204600F03EFD20684069C0F38019BF
:10225000E06B00F0080010B9B9F1000F23D0204660
:1022600000F010FD2068406900F04000402816D1C1
:102270002068406920F0400021684861606B50B1DF
:102280001748616B0865606BFEF78EF810B1606BE4
:10229000016D88470CE02046FFF778FF08E02046F4
:1022A000FFF774FF04E02046FFF770FF0020E063B3
:1022B00088E7FFE705F0800030B106F0800018B134
:1022C000204600F047FF7DE705F0400030B106F002
:1022D000400018B1204600F0E5FC73E700BF71E74D
:1022E000712C000810B504460CB9012010BDA0697E
:1022F00000B100E000BF94F8390028B9002084F84C
:102300003800204600F028F8242084F8390020689E
:10231000C06820F400502168C860204600F026FD07
:102320002068006920F490402168086120684069B5
:1023300020F02A00216848612068C06840F40050FD
:102340002168C8600020E063202084F8390084F808
:102350003A000020CAE7000010B586B004461421F8
:1023600001A8FDF77FFF3A492068884239D100BFB4
:10237000002000903748006840F0100035490860A0
:102380000846006800F01000009000BF00BF00BFCA
:10239000002000902F481438006840F001002D49BB
:1023A000143908600846006800F00100009000BF82
:1023B00000BF4FF4C0600190022002900020039003
:1023C000032004900720059001A92348FEF714F884
:1023D000002211462520FEF7B5FA2520FEF7A2FAC5
:1023E00033E01E49206888422FD100BF00200090B2
:1023F0001848006840F02000164908600846006848
:1024000000F02000009000BF00BF00BF002000903F
:1024100010481438006840F004000E491439086070
:102420000846006800F00400009000BF00BFC02014
:1024300001900220029000200390032004900820C5
:10244000059001A90648FDF7D7FF06B010BD0000B2
:1024500000100140443802400000024000140140D6
:102460000008024070472DE9F84304460D46164621
:102470001F464FF0000994F8390020285DD105B1BE
:1024800016B90120BDE8F88300BF94F83800012890
:1024900001D10220F6E7012084F8380000BF0020B7
:1024A000E063212084F83900FEF796F88146A6847F
:1024B000E68400BF002084F8380000BF2BE0E08CE9
:1024C000401EE084A068B0F5805F16D14B46002224
:1024D00080212046009700F071FE08B10320D1E76B
:1024E000A846B8F80000C0F30800216848602069D9
:1024F00008B9AD1C0FE06D1C0DE04B460022802199
:102500002046009700F05AFE08B10320BAE715F8FC
:10251000010B21684860E08C0028D0D14B46002296
:1025200040212046009700F049FE08B10320A9E7AA
:10253000202084F839000020A4E70220A2E7704799
:1025400000BFFEE730B50B46002100BF16E00A24AD
:10255000B4EB107F05D9302404EB107403F811405C
:1025600005E0412404EB10740A3C03F8114000011B
:1025700000254C00641C1D554C1CE1B29142E6DB69
:1025800030BD000000B587B0142102A8FDF76AFE37
:1025900000BF002001905348006840F010005149EE
:1025A00008600846006800F01000019000BF00BFFE
:1025B00000BF002001900846006840F00400086059
:1025C0000846006800F00400019000BF00BF00BF93
:1025D000002001900846006840F08000086008462E
:1025E000006800F08000019000BF00BF00BF002025
:1025F00001900846006840F0010008600846006845
:1026000000F00100019000BF00BF00BF002001905A
:102610000846006840F0080008600846006800F0BE
:102620000800019000BF00BF00BF002001900846D5
:10263000006840F0020008600846006800F00200F0
:10264000019000BF00BF002224212748FDF7BEFFF4
:10265000002202212548FDF7B9FF00224FF48071C6
:102660002348FDF7B3FF2420029001224FF4784164
:102670001D48FDF7ABFF012003900020049005905A
:1026800002A91948FDF7B8FE182002900020039017
:10269000049002A91448FDF7AFFE02200290012029
:1026A000039000200490059002A91048FDF7A4FEB5
:1026B0004FF4807002900120039000200490059058
:1026C00002A90B48FDF798FE4FF4784002900120D4
:1026D000039000200490059002A90348FDF78CFEAA
:1026E00007B000BD3038024000100240000C02402C
:1026F0000004024010B50B480B4908600B484860C5
:10270000002109488160C1604FF4804101610021CE
:1027100041618161C1610162FDF764FF08B1FDF7AC
:1027200028FE10BD00540040A0070020801A0600BB
:1027300010B50A480A490860002048607F2108480F
:102740008160FF21C1600021016141618161FFF76A
:10275000A7FB08B1FDF70DFE10BD000000280040EA
:10276000F407002010B50E480E4908604FF482703F
:10277000486000210B488160C160016141614FF4F4
:10278000007181610821C1610021016241628162A1
:102790000A21C162FFF719FC08B1FDF7EAFD10BD7F
:1027A000003001401408002010B50E480E490860A2
:1027B0004FF48270486000210B488160C160016164
:1027C00041614FF4007181610021C1610162416288
:1027D00081620A21C162FFF7F8FB08B1FDF7C9FD6C
:1027E00010BD0000003C00406C08002010B50B48F4
:1027F0000B4908604FF4E1304860002108488160CF
:10280000C16001610C21416100218161C161FFF75B
:1028100069FD08B1FDF7ADFD10BD000000100140DD
:10282000C408002010B500220D490E4801F047F9F8
:1028300008B1FDF79EFD0C490A4801F0D7FB08B12D
:10284000FDF797FD0949074800F0AEFD08B1FDF717
:1028500090FD044801F0A8FC08B1FDF78AFD10BD09
:102860001C06002044090020B40600209006002029
:1028700000BFFEE77047000010B50248FEF766FA99
:1028800010BD0000140C00202DE9F04704460D4651
:1028900026683746D6F8408007F5306000EB4510D3
:1028A000D0F80890104880450BD909F40040B0F5E5
:1028B000004F06D14FF4004107F5306000EB4510A2
:1028C00081602046FEF745FE0748804508D920690B
:1028D000012805D104F571720121206802F0A0F9E8
:1028E0000020BDE8F08700000A30544F2DE9F04782
:1028F00005460C46D5F800804646D8F8409006F5C7
:10290000306000EB441087682869012873D107F014
:10291000080008280FD1524881450BD907F4004020
:10292000B0F5004F06D14FF4004106F5306000EBE2
:102930004410816091E007F02000202806D120217A
:1029400006F5306000EB4410816086E007F0280057
:1029500000280ED1424881450CD907F40040B0F55B
:10296000004F07D14FF4004106F5306000EB4410F2
:10297000816072E0C4EBC40105F5FE7000EB8100DC
:10298000816806F5306000EB44100069C0F3120066
:10299000091AC4EBC40205F5FE7000EB82008161E8
:1029A000C4EBC40105F5FE7000EB8100C4EBC4026A
:1029B000C16805F5FE7000EB820080680144C4EB3D
:1029C000C40205F5FE7000EB8200C1606CB9C4EB77
:1029D000C40105F5FE7000EB8100406928B905F5DA
:1029E00071720121286802F01BF9E1B22846FEF756
:1029F0003FF832E0FFE71B4881451BD107F4004058
:102A0000B0F5004F07D14FF4004106F5306000EB00
:102A10004410816021E007F02000202805D120210A
:102A200006F5306000EB44108160E1B22846FEF705
:102A30001FF812E06CB9C4EBC40105F5FE7000EBA1
:102A40008100406928B905F571720021286802F0FB
:102A5000E7F8E1B22846FEF70BF80020BDE8F08762
:102A60000A30544F0A31544F2DE9F84F07460E46AD
:102A7000D7F80090C846C6EBC60107F13C0000EB52
:102A80008104D4E90510884202D90120BDE8F88FFD
:102A9000D4E90501451AA068A84200D2A568E81C3F
:102AA0004FEA900A17E0D4E90501451AA068A84248
:102AB00000D2A568E81C4FEA900A387CABB2F2B2AB
:102AC00000904846E16802F065FCE0682844E06058
:102AD000A0692844A06108F5106000EB46108069E9
:102AE00080B2504506D3D4E90510884202D260690D
:102AF0000028D8D1D4E9050188420ED806F00F018C
:102B0000012000FA01FB40F6340050F8080020EAEA
:102B10000B0040F6340141F808000020B6E770478A
:102B200070B5044600252068C06800F04000A0B9D8
:102B3000681E2168C860FDF74FFD054607E0FDF7F8
:102B40004BFD401BB0F57A7F01D9032070BD206892
:102B5000C06800F040000028F1D00020F6E7704780
:102B600030B501460A461378521C147843EA042013
:102B700030BD10B5FDF762FE10BD000000B597B086
:102B800030210BA8FDF76EFB142106A8FDF76AFBA8
:102B9000142101A8FDF766FB00BF002000902B4820
:102BA000006840F08050294908600846006800F03D
:102BB0008050009000BF00BF00BF0020009024485C
:102BC000006820F4404040F4004021490860084675
:102BD000006800F44040009000BF00BF09200B9047
:102BE0004FF480300C90012010900220119041058C
:102BF000129106211391A821149104211591072106
:102C000016910BA8FEF708FF08B1FDF7B2FB0F20E5
:102C1000069002200790002008904FF48050099001
:102C200000200A90022106A8FEF7B6FD08B1FDF7C4
:102C3000A0FB022001900002049001A8FEF7D2FC44
:102C400008B1FDF796FB17B000BD00004038024008
:102C5000007000400548006840F4700003490860B7
:102C60004FF00060014980390860704788ED00E04E
:102C700070B50546AC6B0020E085E0842046FFF788
:102C800085FA70BD0168C96821F490710268D1604D
:102C90000168496921F0010102685161202180F831
:102CA0003A10704710B504462068C06820F0400014
:102CB0002168C860202084F839002046FFF73FFCD7
:102CC000002010BD70B5044694F83A0022284AD17D
:102CD000A068B0F5805F13D1A56A206940B920686B
:102CE0004068C0F308002880A06A801CA06219E038
:102CF00020684068C0B22880A06A401CA06211E031
:102D0000206938B920684068C1B2A26A501CA0622C
:102D1000117007E02068406800F07F01A26A501C33
:102D2000A0621170E08D401E80B2E085C8B92068B5
:102D3000C06820F020002168C8602068C06820F4C6
:102D400080702168C8602068406920F00100216817
:102D50004861202084F83A002046FFF783FB0020DA
:102D600070BD0020FCE70220FAE700002DE9F84FD3
:102D700004462068006920F44050E1680843216857
:102D800008612169A068084361690843E169084353
:102D900000902068C06849F20C618843009908439C
:102DA0002168C8602068406920F44070A169084328
:102DB00021684861E069B0F5004F75D1E3492068AA
:102DC000884203D0E249206888426FD1FEF7BCFDFB
:102DD000814602206168A0FB01510B461920A9FB26
:102DE00000712A463846FDF7F3F96421B0FBF1F093
:102DF0004FEA001A02206168A0FB01510B4619201E
:102E0000A9FB00712A463846FDF7E2F90746022081
:102E10006168A0FB01510B461920A9FB00B12A46AD
:102E20005846FDF7D5F96421B0FBF1F000EBC00185
:102E300001EB0010A7EB8000322101EBC000642100
:102E4000B0FBF1F000F0F8000AEB400A02206168E4
:102E5000A0FB01510B461920A9FB00712A463846F8
:102E6000FDF7B6F9074602206168A0FB01510B4649
:102E70001920A9FB00B12A465846FDF7A9F964219B
:102E8000B0FBF1F000EBC00101EB0010A7EB8000FC
:102E9000322101EBC0006421B0FBF1F000F007002B
:102EA0005044216888604FE16EE0FFE7FEF73CFD8B
:102EB000814602206168A0FB01510B461920A9FB45
:102EC00000712A463846FDF783F96421B0FBF1F022
:102ED0004FEA001A02206168A0FB01510B4619203D
:102EE000A9FB00712A463846FDF772F90746022011
:102EF0006168A0FB01510B461920A9FB00B12A46CD
:102F00005846FDF765F96421B0FBF1F000EBC00114
:102F100001EB0010A7EB8000322101EBC00064211F
:102F2000B0FBF1F000F0F8000AEB400A0220616803
:102F3000A0FB01510B461920A9FB00712A46384617
:102F4000FDF746F9074602206168A0FB01500346E1
:102F50001920A9FB00B12A465846FDF739F964212A
:102F6000B0FBF1F000EBC00101EB0010A7EB80001B
:102F7000322101EBC0006421B0FBF1F000F007004A
:102F8000504421688860DFE070492068884203D09F
:102F90006F49206888426BD1FEF7D6FC8146042039
:102FA0006168A0FB01510B461920A9FB00712A465C
:102FB0003846FDF70DF9824604206168A0FB0151F7
:102FC0000B461920A9FB00712A463846FDF700F987
:102FD0006421B0FBF1F000EBC00101EB0010AAEBA3
:102FE0008000322101EB00106421B0FBF1F000F011
:102FF000F00A04206168A0FB015003461920A9FBD8
:1030000000712A463846FDF7E3F86421B0FBF1F081
:103010000AEB001A04206168A0FB01510B4619203D
:10302000A9FB00712A463846FDF7D2F8074604206E
:103030006168A0FB015003461920A9FB00B12A4694
:103040005846FDF7C5F86421B0FBF1F000EBC00174
:1030500001EB0010A7EB8000322101EB001064218E
:10306000B0FBF1F000F00F005044216888606BE085
:10307000FEF75AFC814604206168A0FB015003461C
:103080001920A9FB00712A463846FDF7A1F88246AF
:1030900004206168A0FB015003461920A9FB0071C0
:1030A0002A463846FDF794F86421B0FBF1F000EBB6
:1030B000C00101EB0010AAEB8000322101EB0010EF
:1030C0006421B0FBF1F000F0F00A04206168A0FB7D
:1030D000015003461920A9FB00712A463846FDF726
:1030E00077F86421B0FBF1F00AEB001A0420616864
:1030F000A0FB017003461920A9FB005001463A4687
:103100002846FDF765F8074604206168A0FB0150DA
:1031100003461920A9FB00B12A465846FDF758F886
:103120006421B0FBF1F000EBC00101EB0010A7EB54
:103130008000322101EB00106421B0FBF1F000F0BF
:103140000F00504421688860BDE8F88F00100140EE
:1031500000140140014691F8390021282CD18868DB
:10316000B0F5805F0FD10A6A1088C0F308000B68C1
:103170005860086918B9086A801C086209E0086A82
:10318000401C086205E00B6A581C086218780B683E
:103190005860C88C401E80B2C88458B90868C0689E
:1031A00020F080000B68D8600868C06840F04000DC
:1031B0000B68D860002070470220FCE72DE9F04141
:1031C00004460D4617469846069E21E0701CF8B14D
:1031D0002EB1FDF701FAA0EB0800B04218D9206823
:1031E000C06820F4D0702168C8602068406920F071
:1031F000010021684861202084F8390084F83A00F1
:1032000000BF002084F8380000BF0320BDE8F08133
:10321000206800682840A84201D1012000E0002079
:10322000B842D3D00020F1E710B50248FEF7B0FF56
:1032300010BD0000C408002002460020D2F8BC32B5
:1032400083F85000704770B504460E46D4F8BC02AF
:1032500008B9032070BDD4F8BC5269782878D4F836
:10326000C032DA6890470020F4E770B504460D4696
:103270008121204600F058FC00212187618701212F
:10328000204600F051FC0021A4F87811A4F87A112E
:10329000D4F8BC0250B1D4F8C01288688047D4F882
:1032A000BC0204F027F90020C4F8BC02002070BD65
:1032B00070B50546D5F8BC42E06C012807D16178AD
:1032C0002078D5F8C032DA6890470020E06400200A
:1032D00070BD000001460A200880014870470000C8
:1032E0007C07002001462920088001487047000023
:1032F000EC060020014629200880014870470000A4
:103300001807002001462920088001487047000066
:103310004407002070B504460E46542005F02EF8F0
:10332000054625B90020C4F8BC02022070BDC4F8CF
:10333000BC52207C20B905216187A4F87A1103E0F2
:1033400005216187A4F87A110223032281212046F6
:1033500000F022FD0121218702230322204600F0F4
:103360001BFD0121A4F87811002085F85000D4F845
:10337000C0124868804740232A460121204600F0B9
:1033800023FD0020D2E770B50446D4F8BC0208B98A
:10339000032070BDD4F8BC5240232A4601212046A8
:1033A00000F012FD0020F4E7024609B9032070473F
:1033B000C2F8C0120020FAE72DE9F84306460C4691
:1033C000D6F8BC520027B8460020009081462078ED
:1033D00000F0600090B3202874D16078801E0A2825
:1033E00023D2DFE800F0130822222222221A0F053E
:1033F000A078286420E0012205F14001304600F069
:103400000BF919E060880012686415E0012205F1EB
:103410004401304600F000F90EE00120E864E28843
:103420002946304600F0D7F806E02146304600F045
:10343000C6F84FF0030900BF00BF75E0FFE76078F2
:1034400006281AD003DC38B101285DD15BE00A28D8
:1034500039D00B2858D148E096F89C02032805D1B2
:1034600002226946304600F0D7F805E02146304692
:1034700000F0A5F84FF003094DE060882221B1EB80
:10348000202F0BD1E088212801D9212000E0E088FD
:103490000746D6F8C002D0F800800DE060882121F0
:1034A000B1EB202F08D1DFF88880E088092801D906
:1034B000092000E0E08807463A464146304600F0E1
:1034C000ABF828E029E096F89C02032806D10122F7
:1034D00005F14801304600F09FF805E021463046EE
:1034E00000F06DF84FF0030915E096F89C020328F0
:1034F00002D1A078A86405E02146304600F05FF8CC
:103500004FF0030907E006E02146304600F057F887
:103510004FF0030900BF00BF06E02146304600F02F
:103520004EF84FF0030900BF00BF4846BDE8F883DE
:103530007007002070B504460D46D4F8B80228B1D3
:10354000D4F8B8022946426820469047002070BD52
:1035500070B504460D4694F89C02012804D0022858
:1035600003D003280CD101E000BF00BF6888012808
:1035700005D10020C4F8A402204600F05EF804E063
:103580002946204600F01BF800BF00BF70BD70B593
:1035900006460C4615462B4622460021304600F0D2
:1035A00013FC002070BD70B506460C4615462B4630
:1035B00022460021304600F0E6FC002070BD70B5C8
:1035C00004460D468021204600F0B1FC0021204633
:1035D00000F0ADFC70BD70B504460E4615460320E4
:1035E000C4F894024FF4AC700551001D05512B46F0
:1035F00032460021204600F0E7FB002070BD10B5E8
:1036000004460520C4F8940200231A4619462046B1
:1036100000F0DAFB002010BD70B504460E461546DA
:103620000220C4F89402A561E5612B4632460021D0
:10363000204600F0A8FC002070BD10B50446042010
:10364000C4F8940200231A461946204600F09BFC59
:10365000002010BD70B505460C462DB9224606491E
:1036600006A000F0ECF904E02246034903A000F0B4
:10367000E6F9014870BD00001C100020437573740A
:103680006F6D2048494420436F6E666967000000F3
:1036900002461220088001487047000038060020CA
:1036A00070B505460C462DB92246064906A000F025
:1036B000C6F904E02246034903A000F0C0F901481E
:1036C00070BD00001C100020437573746F6D20489E
:1036D000494420496E7465726661636500000000AC
:1036E0000246042008800148704700004C06002074
:1036F00070B505460C462246024903A000F09FF92A
:10370000004870BD1C10002053544D6963726F65F2
:103710006C656374726F6E696373000070B5054603
:103720000C462DB92246064906A000F088F904E0AF
:103730002246034903A000F082F9014870BD000051
:103740001C10002053544D333220437573746F6D39
:103750002048756D616E20696E746572666163657F
:103760000000000070B505460C461A202080FCF7CA
:1037700001FE014870BD00005006002070B50446EF
:103780000D46E888012804D029462046FFF717FF98
:103790001EE094F89C02012804D0022803D00328DC
:1037A00010D109E000BF0020A060012204F108014F
:1037B0002046FFF731FF0AE00122211D2046FFF7D6
:1037C0002BFF04E029462046FFF7F9FE00BF00BFAB
:1037D00070BDF8B504460E46002000900027002575
:1037E00070880012082875D2DFE800F0C7040C20AA
:1037F000C7C7A5B5207CD4F8B4120A6869469047BB
:103800000746C1E0207C40B9D4F8B802816A684616
:10381000884707460220787007E0D4F8B802C16AEA
:1038200068468847074602207870ADE0B0780628E1
:1038300078D2DFE800F00316293C5063D4F8B402D4
:10384000406838B1207CD4F8B4124A686946904781
:10385000074605E031462046FFF7B1FE681CC5B2B9
:1038600067E0D4F8B402806838B1207CD4F8B41290
:103870008A6869469047074605E031462046FFF7CB
:103880009EFE681CC5B254E0D4F8B402C06838B1DA
:10389000207CD4F8B412CA6869469047074605E010
:1038A00031462046FFF78BFE681CC5B241E0D4F8D4
:1038B000B402006938B1207CD4F8B4120A696946B0
:1038C0009047074605E031462046FFF778FE681C22
:1038D000C5B22EE051E0D4F8B402406938B1207C82
:1038E000D4F8B4124A6969469047074605E0314664
:1038F0002046FFF764FE681CC5B21AE0D4F8B40293
:10390000806940B1207CD4F8B4128A696946904736
:10391000074606E006E031462046FFF750FE681CE9
:10392000C5B206E031462046FFF749FE681CC5B225
:1039300000BF00BF28E0207C30B9D4F8B802416B4A
:1039400068468847074605E031462046FFF737FEC0
:10395000681CC5B218E0207C40B9D4F8B802016BED
:103960006846884707460720787005E031462046BC
:10397000FFF725FE681CC5B206E031462046FFF77A
:103980001EFE681CC5B200BF00BF05B1F8BDF088BF
:10399000C0B1BDF8000080B1F088BDF800108842C9
:1039A00002DDBDF8000000E0F0880090BDF80020C6
:1039B00039462046FFF730FE07E031462046FFF744
:1039C000FEFD02E02046FFF738FE00BFDEE70146BD
:1039D00000200A4602E0431CD8B2521C1378002B88
:1039E000F9D1704770B504460D4694F89C02012841
:1039F00004D0022803D003281AD101E000BF00BF81
:103A0000E888022804D029462046FFF7D8FD14E0B4
:103A10000120E060D4F8A40218B1E06840F0020090
:103A2000E060022204F10C012046FFF7F5FD04E0FE
:103A300029462046FFF7C3FD00BF00BF70BD2DE93A
:103A4000F04107460D46904600240FB9BDE8F081CD
:103A50003E463046FFF7BBFF022101EB4000A8F8CD
:103A6000000098F800002855601CC4B203202855B7
:103A7000601CC4B208E030782855761C601CC4B2C3
:103A800000202855601CC4B230780028F3D100BF54
:103A9000DCE70146002031B1012906D0022906D019
:103AA000032908D105E0002007E0032005E00120FC
:103AB00003E0032001E0032000BF00BF70472DE9B1
:103AC000F04104460D46164614B90320BDE8F081C6
:103AD000D4F8B80210B10020C4F8B802D4F8CC026F
:103AE00010B10020C4F8CC020DB1C4F8B4520120CA
:103AF00084F89C022670204600F0F8F80746384605
:103B0000E4E72DE9F04104460D460026002729464A
:103B1000D4F8C402FCF7F8FF06463046FFF7B9FFB9
:103B200007463846BDE8F0812DE9F04104460D46D0
:103B3000002600272946D4F8C402FCF7B0FF064649
:103B40003046FFF7A6FF07463846BDE8F0812DE96D
:103B5000F04104460F469046002F54D104F114055D
:103B6000D4F89402022843D1D5E9020188420FD942
:103B7000D5E90201401AA86041462046AA68FFF72D
:103B800012FD00231A461946204600F01DF92FE0C9
:103B9000D5E90210884217D1E9686868884213D3D2
:103BA0006868D4F8981288420ED200221146204646
:103BB000FFF7F9FC0020C4F8980200231A461946C2
:103BC000204600F001F913E0D4F8B802C06840B113
:103BD00094F89C02032804D1D4F8B802C1682046A6
:103BE00088478021204600F0A2F92046FFF707FD14
:103BF00094F8A00201281BD1204600F00AFA002008
:103C000084F8A00214E0D4F8B802406970B194F8C6
:103C10009C0203280AD1D4F8B802394642692046EA
:103C20009047064626B13046BDE8F0810320FBE709
:103C30000020F9E72DE9F04105460F4690465FBBAD
:103C400005F5AA74D5F8940203283AD1D4E9020103
:103C5000884210D9D4E90201401AA060D4E90201D7
:103C6000884201D2A06800E0E0680246414628464A
:103C7000FFF78DFC25E0D5F8B802006940B195F852
:103C80009C02032804D1D5F8B80201692846884768
:103C90002846FFF7D2FC14E0D5F8B802806970B16D
:103CA00095F89C0203280AD1D5F8B80239468269F2
:103CB00028469047064626B13046BDE8F0810320ED
:103CC000FBE70020F9E701460020704710B50446E5
:103CD000012084F89C02D4F8B80228B12179D4F8E4
:103CE000B802426820469047002010BD10B5044637
:103CF000207800282AD11648C0F80444C4F8C40229
:103D00004FF0A0401249086004204860022110488A
:103D1000C16000210161022181610021C161016254
:103D20004162C1620163FDF7D1FA08B1FCF721FBE2
:103D300080210748FCF759FE402200210448FCF787
:103D400059FE802201210248FCF754FE002010BDDC
:103D5000140C002010B50246D2F8C43201F08000E5
:103D6000802809D101F07F00C0EBC00403F13C00C2
:103D700000EB8400807810BD01F07F00C0EBC00430
:103D800003F5FE7000EB84008078F4E70246002023
:103D900070470246002070472DE9F04704460F4661
:103DA00015461E464FF00008C1462B46324639469E
:103DB000D4F8C402FCF7E6FE80464046FFF769FEF1
:103DC00081464846BDE8F0872DE9F04704460D4698
:103DD00016461F464FF00008C1463B46324629466C
:103DE000D4F8C402FCF714FF80464046FFF751FEAA
:103DF00081464846BDE8F08710B50446012084F8A6
:103E00009C020020C4F894026060C4F8A402D4F8B4
:103E1000BC0228B12179D4F8B80242682046904704
:103E20004023002211462046FFF7B6FF01214FF440
:103E3000B27001534021001F015140230022802114
:103E40002046FFF7A9FF0121A18440212162002023
:103E500010BD014691F89C02042803D191F89D02FF
:103E600081F89C020020704710B5044694F89C022B
:103E7000032808D1D4F8B802C06920B1D4F8B80238
:103E8000C16920468847002010BD024611740020F9
:103E900070472DE9F04104460D46002600272946CB
:103EA000D4F8C402FDF73AFB06463046FFF7F1FDB1
:103EB00007463846BDE8F08170B504460D462946F0
:103EC00004F2AA2000F077F80120C4F894024FF41D
:103ED0002C70005BC4F8980294F8AA0200F01F004E
:103EE00020B1012809D0022815D10DE004F2AA2141
:103EF000204600F05FF9064616E004F2AA212046AB
:103F000000F0C0FA06460FE004F2AA21204600F0B5
:103F1000A4F9064608E094F8AA0200F080012046C1
:103F200000F005F8064600BF00BF304670BD2DE921
:103F3000F04104460D46002600272946D4F8C40265
:103F4000FCF792FE06463046FFF7A3FD07463846CB
:103F5000BDE8F08170B5044600250026D4F8C402FF
:103F6000FDF700FB05462846FFF793FD0646304661
:103F700070BD014691F89C0281F89D02042081F8F1
:103F80009C02002070472DE9F04704460D46164676
:103F90001F464FF00008C1463B4632462946D4F83A
:103FA000C402FCF7A6FE80464046FFF772FD81463C
:103FB0004846BDE8F08770B505460E463446207881
:103FC0002870641C20786870641C2046FEF7C8FDC9
:103FD0006880641C641C2046FEF7C2FDA880641C37
:103FE000641C2046FEF7BCFDE88070BD38B5044671
:103FF0000D46002000900DB9032038BDC4F8B8521A
:10400000D4F8B802816A68468847C4F8CC02002018
:10401000F3E701460020704770B504460D46A888B6
:1040200010BBE88800BB688880281DD2A87800F003
:104030007F0694F89C02032804D129462046FFF706
:10404000BEFA15E084F89E6231462046FFF721FF54
:104050002046FFF7F2FA1EB1022084F89C0207E026
:10406000012084F89C0203E029462046FFF7A7FAC6
:1040700070BD70B504460D460326D4F8B80230B1C1
:10408000D4F8B802294602682046904706463046D2
:1040900070BD000070B504460E460025B0783B495F
:1040A000087008460078012805D931462046FFF7F8
:1040B00086FA032070BD94F89C02022802D00328DF
:1040C00056D11CE031480078A8B1304800786060D3
:1040D0002E4801782046FFF7CCFF054625B1314632
:1040E0002046FFF76CFA09E02046FFF7A6FA032006
:1040F00084F89C0202E02046FFF79FFA43E0234841
:10410000007870B9022084F89C0220480078606032
:104110001E4801782046FFF70DFA2046FFF78DFA7A
:1041200025E01A490978606888421DD02179204627
:10413000FFF700FA154800786060144801782046BF
:10414000FFF797FF05465DB131462046FFF737FA86
:1041500021792046FFF7EEF9022084F89C0206E060
:104160002046FFF76AFA02E02046FFF766FA0AE007
:1041700031462046FFF723FA044801782046FFF72E
:10418000D9F9032500BF00BF284693E7B0060020F9
:1041900070B505460C466088012804D1C5F8A40214
:1041A0002846FFF74AFA70BD10B504462046FFF7CF
:1041B000D1FE10BD70B505460C460026207800F0F3
:1041C000600068B1202802D040283ED100E000BF46
:1041D000D5F8B8022146826828469047064639E05D
:1041E00060780A282AD2DFE800F01A24291F290A59
:1041F0000529150F21462846FFF7EBFA23E0214653
:104200002846FFF709FF1EE021462846FFF742FF38
:10421000064618E021462846FFF7B0FA13E021468B
:104220002846FFF7DFFB0EE021462846FFF7B0FFE8
:1042300009E021462846FFF78BF904E0214628468D
:10424000FFF7BDF900BF00BF04E021462846FFF795
:10425000B6F900BF00BF304670BD2DE9F0410546FC
:104260000E464FF000083479307800F0600068B1F5
:10427000202802D0402870D100E000BFD5F8B80255
:1042800031468268284690478046F7E070780028DB
:1042900064D001282FD003286FD195F89C02022802
:1042A00002D0032820D110E054B1802C08D0214640
:1042B0002846FFF73CFE80212846FFF738FE03E042
:1042C00031462846FFF77BF913E0708840B93CB1CE
:1042D000802C05D0F08818B921462846FFF727FE24
:1042E0002846FFF7AAF904E031462846FFF767F9A8
:1042F00000BF00BFBBE095F89C02022802D0032853
:1043000024D110E054B1802C08D021462846FFF774
:104310000EFE80212846FFF70AFE03E031462846BC
:10432000FFF74DF917E0708878B904F07F0018B1F5
:1043300021462846FFF7E5FB2846FFF77EF9D5F82A
:10434000B802314682682846904704E03146284644
:10435000FFF735F900BF00BF89E08AE095F89C02BD
:10436000022802D0032876D126E03CB1802C05D06B
:1043700031462846FFF723F972E073E004F080002D
:10438000802808D104F07F0000EB800105F11400C3
:1043900000EB810007E004F07F0000EB800105F5F1
:1043A000AA7000EB810007460020386002223946DF
:1043B0002846FFF731F953E004F0800080280ED141
:1043C00004F00F0000EB800105F1140000EB810008
:1043D000008A98B931462846FFF7F1F840E004F02A
:1043E0000F0000EB800105F5AA7000EB8100008A48
:1043F00020B931462846FFF7E2F831E004F08000AA
:10440000802808D104F07F0000EB800105F1140042
:1044100000EB810007E004F07F0000EB800105F570
:10442000AA7000EB810007460CB1802C02D100205D
:10443000386009E021462846FFF78CFC10B10120C6
:10444000386001E000203860022239462846FFF734
:10445000E3F805E0FFE731462846FFF7B0F800BF74
:1044600000BF04E031462846FFF7A9F800BF00BFAF
:1044700004E031462846FFF7A2F800BF00BF4046DF
:10448000BDE8F08170B505460C460026207800F0A6
:10449000600030B1202802D040282AD100E000BFBF
:1044A00000BF95F89C02012804D0022803D00328FD
:1044B00018D101E000BF00BF207901280DD8D5F840
:1044C000B80221468268284690470646E08840B9EF
:1044D0003EB92846FFF7B1F803E021462846FFF72A
:1044E0006EF804E021462846FFF769F800BF00BFD8
:1044F00004E021462846FFF762F800BF00BF3046BF
:1045000070BD000070B504460B46224619785878F5
:1045100001282CD140F61C0080581D7805F00F06AC
:104520000125B540ADB2284340F61C05A85002F560
:10453000106000EB4110006800F40040F0BB1889E7
:10454000C0F30A00DD7840EA854040EA815040F03F
:10455000805040F4004002F5106505EB41152D68D0
:10456000284302F5106505EB411528602DE040F663
:104570001C0080581D7805F00F060125B540144E2B
:1045800006EA0545284340F61C05A85002F53060B0
:1045900000EB4110006800F4004078B91889C0F3BE
:1045A0000A00DD7840EA854040F0805040F4004049
:1045B00002F5306505EB41152D6800E005E0284364
:1045C00002F5306505EB41152860002070BD000044
:1045D0000000FFFF01460A464FF410608058C30AEE
:1045E000DB024FF41060835040F60400805840F422
:1045F000807340F604008350002070470FB470B5FC
:1046000004460A98012817D1A06B20F48030A063DB
:10461000E0681A490840E060E06820F44010E0607B
:104620001198012803D1E06840F48010E060204632
:1046300000F026F8054612E0E06840F04000E06037
:10464000204600F01DF805460E9820B9A06B40F4F6
:104650008030A06303E0A06B20F48030A063089852
:10466000012807D1A06840F00600A060A06840F0D3
:104670002000A060284670BC5DF814FBBFFFBDFFA2
:104680000146002200BF501C02460F4B984201D940
:1046900003207047086900F000400028F3D0002292
:1046A000086940F00100086100BF501C0246064B3B
:1046B000984201D90320ECE7086900F001000028C6
:1046C000F3D100BFE5E70000400D030070B50446DC
:1046D0000B46224619785878012848D102F5106017
:1046E00000EB4110006800F00040B0F1004F17D11E
:1046F00002F5106000EB4110006840F0006502F523
:10470000106000EB4110056002F5106000EB4110F5
:10471000006840F0804502F5106000EB4110056034
:1047200040F63C0080581D7805F00F060125B54085
:10473000ADB2A84340F63C05A85040F61C00805896
:104740001D7805F00F060125B540ADB2A84340F62F
:104750001C05A85002F5106000EB411000682B4DBD
:10476000284002F5106505EB411528604BE002F585
:10477000306000EB4110006800F00040B0F1004FE5
:1047800017D102F5306000EB4110006840F0006581
:1047900002F5306000EB4110056002F5306000EB7F
:1047A0004110006840F0804502F5306000EB411098
:1047B000056040F63C0080581D7805F00F06012585
:1047C000B540134E06EA0545A84340F63C05A850FF
:1047D00040F61C008558187800F00F060120B04004
:1047E0000B4E06EA0040854340F61C00855002F55A
:1047F000306000EB41100068064D284002F530653E
:1048000005EB41152860002070BD0000007833ECF6
:104810000000FFFF0078F3EF70B50446254640F630
:104820000400405920F0020140F6040041510320E9
:10483000FBF7CEFD002070BD70B50446254640F65E
:104840000400405940F0020140F6040041510320A9
:10485000FBF7BEFD002070BD0FB4F0B50546002784
:104860002E46002405E0002105F5827040F8241052
:10487000641C0F2CF7D31098A0B940F6040080599F
:1048800040F0020140F604008151A86B40F4001092
:10489000A863A86B20F40020A863A86B20F48020F4
:1048A000A86307E0A86B20F40010A863A86B40F48D
:1048B0000020A8630020C6F8000ED6F80008C6F84D
:1048C00000080B9801280BD1089820B90021284630
:1048D00000F0E2FC08E00121284600F0DDFC03E0E6
:1048E0000321284600F0D8FC1021284600F024FCC3
:1048F00000B10127284600F009FC00B10127002182
:104900004FF401608151001D815140F61C0081511E
:1049100000242EE006F5106000EB4410006800F063
:104920000040B0F1004F10D13CB94FF0006106F5E6
:10493000106000EB441001600DE04FF0904106F56F
:10494000106000EB4410016005E0002106F51060E6
:1049500000EB44100160002106F5106000EB4410EC
:1049600001614FF67F3106F5106000EB4410816065
:10497000641C0698A042CDD800242EE006F53060D5
:1049800000EB4410006800F00040B0F1004F10D17F
:104990003CB94FF0006106F5306000EB4410016057
:1049A0000DE04FF0904106F5306000EB44100160DF
:1049B00005E0002106F5306000EB441001600021A5
:1049C00006F5306000EB441001614FF67F3106F5CB
:1049D000306000EB44108160641C0698A042CDD882
:1049E0004FF40160805920F480714FF401608151CF
:1049F0000020A8616FF080406861099818B9A86923
:104A000040F01000A861A86909490843A8610C9802
:104A100018B1A86940F00800A8611098012803D1D6
:104A2000A86904490843A8613846F0BC5DF814FB46
:104A300000383C80040000400146886820F00100F6
:104A40008860002070470000F0B505460B4614460C
:104A50002A4619785878012875D1586920BB02F583
:104A6000106000EB411000696C4E304002F510669A
:104A700006EB4116306102F5106000EB4110006951
:104A800040F4002602F5106000EB4110066102F5CB
:104A9000106000EB41100069C60CF60402F51060CE
:104AA00000EB4110066137E002F5106000EB4110A9
:104AB0000069C60CF60402F5106000EB41100661B7
:104AC00002F5106000EB41100069544E304002F5D1
:104AD000106606EB411630619E685869B04201D9F4
:104AE0009868586102F5106000EB4110006940F4CD
:104AF000002602F5106000EB4110066102F510601F
:104B000000EB411000695E69C6F31206304302F5FE
:104B1000106606EB41163061012C15D1186928B1D9
:104B200002F5106000EB41101E69466102F510604D
:104B300000EB4110006840F0044602F5106000EB05
:104B40004110066068E01BE002F5106000EB4110C8
:104B5000006840F0044602F5106000EB411006606A
:104B60005869002858D040F6340080581E7806F066
:104B70000F070126BE40304340F63406B0504BE0EC
:104B800002F5306000EB41100069C60CF60402F536
:104B9000306000EB4110066102F5306000EB41101F
:104BA00000691E4E304002F5306606EB411630615A
:104BB000586908B19868586102F5306000EB4110FF
:104BC000006940F4002602F5306000EB41100661F8
:104BD00002F5306000EB411000699E68C6F31206D2
:104BE000304302F5306606EB41163061012C07D1E7
:104BF000D86828B102F5306000EB4110DE684661EC
:104C000002F5306000EB4110006840F0044602F508
:104C1000306000EB411006600020F0BDFFFF07E0B0
:104C200070B503460C4619461D6C1848854209D9D3
:104C30004FF43060405800F00040B0F1004F01D117
:104C4000002070BD0026C1F8106BD1F8100B40F4A5
:104C50000026C1F8106BD1F8100B40F01806C1F80F
:104C6000106BD1F8100B40F0C046C1F8106B012C4E
:104C700009D1C1F8142B4FF43060405840F0802621
:104C80004FF4306046500020DBE700000A30544FFC
:104C900030B504460B4622461978587801281ED1B3
:104CA00002F5106000EB4110006820F4001502F5D9
:104CB000106000EB41100560D878032802D0D87846
:104CC00002282AD102F5106000EB4110006840F084
:104CD000805502F5106000EB411005601DE002F503
:104CE000306000EB4110006820F4001502F53060E0
:104CF00000EB41100560D878032802D0D87802284C
:104D00000BD102F5306000EB4110006840F0805597
:104D100002F5306000EB41100560002030BD30B579
:104D200004460B46224619785878012821D102F50D
:104D3000106000EB4110006800F0004060B959B10C
:104D400002F5106000EB4110006820F0804502F58C
:104D5000106000EB4110056002F5106000EB41109F
:104D6000006840F4001502F5106000EB411005608A
:104D700020E002F5306000EB4110006800F00040D8
:104D800060B959B102F5306000EB4110006820F0C5
:104D9000804502F5306000EB4110056002F530609F
:104DA00000EB4110006840F4001502F5306000EBA4
:104DB00041100560002030BD2DE9F84381460E46C4
:104DC00017464D463478707801287DD1706920BB34
:104DD00005F5106000EB44100069C749084005F56F
:104DE000106101EB4411086105F5106000EB4410FF
:104DF000006940F4002105F5106000EB44100161EA
:104E000005F5106000EB44100069C10CC90405F5FC
:104E1000106000EB4410016155E005F5106000EBF7
:104E200044100069C10CC90405F5106000EB441082
:104E3000016105F5106000EB44100069AE490840BF
:104E400005F5106101EB44110861B168706908440F
:104E5000401EB0FBF1F0A849C94301EAC04005F586
:104E6000106101EB44110969084305F5106101EB7C
:104E70004411086105F5106000EB44100069716988
:104E8000C1F31201084305F5106101EB44110861FB
:104E9000F078012817D105F5106000EB4410006987
:104EA00020F0C04105F5106000EB4410016105F5EC
:104EB000106000EB4410006940F0005105F51060EF
:104EC00000EB4410016100E07FE0012F36D1306932
:104ED00028B105F5106000EB441031694161F078AC
:104EE00001281ED140F60800405900F4807060B9D6
:104EF00005F5106000EB4410006840F0005105F526
:104F0000106000EB441001600BE005F5106000EB51
:104F10004410006840F0805105F5106000EB44102B
:104F2000016005F5106000EB4410006840F004419A
:104F300005F5106000EB44100160DAE005F5106043
:104F400000EB4410006840F0044105F5106000EBF0
:104F500044100160F07801280FD070690028ECD06F
:104F600040F634004059317801F00F0201219140A0
:104F7000084340F634014851BBE040F60800405970
:104F800000F4807060B905F5106000EB4410006813
:104F900040F0005105F5106000EB441001600BE09B
:104FA00005F5106000EB4410006840F0805105F5F5
:104FB000106000EB441001600097B08A83B2327831
:104FC0004846F16800F0E6F993E005F5306000EB43
:104FD00044100069C10CC90405F5306000EB4410B1
:104FE000016105F5306000EB44100069424908405A
:104FF00005F5306101EB441108617069D0B905F520
:10500000306000EB44100069B168C1F3120108433D
:1050100005F5306101EB4411086105F5306000EBE6
:105020004410006940F4002105F5306000EB4410A5
:10503000016126E0B16870690844401EB0FBF1F0E0
:105040001FFA80F805F5306000EB441000692A492A
:10505000C94301EAC841084305F5306101EB441139
:10506000086105F5306000EB44100069B16801FB90
:1050700008F1C1F31201084305F5306101EB441159
:105080000861012F07D1F06828B105F5306000EB09
:105090004410F1684161F07801281ED140F6080003
:1050A000405900F4807060B905F5306000EB4410A1
:1050B000006840F0005105F5306000EB44100160DD
:1050C0000BE005F5306000EB4410006840F08051C3
:1050D00005F5306000EB4410016005F5306000EB31
:1050E0004410006840F0044105F5306000EB4410C6
:1050F00001600020BDE8F883FFFF07E001468868F3
:1051000040F0010088600020704700000146002246
:105110001020086100BF501C0246064B984201D97E
:1051200003207047086900F010001028F3D0002019
:10513000F7E70000400D030010B5024600232020D1
:1051400040EA8110106100BF581C0346054CA04284
:1051500001D9032010BD106900F020002028F3D0F1
:105160000020F7E7400D030010B501460B4640F65E
:105170000804E45804F006020AB9002006E0022AF6
:1051800001D0062A01D1022000E00F2010BD014607
:10519000486900F00100704701460B4640F61800D0
:1051A000C258001DC058024090B2704701460B46DD
:1051B00040F61800C258001DC0580240100C70473D
:1051C00070B5024613464FF40166F45840F63406B3
:1051D000F55801F00F0625FA06F606F0010644EA36
:1051E000C61403F5106606EB4116B66806EA04001D
:1051F00070BD10B50246134603F5306404EB41144C
:10520000A06840F61404E458204010BD01464869E7
:105210008A6910407047F0B503461E460846D71C01
:10522000BD08002405E04FF48057BF590760001DFA
:10523000641CAC42F7D3F0BD70B504460D46E0687F
:1052400020F0C040E060012D04D1E06840F0005043
:10525000E06007E025B9E06840F08040E06001E0F0
:10526000012070BD3220FBF7B3F80020F9E710B53C
:1052700002460B461146D1F8000820F4FE60C1F842
:105280000008D1F800084FF4FE6404EA0314204338
:10529000C1F80008002010BD02461346D3F80008EC
:1052A0000843C3F8000800207047000030B50346EB
:1052B0001446022C49D12D48814204D32C48814206
:1052C00001D20F2245E02A48814204D32948814275
:1052D00001D20E223DE02748814204D32648814274
:1052E00001D20D2235E02448814204D32348814273
:1052F00001D20C222DE02148814204D32048814272
:1053000001D20B2225E01E48814204D31D48814270
:1053100001D20A221DE01B48814204D31A4881426F
:1053200001D2092215E01848814204D3174881426E
:1053300001D208220DE01548814204D3144881426D
:1053400001D2072205E0062203E00CB9092200E0A1
:105350000922D86820F47050D860D8684FF470558E
:1053600005EA82252843D860002030BDC0ACD800B3
:10537000C0E1E4000024F40080730601A0491A0192
:10538000002D310140A44C0100366E0120ABA60176
:105390000048E8012DE9F04304460D46DDF81CC045
:1053A000A0462E46BCF1000F0FD1D81C8708002163
:1053B00009E008F5805000EB0230D6F80090C0F804
:1053C0000090361D491CB942F3D30020BDE8F0839C
:1053D00000BFFEE70FB4054B10B503A9044A0298BD
:1053E00000F0B6F810BC5DF814FB0000D97400089A
:1053F0008807002002480068C0F3022070470000C0
:105400000CED00E010B5002804DB0A07130E054A76
:10541000135406E00A07140E034A00F00F031B1F83
:10542000D45410BD00E400E018ED00E002E008C82C
:10543000121F08C1002AFAD170477047002001E00E
:1054400001C1121F002AFBD17047000038B50020AF
:1054500000900024012500BF1DE004EB4400104A29
:1054600002EB80006A4641680E48006807F0D6FBF0
:10547000054655B904EB4400094A02EB8000416837
:1054800009A0009AFFF7A6FF04E029460BA0FFF74A
:10549000A1FF02E0641C152CDFD300BF38BD000063
:1054A000280000202C0100205B3078253038785D02
:1054B000202D203078253038780D0A00726567205D
:1054C000676574206661696C2025640D0A00000020
:1054D00038B50446002000906A4621460848006816
:1054E00007F09CFB05462DB9214606A0009AFFF760
:1054F00071FF03E0294608A0FFF76CFF38BD0000EC
:105500002C0100205B3078253038785D202D20304C
:1055100078253038780D0A00726567206765742039
:105520006661696C2025640D0A0000007047000068
:1055300010B502A0FFF74EFF10BD0000416C6C20BB
:10554000436F6D6D616E640D0A00000070470000CE
:105550002DE9FF4F8DB00F460546002606E02528B1
:105560000BD0DDE90F1290476D1C761C28780028BF
:10557000F5D111B03046BDE8F08F0024A246A14617
:105580000122E94900E0044315F8013F203B02FAFB
:1055900003F00842F7D128782A2810D06FF02F02A4
:1055A0002878A0F13001092914D80AEB8A0102EB0E
:1055B000410144F0020400EB010A6D1CF0E701CF49
:1055C0005FEA000A03D544F40054CAF1000A44F02B
:1055D00002046D1C28782E2817D115F8010F44F00D
:1055E00004042A280ED06FF02F022878A0F1300191
:1055F00009290AD809EB890102EB410100EB0109F5
:105600006D1CF2E757F8049B6D1C28786C280FD0AE
:1056100006DC4C2817D068280DD06A2814D104E085
:10562000742810D07A280FD10DE044F400140AE059
:1056300044F4801401E044F440146978814202D1BA
:1056400004F580146D1C6D1C28786E281ED00CDCAF
:10565000632830D004DC00288BD0582811D19FE07B
:10566000642867D069280CD164E073282DD004DC4D
:105670006F2872D0702804D194E075286ED07828F5
:105680006DD0DDE90F129047761C4BE1C4F3025058
:10569000022806D0032809D0042801CF09D00660CB
:1056A00040E101CFF117C0E900613BE101CF068085
:1056B00038E1067036E117F8040B8DF80000002081
:1056C0008DF80100EB46012003E057F804BB4FF0D2
:1056D000FF3061074FF0000102D40DE008F1010135
:1056E000884649450FDA8045F8DB1BF80810002989
:1056F000F4D108E008F1010188468142FADB1BF889
:1057000008100029F6D1DDE90F23AAEB0800814635
:10571000214600F031F9304400EB080604E0DDE9F1
:105720000F121BF8010B9047B8F10108F7D2214680
:105730004846F2E00A21C4F302524FF0000B0891F0
:10574000022A04D001CFC117032A09D00AE0FF1DA5
:1057500027F00707F7E8020108E02CE01EE01FE051
:1057600000B2C117042A01D140B2C117021E71F163
:10577000000206DA0023D0EB030063EB01012D22C7
:1057800002E0220504D52B228DF82420012203E01B
:10579000E20701D02022F7E7904653E00A210BE010
:1057A000102109E010214FF0000B44F004044FF0E9
:1057B0000809089103E008214FF0000B0891C4F399
:1057C0000252022A04D001CF0021032A06D006E0AB
:1057D000FF1D27F00707F7E8020103E080B2042A63
:1057E00000D1C0B24FF0000822072BD52A78702ACA
:1057F00007D0DDF820C08CF0100C5CEA0B0C05D053
:105800000EE040228DF82420012208E050EA010336
:1058100006D030238DF824308DF8252002229046C2
:10582000089B83F0080353EA0B030BD150EA0102F3
:1058300001D1620706D530228DF824204FF00108EF
:10584000A9F101092A78582A04D038A20B9208AA93
:105850000A920BE03AA2F9E75B46089AFAF7B8FC1D
:105860000B9B9B5C0A9A521E0A92137050EA01022B
:10587000F2D10A98ADEB000000F1200B600702D5D1
:1058800024F4803401E04FF00109D94502DDA9EB91
:105890000B0000E0002000EB0B0141440890AAEB54
:1058A000010AE00306D4DDE90F232146504600F04B
:1058B00063F806444FF0000908E009A911F809004F
:1058C000DDE90F12904709F10109761CC145F4DBAF
:1058D000E0030CD5DDE90F232146504600F04CF8DB
:1058E000064404E0DDE90F1230209047761C089949
:1058F000481E08900029F5DC08E00A980A9900780B
:10590000491C0A91DDE90F129047761CBBF100019A
:10591000ABF1010BF1DC21465046DDE90F2300F02D
:1059200019F806446D1C21E6092801003031323394
:1059300034353637383961626364656600000000CB
:1059400030313233343536373839414243444546B5
:10595000000000002DE9F041044600251E461746D0
:10596000880404D405E039462020B0476D1C641E2D
:10597000F9D52846BDE8F0812DE9F041044600251F
:105980001E469046C80301D5302700E02027880432
:1059900004D505E041463846B0476D1C641EF9D574
:1059A0002846BDE8F081000010B588B00124002031
:1059B0000490059006900790039001208DF8100048
:1059C0008DF8110000200590069008200790032014
:1059D0008DF80C008DF80D0002208DF80E000420CB
:1059E0008DF80F0003A8019007980090094804A9BA
:1059F0000EC9006806F041FD044644B12346A122C9
:105A000005490648FFF7E6FC204608B010BD2046D1
:105A1000FBE70000280200202CE2000870E50008E7
:105A20002DE9F04387B00746884616460025002436
:105A3000B8F1000F00D01EB9022007B0BDE8F08316
:105A4000012F57D1D8E90001CDE90501069800687A
:105A5000142801D90920F0E775689DF81400E11CAD
:105A600068540021A01C2954601C29549DF814007E
:105A700000162855241D9DF81500E11C68540021CE
:105A8000A01C2954601C29549DF8150000162855A7
:105A9000241DBDF81600C1B2E01C2954BDF8160043
:105AA000010AA01C29540021601C2954BDF81600CD
:105AB00000162855241D1421E01C29540021A01C87
:105AC0002954601C295400202855241D142000F05E
:105AD0005DFB814628194946FAF7C4FB069B281945
