:020000040800F2
:1000000090530020AD0100082F240008292100088A
:100010002D24000833030008E1430008000000001D
:100020000000000000000000000000001F26000883
:100030005503000800000000AB2500082B2600082F
:10004000C7010008C7010008C7010008C701000870
:10005000C7010008C7010008C7010008C701000860
:10006000C7010008C7010008C7010008C701000850
:10007000C7010008C7010008C7010008C701000840
:10008000C7010008C7010008C70100080000000000
:10009000000000000000000000000000C701000890
:1000A000C7010008C7010008C7010008C701000810
:1000B000C7010008C7010008C7010008C701000800
:1000C000C7010008C7010008C7010008C7010008F0
:1000D000C701000881290008C701000800000000CE
:1000E000C7010008C7010008C701000800000000A0
:1000F000000000000000000000000000C701000830
:1001000000000000C7010008C7010008C70100087F
:1001100000000000000000000000000000000000DF
:10012000C7010008C7010008C7010008C70100088F
:10013000C7010008000000000000000000000000EF
:100140000000000000000000000000003124000852
:10015000C7010008C7010008C7010008C70100085F
:10016000C7010008C70100080000000000000000EF
:10017000000000000000000000000000000000007F
:1001800000000000C701000800000000000000009F
:10019000C7010008DFF810D000F08EF800480047D3
:1001A000A9610008AFF30080905300200648804703
:1001B00006480047FEE7FEE7FEE7FEE7FEE7FEE74C
:1001C000FEE7FEE7FEE7FEE7CD2600089501000802
:1001D0002DE9F05F0546002092469B46884606467C
:1001E000814640241BE0284641464746224600F00F
:1001F00053F853465A46C01A914110D31146184637
:10020000224600F03AF82D1A67EB01084F462246C5
:100210000120002100F031F817EB00094E41201EAB
:10022000A4F10104DFDC484631462A464346BDE8D6
:10023000F09F40EA01039B0703D009E008C9121FA1
:1002400008C0042AFAD203E011F8013B00F8013B90
:10025000521EF9D27047D2B201E000F8012B491EBC
:10026000FBD270470022F6E710B513460A46044653
:100270001946FFF7F0FF204610BD202A04DB203A84
:1002800000FA02F1002070479140C2F1200320FAE9
:1002900003F3194390407047202A04DB203A21FAE7
:1002A00002F00021704721FA02F3D040C2F120028F
:1002B0009140084319467047064C074D06E0E06838
:1002C00040F0010394E8070098471034AC42F6D39D
:1002D000FFF764FFF89E0008189F000870B58C189F
:1002E00010F8015B15F0070301D110F8013B2A114A
:1002F00006D110F8012B03E010F8016B01F8016B37
:100300005B1EF9D12B0705D40023521E0DD401F832
:10031000013BFAE710F8013BCB1A921C03E013F8FB
:10032000015B01F8015B521EF9D5A142D8D3002030
:1003300070BDFEE7002070470020704710B50448EC
:1003400002F04CFC002801D04FF0FF3010BD00003F
:1003500000030020704772B6FEE72DE9F041044625
:10036000876D00F05DF9064694F8350000250228F7
:1003700006D08020606584F834500120BDE8F0810B
:100380002068016821F0160101602068416921F0B0
:1003900080014161206C08B9A06C20B1206801681F
:1003A00021F0080101602068016821F0010101606D
:1003B0000CE000F035F9801B052807D92020606586
:1003C000032084F8350084F83450D7E720680068AB
:1003D000C007EED194F85C103F208840B86001203F
:1003E00084F8350084F834500020C7E790F83510C1
:1003F000022903D08021416501207047052180F842
:1004000035100068016821F001010160002070478B
:1004100070B5044600F004F90546601C02D004489B
:100420000078044400F0FCF8401BA042FAD370BDF1
:10043000840000202DE9F84FDFF8B8A10022012444
:1004400003254FF00F090AF1040BAAF1040E00BFB7
:100450000B6804FA02F63340B34273D10F7907F008
:100460000307012F01D0022F16D187684FEA4208F7
:1004700005FA08FC27EA0C07D1F80CC00CFA08FCB6
:100480004CEA070CC0F808C04768B7430E79C6F3BA
:10049000001696403E4346600E79F643B6070DD0EF
:1004A000C768560005FA06FC27EA0C07D1F808C011
:1004B0000CFA06FC4CEA070CC0F80CC00E7906F0EA
:1004C0000306022E10D1D60800EB8608D8F820606B
:1004D00057074FEAD76C09FA0CF7BE430F6907FAC2
:1004E0000CF73743C8F8207006684FEA420C05FA4B
:1004F0000CF7BE430F7907F0030707FA0CF73743F1
:1005000007604E6816F4403F6DD03B4E376847F4A5
:1005100080473760366822F0030706F4804600966D
:10052000364E07EB060CDCF8086897073F0F09FA10
:1005300007F826EA0806DFF8C880404503D14FF0E7
:1005400000081EE04FE0DFF8BC80404502D14FF0CC
:10055000010816E0DFF8B080404502D14FF00208F4
:100560000FE0DFF8A880404502D14FF0030808E013
:10057000DFF89C80404502D14FF0040801E04FF0C5
:10058000070808FA07F848EA0608CCF80888DAF8F5
:1005900000605746D1F804C09E435FEACC2C00D5DA
:1005A0001E433E60DBF800605F46D1F804C09E4306
:1005B0005FEA8C2C00D51E433E60DEF80060774673
:1005C000D1F804C09E435FEA8C3C00D51E433E60D8
:1005D000084F083F3E68D1F804C09E435FEACC3C18
:1005E00000D51E433E60521C102AFFF431AFBDE817
:1005F000F88F0000083C01404438024000300140C0
:10060000000002400004024000080240000C0240CA
:10061000001002400AB1816170470904FBE7000045
:1006200001488068704700008400002070B5040015
:1006300025D094F83D00002520B984F83C50204690
:1006400000F0B8F8242084F83D002068016821F00B
:10065000010101602068016841F4004101602068E7
:10066000016821F40041016000F0EAFF4D4A616831
:10067000914201D84C4900E04C49884201D2012006
:1006800070BD4B492368B0FBF1F15E6826F03F0670
:100690000E435E606368934206D94FF496735943E4
:1006A0004FF47A73B1FBF3F12368491C1E6A26F0FC
:1006B0003F06314319626168914210D84900401EDB
:1006C000B0FBF1F2521CC2F30B02042A01D2042047
:1006D00022E0B0FBF1F0401CC0F30B001CE0A2686C
:1006E000F2B301EBC10303EB0116431EB3FBF6F3B8
:1006F0005B1C43F480431B0549D092B301EBC1025C
:1007000002EB0111401EB0FBF1F0401CC0F30B00E6
:1007100040F4804040F400402168CA694CF6FF7301
:100720009A431043C861D4E9071001432068026866
:1007300022F0C00211430160D4E9030101432068A3
:10074000826848F2FF339A4311438160D4E905017E
:1007500008432168CA6822F0FF021043C86001E024
:100760000EE016E02068016841F001010160256497
:10077000202084F83D00256384F83E50002070BDA1
:1007800001EB4106431EB3FBF6F35B1CB3E701200C
:10079000C2E701EB4101401EB0FBF1F0401CC0F389
:1007A0000B00B7E7A086010080841E0000093D0011
:1007B00040420F0010B586B0044614216846FFF78A
:1007C00051FD13492068884220D11248016841F048
:1007D000020101600068694600F002000590C02037
:1007E0000090122001900120029003200390042029
:1007F00004900948FFF71EFE06481030016841F4D6
:1008000000110160006800F40010059006B010BDF2
:100810000054004030380240000402400248816821
:100820000278114481607047840000200B4810B5A5
:10083000016841F400710160016841F48061016068
:10084000016841F480710160032000F06FF800201E
:1008500000F006F800F024F8002010BD003C024033
:1008600070B50D4D04464FF47A712878B1FBF0F065
:100870000A490968B1FBF0F001F020FA48B9102CE0
:1008800007D200222146501E00F030F800206C6094
:1008900070BD012070BD0000840000209000002089
:1008A0000A4808B5016841F480410160006800F41D
:1008B000804000900548001F016841F080510160B0
:1008C000006800F08050009008BD000044380240ED
:1008D000002809DB00F01F0201219140400980003F
:1008E00000F1E020C0F8001170470000F0B40E4B9A
:1008F0001B680C46C3F30223C3F10705042D00D97E
:100900000425191D072901D2002300E0DB1E012662
:1009100006FA05F1491E214099409E40761E164078
:100920003143F0BC03F06EBD0CED00E0064900F071
:10093000070208684FF6FF03184040EA0220034A06
:1009400010430860704700000CED00E00000FA055D
:1009500070470068416200207047F0B50368586A2C
:1009600039B19C6A4FF4827600EB144400204D1E8E
:100970000AE040EA024098620FE006EB8007DF5988
:10098000401C04EB1744C0B2A842F6D344EA02402C
:100990004FF4807202EB810158500020F0BDD0F876
:1009A000080502F023BC01EBC10200EB8202D0F883
:1009B0000805D26C02F078BB01EBC10200EB8202A9
:1009C000D0F80805D2F88C2202F0C9BBD0F808058F
:1009D00002F00EBC0A0601F00F0101EBC10100EBB1
:1009E000810101D53C3101E001F51F71006803F080
:1009F0003FBB70B504460B0601F00F0000EBC001D1
:100A000004EB81014FF001024FF0000503D581F89E
:100A10003D203C3103E081F87D5201F51F710870E3
:100A200094F8BC04012808D084F8BC24206802F0A3
:100A3000D9FF84F8BC54002070BD022070BD70B591
:100A4000044601F00F006268904201D9012070BD98
:100A50000B0601F00F0101EBC10104EB81014FF026
:100A600001024FF0000503D581F83D203C3103E041
:100A700081F87D5201F51F718D70087094F8BC04E7
:100A8000012808D084F8BC24206803F0A7F984F872
:100A9000BC54002070BD022070BD2DE9F041044619
:100AA0000F0601F00F0000EBC00104EB81014FF0D5
:100AB00001064FF0000503D581F83D603C3103E0AD
:100AC00081F87D5201F51F710870CA600B714A7878
:100AD00002B10881022B00D14D7194F8BC040128A9
:100AE00009D084F8BC64206802F0D4FE284684F85B
:100AF000BC54BDE8F0810220FBE770B50C4601F064
:100B00000F0505EBC50100EB8101C1F89432C1F876
:100B10008C220023C1F89C3281F87D3281F87C520E
:100B2000036901F51F71012B00D14A612207027C84
:100B3000006803D003F0AAF9002070BD03F094F818
:100B4000FAE770B504460D4601F00F00616888426F
:100B500001D9012070BD29064FF000064FF00102B7
:100B600007D500EBC00104EB810181F83D203C3149
:100B700007E005EBC50104EB810181F87D6201F519
:100B80001F718A70087094F8BC04012807D084F89B
:100B9000BC24206803F04EF9280702D007E00220A9
:100BA00070BD217C04F2C442206803F0EBF884F8A5
:100BB000BC64002070BD70B50C4601F00F0505EB5C
:100BC000C50100EB81014B65CA640023CB6501239D
:100BD00081F83D3001F83C5F0369012B00D14A6187
:100BE0002207027C006803D003F050F9002070BD9A
:100BF00003F03AF8FAE700002DE9FC5F05680446C7
:100C0000284603F0D6FA00287DD1206803F0FDFACB
:100C1000002878D0D5F80808C0F30D20C4F8FC04EB
:100C2000206803F0F2FA800704D52068416901F0DA
:100C300002014161206803F0E8FAC10604F2C440F1
:100C4000009034D52068816921F0100181612F6AFC
:100C500007F00F0000EBC00004EB8006C7F3434031
:100C600006F51F76022802D0062811D01AE047F6B2
:100C7000F070074216D0C7F30A12174628463169AA
:100C800003F0C7FA306938443061306A384408E00C
:100C900008222846009903F0BCFA306AC7F30A110B
:100CA000084430622068816941F010018161206848
:100CB00003F0ABFA00034FF0080B4FF0000A4FF0BF
:100CC00001097CD50026206803F07EFA074674E00F
:100CD000F80770D0F1B2206803F08FFA8046C007A1
:100CE00007D005EB4611C1F8089B3146204601F0BC
:100CF000A5FB5FEA087024D505EB4611C1F808BBD7
:100D00002068016C00E025E200EB46100191D0F86C
:100D1000082BFC4B994205D9110403D54FF400412F
:100D2000C0F8081B204600F002FBF64901988842F3
:100D300007D92069012804D120680121009A03F015
:100D400021F85FEAC86004D505EB46111020C1F810
:100D5000080B5FEA88701DD56869000605D5D5F8CF
:100D6000040840F48061C5F8041806EBC60004EBE3
:100D7000800090F87F1200F51F70012905D180F8DE
:100D800003A0F1B2204600F0EBF905EB461102207A
:100D9000C1F8080B5FEA886004D505EB46102021F6
:100DA000C0F8081B5FEA884005D505EB46104FF4F4
:100DB0000051C0F8081B7F08761C002F88D12068DE
:100DC00003F023FA40036FD5206803F0F6F90746D5
:100DD000002667E0F80763D0F1B2206803F0FBF962
:100DE0008046C00723D006F00F0209FA02F0D5F8BA
:100DF00034288243C5F8342805EB4610C0F808991A
:100E0000206901280FD106EBC60004EB8000D0E971
:100E100012211144C16436B9606D20B920680121E6
:100E2000009A02F0AFFFF1B22046FFF7BCFD5FEA87
:100E3000087003D505EB4611C1F808B95FEAC86030
:100E400004D505EB46111020C1F808095FEA486097
:100E500004D505EB46104021C0F808195FEA8870F8
:100E600017D53146284603F077F906EBC60004EBA8
:100E7000800090F83F103C30012905D180F803A094
:100E8000F1B2204600F068F905EB46110220C1F8E6
:100E900008095FEA086003D53146204601F034FBBB
:100EA0007F08761C002F95D1206803F0AEF900284A
:100EB00011DAD5F8040820F00101C5F8041894F8F7
:100EC000F40401282BD0204600F015FA206841696F
:100ED00001F000414161206803F097F900050BD54E
:100EE000D5F80808C00702D0204600F049FA20686B
:100EF000416901F400614161206803F086F9C00492
:100F000066D5D5F8040820F00100C5F804081021C2
:100F1000206803F021F900214FF67F321FE084F8AA
:100F2000F4A400212046FFF713FDCFE705EB4110A5
:100F3000C0F80829D0F8003923F40013C0F80039AC
:100F4000C0F8082BD0F8003B23F40013C0F8003B96
:100F5000D0F8003B43F00063C0F8003B491C6068D8
:100F60008842E3D8D5F81C0840F00111C5F81C18D8
:100F7000206B002828460DD0D0F8840840F00B01E3
:100F8000C5F88418D5F8440840F00B012846C5F888
:100F900044180DE0D0F8140842F22B010843C5F8BC
:100FA0001408D5F8100840F00B012846C5F81018B1
:100FB000D0F8000820F4FE61C5F80018217C2068F4
:100FC000009A02F0DFFE2068416901F4805141611E
:100FD000206803F01AF9800415D5206802F09AFC05
:100FE000206803F0D9F8E06000F024FB0146227B82
:100FF000206803F06DF9204600F06AF92068416925
:1010000001F400514161206803F0FFF8000707D5A3
:10101000204600F074F92068416901F0080141613F
:10102000206803F0F2F8000616D5A86920F08000C9
:10103000A86101260DE000BF06EBC60004EB8000AE
:1010400090F87F02012803D1F1B22046FFF7C2FCDD
:10105000761C6068B042EFD8206803F0D6F8C00272
:1010600021D501264F4616E005EB4610D0F80019B1
:1010700006EBC60004EB800090F84020012A09D15D
:10108000002907DA80F83F70F0B240F08001204676
:10109000FFF7A0FC761C6068B042E5D82068416983
:1010A00001F480114161206803F0AFF8800234D56B
:1010B00001204B4629E000BF05EB4011D1F8001B91
:1010C00000EBC00204EB820696F88022012A1BD1B5
:1010D000002919DA94F8FC2401F4803102F00102AD
:1010E000914211D186F87F32A96941F08002AA614C
:1010F0006969090608D4D5F8040840F40070C5F8F9
:10110000040805E00A30544F401C61688142D3D87E
:101110002068416901F400114161206803F075F80D
:10112000400007D52046FFF73AFC2068416901F0EE
:1011300080414161206803F068F840070AD52068C3
:101140004568680702D52046FFF740FC20684168E3
:1011500029434160BDE8FC9FD0F8080502F098B82B
:10116000D0F8080502F0A8B82DE9F0418AB00400D3
:1011700005D094F8BD042668002520B108E00120C0
:101180000AB0BDE8F08184F8BC54204600F05EF857
:10119000032084F8BD04F06BC00500D425612068ED
:1011A00002F05CFD04F11001282288466846FFF732
:1011B00040F894E80F0002F0BBFB0226C8BB0021F8
:1011C000206803F045F8002001270EE000EBC00185
:1011D00004EB810181F83D7001F83C0F08810D712D
:1011E000CD600D61401CC0B28D6161688142EDD857
:1011F000002011E000EBC00104EB810181F87D5279
:1012000081F87C0281F88052C1F88852C1F88C5272
:10121000401CC0B2C1F8945261688142EAD82822C9
:1012200041466846FFF705F894E80F0002F05CFCC1
:1012300010B184F8BD64A2E784F8385084F8BD7416
:10124000206802F043FC00209AE7000010B586B049
:10125000044614216846FFF705F82068B0F1A04F56
:101260002FD119480021026842F001020260006893
:1012700000F0010005904FF4C05000900220CDE92D
:101280000101032003900A20049069460F48FFF7EC
:10129000D1F80D48001D016841F0800101600A4845
:1012A0001430016841F4804101600068002200F4BC
:1012B0008040059011464320FFF718FB4320FFF7BD
:1012C00007FB06B010BD00003038024000000240AD
:1012D00070B50446C0680125022801D0FFF73BF82D
:1012E0002946D4F8080502F055F8D4F80805BDE8F9
:1012F000704002F00AB8D0F8080502F034B8D0F80F
:10130000080502F03AB810B5044690F8BC0401286C
:101310000BD0012084F8BC0484F83810206802F057
:10132000C5FF002084F8BC0410BD022010BDD0F819
:10133000082500F2C441104602F038B810B5044642
:10134000006894F8BC14012906D0012184F8BC146B
:10135000A16A012902D008E0022010BDA16901297B
:1013600003D0816B41F480318163206802F0CFFEAD
:10137000206802F09DFB002084F8BC0410BD000032
:1013800010B50446D0F8080502F052F82068D0F8ED
:10139000001E41F00101C0F8001E206A002804D0A0
:1013A0000248016841F00601016010BD10ED00E047
:1013B0002DE9F843044600684FF00109C1074FF0DA
:1013C000000601D1400727D5DFF81C81C8F8686006
:1013D000FFF726F90746454D05E000BFFFF720F966
:1013E000C01B022857D828680001F7D46068810123
:1013F000207A41EA00703D4984310860C8F868905D
:10140000FFF70EF9074604E0FFF70AF9C01B0228B0
:1014100041D828680001F7D52078800752D5334895
:101420004030016841F0805101600068304D00F0AB
:1014300080500090286840F480702860FFF7F0F832
:10144000074604E0FFF7ECF8C01B022823D8286801
:10145000C005F7D5254D7035286810F4407020D0B0
:10146000A18901F4407181421BD0286820F44071A9
:101470002048C0F80090066029602868C00710D096
:10148000FFF7CEF8064641F2883707E0FFF7C8F8C5
:10149000801BB84202D90320BDE8F8832868800782
:1014A000F4D5E1681148C1F301220830032A12D0B3
:1014B000016821F4F81101602868A189C1F30B01CA
:1014C000084328602078000703D50B49207CC1F829
:1014D000E0010020E0E70268084B22F4F81219400E
:1014E0000A430260E8E7000000004742003802407B
:1014F00000700040400E474200104742FFFCFF0FC3
:101500002DE9F0470E46050065D0DFF81481D8F8C4
:101510000000F7B200F00700B04207D288F8007070
:10152000D8F8000000F00700B04254D128683D4CC4
:10153000810712D5400703D5206840F4E0502060B1
:101540002878000703D5206840F4604020602068B8
:10155000A96820F0F000084320602878C0072DD04B
:10156000304968680839012812D0022813D00328AE
:1015700011D00968890700292DDA216821F00301BB
:1015800001432160FFF74CF8814641F2883A0EE0B2
:1015900009688903EFE709688901ECE7FFF740F87C
:1015A000A0EB0901514502D90320BDE8F08720686E
:1015B000696800F00C00B0EB810FEFD1D8F8001093
:1015C000404601F00701B14207D90770006800F0FA
:1015D0000700B04201D00120E7E72878400705D591
:1015E0002068E96820F4E05008432060287800076C
:1015F00006D52068296920F4604040EAC1002060D7
:1016000000F03EF82168084AC1F30311515CC8405C
:101610000649086006480068FFF722F90020C4E781
:10162000003C024008380240649800089000002006
:1016300088000020014800687047000090000020EA
:101640000448054900680968044AC1F38221515CD5
:10165000C840704790000020083802407498000885
:101660000448054900680968044AC1F34231515CE5
:10167000C840704790000020083802407498000865
:10168000154810B5006810F00C02144813D0144926
:10169000042A0FD0082A0ED10F4C241F2268236879
:1016A00002F03F025B0207D52068C0F38810A0FB60
:1016B000010106E0084610BD2168C1F38811A1FBB5
:1016C00000010023FEF784FD2168C1F30141491C9C
:1016D0004900B0FBF1F010BD083802400024F400CE
:1016E000001BB7002DE9F84F04006ED02078DFF81A
:1016F0004C93C007A9F104054AD009F10400016820
:10170000C1F38101012908D00068C0F381000228DB
:101710000AD1D9F80000400206D52868800337D5E1
:1017200060680028E1D033E06068B0F5803F10D0F9
:10173000B0F5A02F286810D020F4803028602868E9
:1017400020F4802028606068A8B1FEF769FF064693
:101750000DE0286840F48030F4E740F480202860F1
:10176000F7E700BFFEF75CFF801B642873D828688A
:101770008003F7D50CE0FEF753FF064605E000BFF7
:10178000FEF74EFF801B6428F0D828688003F7D44A
:101790002078DFF8AC8280074FF0000A3ED5A748DA
:1017A000001D016811F00C0F08D00068C0F3810023
:1017B00002280BD1D9F80000400207D4286880071E
:1017C00016D5E068012800D112E033E1E068B8B135
:1017D0000120C8F80000FEF723FF064605E000BF21
:1017E000FEF71EFF801B0228C0D828688007F7D5A7
:1017F0002868216920F0F80040EAC10028600DE067
:10180000C8F800A0FEF70CFF064604E0FEF708FF4C
:10181000801B02281FD828688007F7D4207800078B
:1018200022D5864F87486169703771B10121016007
:10183000FEF7F6FE064604E0FEF7F2FE801B0228E5
:1018400009D838688007F7D50EE0C0F800A0FEF789
:10185000E7FE064605E082E0FEF7E2FE801B022876
:101860007DD838688007F7D42078400768D5DFF83E
:10187000CCB100270BF13C0BDBF80000C0000BD40F
:10188000DBF8001041F08051CBF80010DBF80000CD
:10189000012700F0805000906B4E3068C00510D4D6
:1018A000306840F480703060FEF7BAFE009005E0CA
:1018B000FEF7B6FE0099401A022850D83068C005DD
:1018C000F6D55E4EA0686C3601280FD0052830682A
:1018D00010D020F001003060306820F0040030604B
:1018E000A068B8B1FEF79CFE00900FE0306840F0B1
:1018F0000100F4E740F004003060F7E7FEF790FEE7
:101900000099411A41F28830814266D830688007D8
:10191000F4D50EE0FEF784FE009007E0FEF780FEAF
:101920000099411A41F28830814256D830688007C8
:10193000F4D42FB1DBF8001021F08051CBF8001067
:10194000A069C8B33D49091D0968C1F38101022995
:101950004AD00228504607D0C8F8600000E03CE0BA
:10196000FEF75EFE04463BE04746C8F86000FEF71F
:1019700057FE064605E000BFFEF752FE801B022818
:101980002BD828688001F7D4D4E907010843A16A5D
:101990002E4A490802EB0141626A41EA821108437A
:1019A00094F82C1040EA0161C9F800100120386653
:1019B000FEF736FE044606E03EE000BFFEF730FECE
:1019C000001B022809D828688001F7D534E000BF41
:1019D000FEF726FE001B022802D90320BDE8F88F7F
:1019E00028688001F4D427E00128F7D0D9F8000056
:1019F000E26900F4800191421CD1226A00F03F01AB
:101A0000914217D147F6C071626A0140B1EB821F63
:101A100010D1A26A4FF0FF3300F4403103EB5202C1
:101A2000B1EB024F06D194F82C1000F07060B0EBCF
:101A3000016F01D00120D1E70020CFE70438024038
:101A400000004742800E4742007000400000FFFF48
:101A500010B5040002D0607F10B106E0012010BD77
:101A600000202077204600F039F8022060772168B6
:101A7000CA204862216853204862204600F096FD43
:101A800030BB20688168144A1140816021688868F1
:101A900062681043D4E904231A4310438860216824
:101AA000E068086120680169228941EA0241016118
:101AB000204600F09FFD58B921680A6C22F480226C
:101AC0000A6421680A6CA3691A430A6401216177D8
:101AD0002268FF21516210BDBFFF8FFF10B586B095
:101AE000044614216846FEF7BDFB09492068884278
:101AF0000CD102200090000203906846FFF758FCCA
:101B000008B1FEF728FC03490120086006B010BDAB
:101B1000002800403C0E474270B504460068C1688A
:101B200021F0A001C160FEF77BFD05464FF47A76F7
:101B300007E000BFFEF774FD401BB04201D903204F
:101B400070BD2068C0688006F4D5002070BD70B5F7
:101B5000040009D0606A002540B125616561A56275
:101B600094F8510040B10CE0012070BD6068B0F500
:101B7000827FF4D0E561F2E784F85050204600F00F
:101B800045F8022084F851002068016821F04001E6
:101B90000160A088218900F4827001F404410843A7
:101BA000A18901F400610843217C01F0020108438E
:101BB000217D01F001010843218B01F400710843EC
:101BC000217F01F03801084394F8201001F08001D2
:101BD0000843218D01F40051084321680860A06981
:101BE000042101EA104094F8241001F01001084388
:101BF000216848602068C16921F40061C1616565A0
:101C0000012084F85100002070BD000030B587B07D
:101C1000044614216846FEF725FB234D2268002167
:101C2000224802230324AA421BD1204A14321568F9
:101C300045F480551560126802F4805205920268DE
:101C400042F0020202600068CDE9021400F00200D6
:101C500005903820CDE9000305200490694614481A
:101C60001EE0144DAA421DD1104A1032156845F4E9
:101C700000451560126802F400420592026842F0C5
:101C8000040202600068CDE9021400F0040005902F
:101C90004FF4E050CDE90003062004906946064861
:101CA000FEF7C8FB07B030BD0030014030380240BD
:101CB00000040240003C00400008024010B5401EF5
:101CC000B0F1807F01D3012010BD4FF0E0246061AE
:101CD0000F21601702F096FB0020A0610720206111
:101CE000002010BD70477047F8B5016804460868C9
:101CF000CA684B6910F00F0F4FF0000559D003F080
:101D0000010602F49077374365D0C10705D0D105AD
:101D100003D5216C41F001012164410705D5D907A4
:101D200003D0216C41F002012164810705D5D90758
:101D300003D0216C41F004012164010707D502F0B2
:101D40002001314303D0216C41F008012164216C52
:101D500000293AD0800604D5900602D5204600F02E
:101D6000ECFC20684069216CC0F38010090700D4A6
:101D700060B3204600F0BAFC20684069400621D5D7
:101D80002068143050E8001F21F0400140E80012A4
:101D9000002AF5D1A06BA8B16C490165A06BFEF7D4
:101DA00025FB002811D0A06B016D01B0BDE8F0400B
:101DB000084783060FD593060DD52046BDE8F840A9
:101DC00000F0BBBC2046FFF78EFFF8BD2046FFF7B2
:101DD0008AFF2564F8BD266B2023012E79D1C60623
:101DE00077D5D60675D508684868009048694006DA
:101DF00040D5A16B086840680004000CEAD0A28DB1
:101E00008242E7D9E085C869B0F5807F2DD020688F
:101E10000C3050E8001F21F4807140E80012002AC5
:101E2000F5D12068143050E8001F21F0010140E88E
:101E30000012002AF5D12068143050E8001F21F06C
:101E4000400140E80012002AF5D184F83E302563B5
:101E500020680C3050E8001F21F0100140E800120B
:101E6000002AF5D1A06BFEF778FAA08DE18D401A1B
:101E700081B229E0A08DE18D401A81B2E08D002869
:101E8000A8D00029A6D020680C3050E8002F22F4FA
:101E9000907240E80026002EF5D12068143050E8FA
:101EA000002F22F0010240E80026002EF5D184F830
:101EB0003E30256320680C3050E8002F22F01002DD
:101EC00040E80023002BF5D12046FFF70BFFF8BDBB
:101ED000FFE705062BD5150629D594F83D002128E6
:101EE000F5D1A068B0F5805F01D12069B0B1206A5A
:101EF000411C2162216800784860E08C401E00048B
:101F0000000CE084E3D12068C16821F08001C16049
:101F10002068C16841F04001C160D8E7206A0088AC
:101F2000C0F308004860206A801C2062E5E7400694
:101F3000CDD55006CBD5CA68204622F04002CA60F3
:101F400084F83D3000F0EFF8C1E70000DD2600081E
:101F500070B5040004D094F83D00002510B106E0EF
:101F6000012070BD84F83C50204600F023F8242066
:101F700084F83D002068C16821F40051C16020460A
:101F800000F03CFC2068016921F490410161206867
:101F9000416921F02A0141612068C16841F4005182
:101FA000C1602564202084F83D0084F83E000020B4
:101FB00070BD000070B586B0044614216846FEF777
:101FC00051F92748254E2568002425491438022256
:101FD0000323B54223D10D6845F010050D60096853
:101FE00001F010010591016841F0010101600068F4
:101FF000694600F00100059058028DE815000720A1
:10200000CDE903301748FEF715FA002211462520C6
:10201000FEF76CFC2520FEF75BFC06B070BD124E8F
:10202000B542FAD10D6845F020050D60096801F050
:1020300020010591016841F00401016000686946D2
:1020400000F004000590C0208DE815000820CDE9BF
:1020500003300648FEF7EEF9DFE70000001001400C
:1020600044380240000002400014014000080240D1
:10207000704700002DE9F843044690F83D001F46E4
:1020800016460D4620284CD1C5B1BEB194F83C008F
:10209000012846D0012084F83C004FF00008C4F825
:1020A0004080212084F83D00FEF7BAFAA6848146DC
:1020B000E684A068B0F5805F03D004E00120BDE8AD
:1020C000F883206928B12E465FF0000584F83C8033
:1020D0000EE00026FAE78021204600F015FCA0B9AA
:1020E000AEB116F8010B21684860E08C401EE08418
:1020F000E08C4B464FF0000200970028EBD14FF0E8
:102100004001204600F000FC30B10320D7E735F84D
:10211000020BC0F30800E6E7202084F83D00002011
:10212000CDE70220CBE77047FEE70000F0B50023C3
:102130000A24302537261F4611E000BFB4EB107F7C
:1021400002D905EB107C01E006EB107C01F813C00E
:1021500001EB430C00015B1C8CF80170DBB2934275
:10216000ECD3F0BD2DE9F04F87B014216846FEF79F
:1021700079F847480024016841F0100101600168C6
:1021800001F010010591016841F00401016001684E
:1021900001F004010591016841F0800101600168CE
:1021A00001F080010591016841F0010101600168C1
:1021B00001F001010591016841F008010160016829
:1021C00001F008010591016841F002010160006819
:1021D000DFF8C09000F0020005900022242148465C
:1021E000FEF718FADFF8B0B0002202215846FEF7D9
:1021F00011FADFF8A8A04FF480760022314650464D
:10220000FEF708FA4FF47847012239464846FEF7B0
:1022100001FA4FF47F48012241465846FEF7FAF989
:10222000242000900125CDE90154694648460394D5
:10223000FEF700F91820CDE90004694648460294EB
:10224000FEF7F8F802200090CDE90154694658469F
:102250000394FEF7EFF80096CDE901546946504625
:102260000394FEF7E7F80097CDE901546946484624
:102270000394FEF7DFF8CDF80080CDE901546946FC
:1022800058460394FEF7D6F807B0BDE8F08F00007B
:102290003038024000100240000C024000040240AE
:1022A0000D4810B50B4901600C49416000214FF405
:1022B00080428160C0E9031241618161C1610162B4
:1022C000FEF7B4F9002803D0BDE81040FEF743B88C
:1022D00010BD00000054004054010020801A060088
:1022E0000B4810B50949016000217F22C0E90112A5
:1022F000FF22C0E9032141618161FFF7A9FB0028AA
:1023000003D0BDE81040FEF726B810BD00280040FD
:10231000A8010020104810B50E4901604FF48271E9
:10232000416000218160C1604FF400720161C0E929
:1023300005120822C0E90721416281620A21C162B7
:10234000FFF705FC002803D0BDE81040FEF703B8F6
:1023500010BD000000300140C80100200F4810B53A
:102360000D4901604FF48271416000218160C160BC
:102370004FF400720161C0E90512C161016241625E
:1023800081620A21C162FFF7E2FB002803D0BDE8A9
:102390001040FDF7E0BF10BD003C004020020020CF
:1023A0000C4810B50A4901604FF4E1314160002149
:1023B00081600C22C160C0E904128161C161FFF734
:1023C000C7FD002803D0BDE81040FDF7C4BF10BD15
:1023D000001001407802002010B500220F4910487B
:1023E00000F03DFE08B1FDF7B6FF0E490C4801F0C4
:1023F00047F808B1FDF7AFFF0B49094800F002FCB0
:1024000008B1FDF7A8FF064801F0BEF8002803D088
:10241000BDE81040FDF79FBF10BD00000000002088
:10242000000300209800002074000020FEE7FEE773
:102430000148FEF7E1BB0000340600202DE9F04121
:1024400003680D4604461E6C03EB4511D1F8080BDA
:10245000D4F810E04FF400474FF0200C04F2C442CF
:10246000BEF1010F09D0DFF898E0764539D10204BA
:1024700032D500BFC1F8087B3FE0224B5FEA007E07
:1024800004D59E4239D90004F4D436E05FEA806E68
:1024900002D5C1F808CB30E010F0280F2DD19E42B4
:1024A00001D90004E6D405EBC50004EB8000D1F8A7
:1024B000101BD0F89832C1F31201591AC0F89C12BF
:1024C00000F51F70ADB983691BB102691144016148
:1024D0000FE0012120680AE080060AD5C1F808CB88
:1024E00007E035B9D4F8940218B90021184601F074
:1024F00049FCE9B22046FEF75FFA0020BDE8F08112
:102500000A31544F0A30544F2DE9F84F0E4601EB73
:10251000C60100EB810481460568616DE06D3C34C5
:10252000884202D90120BDE8F88F081AE16881428B
:1025300000D20846C01C870805EB46181BE000BF08
:10254000A0EB010AE068504500D282460AF1030080
:10255000870899F8100000901FFA8AF3F2B2284613
:10256000216901F029FF216901EB0A002061216A3C
:1025700001EB0A002062D8F8180980B2B84205D3EE
:10258000216AA069814201D20028D9D1216AA069BB
:10259000884208D806F00F0101208840D5F8341889
:1025A0008143C5F834180020BDE770472DE9F0419C
:1025B000044600680025C168490618D4C16841F086
:1025C0008001C160FEF72CF806464FF47A780427A4
:1025D00007E000BFFEF724F8801B404501D967776C
:1025E00001252068C068400601D4002DF2D028469D
:1025F000BDE8F08170B5044600680025C16821F08F
:102600008001C16020688068800606D42046FFF7FC
:1026100083FA10B1042060770125284670BD704709
:102620000178407841EA00207047FEF7F7B80000D3
:1026300030B593B030216846FDF714FE14210CA884
:10264000FDF710FE1F480024016841F08051016031
:10265000006800F0805011901B48016821F440414F
:1026600041F4004101600068022500F440401190EF
:10267000092000904FF4803001900120CDE905053C
:102680008005079006200890A820099004200A9051
:1026900007200B906846FFF725F808B172B6FEE7F1
:1026A0000F20CDE90C054FF48050CDE90E400221FA
:1026B0000CA81094FEF724FF002801D072B6FEE7A4
:1026C00013B030BD4038024000700040024801683D
:1026D00041F470010160704788ED00E010B5806B37
:1026E0000021C185C184FFF7FEFA10BD01680C31DD
:1026F00051E8002F22F4907241E80023002BF5D11D
:102700000168143151E8002F22F0010241E8002352
:10271000002BF5D1016B012909D101680C3151E879
:10272000002F22F0100241E80023002BF5D12021D8
:1027300080F83E1000210163704708B590F83E1004
:10274000222901D0022008BD82684FF480539A42AA
:1027500001D1016921B1816A9A421BD04AB10AE0D4
:102760000268816A5268C2F308020A80816A891C81
:1027700008E0026972B10268526802F07F020A70D2
:10278000816A491C8162C18D491E0904090CC185F9
:1027900003D019E002685268F1E70168CA6822F0C4
:1027A0002002CA600168CA6822F48072CA600168A7
:1027B0004A6922F001024A61202180F83E10016B33
:1027C000012903D0FFF754FC002008BD002101635C
:1027D00001680C3151E8002F22F0100241E800237B
:1027E000002BF5D101680A68D20602D50A6849684B
:1027F0000091818DFFF776FAE6E7000070B5044698
:1028000000680169E26821F44051114301612169C6
:10281000A068E26908436169114308432168CA68F6
:1028200049F20C639A430243CA6020684169A26975
:1028300021F440711143416131492068884202D03E
:102840003049884202D1FEF70BFF01E0FEF7F8FEA7
:10285000E2690023192164253226B2F5004F62682F
:1028600028D0A0FB0101930F9200FDF7B1FC0146B7
:10287000B0FBF5F06FF01802504301EB800006EB5F
:102880000010B0FBF5F000F0F002B1FBF5F002EB48
:102890000012B1FBF5F06FF01803584301EB800014
:1028A00006EB0010B0FBF5F000F00F0021681044BB
:1028B000886070BDA0FB010192185B41FDF788FCA8
:1028C0000146B0FBF5F00201B1FBF5F06FF0180323
:1028D000584301EB800006EBC000B0FBF5F000F0C0
:1028E000F80002EB4002B1FBF5F0584301EB800029
:1028F00006EBC000B0FBF5F000F00700D6E70000E3
:1029000000100140001401402DE9F041984617469F
:102910000E460446069D27E0681C25D02DB1FDF724
:102920007FFEA0EB0800A8421ED920680C3050E8BA
:10293000001F21F4D07140E80012002AF5D1206870
:10294000143050E8001F21F0010140E80012002A75
:10295000F5D1202084F83D0084F83E00002084F862
:102960003C000320BDE8F0812068006836EA0000E2
:1029700004D00020B842CFD00020F3E70120F9E7CF
:102980000148FFF7B1B9000078020020D0F8D42246
:10299000002100EB8200D0F8C00280F850100846F9
:1029A000704710B5D0F8D41200EB8102D2F8C00203
:1029B00038B1D2F8C42241780078D268904700201C
:1029C00010BD032010BD000070B51D4E04463178C7
:1029D00000F061FB3078002500F00F0000EB800074
:1029E00004EB80008584C5847178204600F053FB99
:1029F000707800F00F0000EB800004EB8000A0F87E
:102A00006451A0F86651D4F8D40204EB8000D0F8E9
:102A1000C01299B1D0F8C40280688047D4F8D402BB
:102A200004EB8000D0F8C00200F02FFFD4F8D402ED
:102A300004EB8000C0F8C052C4F8BC52002070BD46
:102A4000D000002010B5D0F8D41200EB8102D2F8EB
:102A5000C0421CB1E06C012802D009E0032010BD87
:102A6000D2F8C42261782078D26890470020E064D0
:102A7000002010BD0A210180004870470C01002091
:102A800070B5054681210A4800F095FA04460121F7
:102A9000074800F090FA022105220CB1A180A27132
:102AA00008B18180827129202880014870BD000012
:102AB000D400002070B5054681210A4800F07BFA59
:102AC00004460121074800F076FA022105220CB1E4
:102AD000A180A27108B181808271292028800148DB
:102AE00070BD0000D400002070B5054681210A4861
:102AF00000F061FA04460121074800F05CFA022167
:102B000005220CB1A180A27108B1818082712920B7
:102B10002880014870BD0000D40000202DE9F0415C
:102B20000446542000F0B2FE05004FF000084BD0E0
:102B3000D4F8D402284E04EB80000223C0F8C0521F
:102B4000C4F8BC523178052001F00F0101EB81017E
:102B500004EB81010322C884717801F00F0101EBBD
:102B6000810104EB8101A1F866013178204600F073
:102B7000B7FB3078012700F00F0000EB800004EB7A
:102B800080000223878403227178204600F0A8FB8E
:102B9000707800F00F0000EB800004EB8000A0F8DC
:102BA000647185F85080D4F8D40204EB8000D0F82A
:102BB000C4024068804740232A467178204600F0CE
:102BC0009BFB0020BDE8F081D4F8D412022004EB76
:102BD0008101C1F8C082F5E7D000002010B5D0F81F
:102BE000D41200EB8101D1F8C02232B10449402354
:102BF000497800F081FB002010BD032010BD0000CB
:102C0000D000002039B1D0F8D42200EB8200C0F807
:102C1000C41200207047032070470000F8B5D0F8B8
:102C2000D42200EB82060022D6F8C0321546ADF859
:102C30000020144633B10F7817F0600728D0202FFA
:102C400060D101E00320F8BD4A78921E0A2A59D2C9
:102C5000DFE802F010085858585858140C058878C6
:102C6000186452E0012203F140013CE04888000A68
:102C700058644AE0012203F1440134E00122DA649D
:102C8000CA88402A00D34022194600F06EF83CE082
:102C90004F78062F10D003DC3FB1012F32D134E042
:102CA0000A2F23D00B2F2DD128E090F89C22032A45
:102CB00028D10222694616E04B882227B7EB132F52
:102CC00007D1CA88212A00D92122D6F8C4120D685A
:102CD00008E02126B6EB132F04D1CA880D4D092A2E
:102CE00000D90922294600F05AF80EE090F89C22FB
:102CF000032A07D1012203F14801F4E790F89C224E
:102D0000032A04D000F026F803242046F8BD887872
:102D10009864FAE70001002010B5D0F8B82200242A
:102D20005268904700B10324204610BD0020704730
:102D300000207047134610B50A46002100F0DCFA67
:102D4000002010BD134610B50A46002100F079FBA3
:102D5000002010BD10B50446802100F057FB20462E
:102D6000BDE81040002100F051BB10B50323C0F8AE
:102D70009432C0F858211346C0F85C210A4600215D
:102D800000F0BAFA002010BD10B50521C0F8941269
:102D900000231A46194600F0AFFA002010BD10B506
:102DA0000223C0F8943282611346C2610A460021B0
:102DB00000F047FB002010BD10B50421C0F89412AC
:102DC00000231A46194600F03CFB002010BD00000D
:102DD00010B50A46024903A000F011F9004810BDE1
:102DE000400B0020437573746F6D204849442043A5
:102DF0006F6E666967000000122008800048704707
:102E00002000002010B50A46024903A000F0F7F8A0
:102E1000004810BD400B0020437573746F6D20484F
:102E2000494420496E746572666163650000000064
:102E300004200880004870471C00002010B50A4696
:102E4000024903A000F0DBF8004810BD400B002051
:102E500053544D6963726F656C656374726F6E690C
:102E60006373000010B50A46024903A000F0C7F8DA
:102E7000004810BD400B002053544D3332204375A1
:102E800073746F6D2048756D616E20696E74657224
:102E9000666163650000000010B51A2008800A48CA
:102EA0000168001D0468001D0068081809D0082288
:102EB0000649FFF73BF90549042210312046FFF788
:102EC00035F90248801E10BD107AFF1F3600002021
:102ED000F8B504460020ADF8000048880D46010A08
:102EE00008295FD2DFE801F05E0409175E5E3C4509
:102EF000D4F8B412207C0A6819E0207C022600284D
:102F0000D4F8B80205D0C16A6846884701464670C1
:102F100039E0816AF8E7C0B2062843D2DFE800F062
:102F2000030A1014181CD4F8B402426805E069467C
:102F300090471CE0D4F8B402826892B3207CF6E794
:102F4000D4F8B402C268F8E7D4F8B4020269F4E72E
:102F5000D4F8B4024269F0E7D4F8B4028269ECE72D
:102F6000207CF0B9D4F8B802416B68468847014626
:102F700009E0207CA8B9D4F8B802016B68468847FC
:102F8000014607204870EA888AB1BDF8000040B1C8
:102F9000824200D90246ADF800202046FFF7FFFE2E
:102FA000F8BDFFE729462046FFF7D4FEF8E72046A4
:102FB000FFF702FFF4E778B50E4642880178002556
:102FC00004468A4212D9ADF800100AE0694600F0C2
:102FD0000FF84178052904D181780546B14205D022
:102FE00000256188BDF800209142EFD8284678BDC1
:102FF0000A8803781A440A8001780844704770B53B
:10300000002300281ED00025044602E06D1CEDB20E
:10301000641C2678002EF9D1022404EB45041480A8
:103020001278CA545B1C0322CA5400245B1C06E0BD
:10303000CA545B1CDAB28C54521CD3B2401C0278C6
:10304000002AF5D170BD01004FF0000004D0012925
:1030500001D0022901D0032070470120704778B1C8
:103060000023C0F8B832C0F8C432C0F8D03209B179
:10307000C0F8B412012180F89C12027000F0C8B8A8
:103080000320704710B5D0F8C802FDF7D8FCBDE8A2
:103090001040FFF7D8BF10B5D0F8C802FDF7A9FC63
:1030A000BDE81040FFF7CFBF2DE9F04117460446B9
:1030B000002521B194F89C02032842D04CE0D4F8BA
:1030C000941204F11400022935D1D0E902639E4222
:1030D00006D9F21A826039462046FFF733FE0FE028
:1030E000B34214D14068984211D3D4F89812884260
:1030F0000DD2002211462046FFF724FEC4F8985254
:1031000000231A461946204600F0F6F813E094F81A
:103110009C02032808D1D4F8B802C16821B1C4F8D0
:10312000D452C168204688478021204600F06EF9BD
:103130002046FFF729FE94F8A00268B184F8A05257
:103140000AE0D4F8B802426932B1C4F8D4524269F4
:1031500020469047002800D10020BDE8F08170B5DE
:1031600013460446002221B194F89C02032830D073
:103170003AE0D4F8941204F5AA70032934D1D0E9C6
:1031800002518D420AD96A1A82600846824200D3EF
:10319000024619462046FFF7CDFD25E094F8AA0225
:1031A00010F01F0003D0012802D0022800D0002216
:1031B00094F89C02032808D1D4F8B802016921B11F
:1031C000C4F8D4220169204688472046FFF7F4FD61
:1031D0000AE0D4F8B802836933B1C4F8D422826912
:1031E00020469047002800D1002070BD0020704785
:1031F00010B50024012180F89C12D0F8B82222B129
:1032000052680179904700B10324204610BD0000A8
:1032100010B5017839BB15490222C1F80805C0F87C
:10322000C8124FF0A0400860042048600020C1E9A7
:103230000320C1E9062008624862C86208630846A4
:10324000FDF792FF08B1FDF786F880210748FDF7EA
:1032500080FB402200210548FDF77FFB80220121F1
:103260000248FDF77AFB002010BD00003406002064
:103270000A0601F07F01D0F8C80201EBC10100EBA2
:10328000810002D590F83E00704790F87E027047AA
:1032900010B5D0F8D42200EB8202D2F8B82222B1C5
:1032A00090F89C32032B02D004E0032010BD126A78
:1032B00002B19047002010BD10B5D0F8D42200EB29
:1032C0008202D2F8B82222B190F89C32032B02D0AD
:1032D00004E0032010BD526A02B19047002010BDE7
:1032E00010B51C461346D0F8C8022246FDF7D5FBA0
:1032F000BDE81040FFF7A7BE10B5D0F8C802FDF733
:10330000FCFBBDE81040FFF79EBE2DE9F041002612
:103310000125044680F89C52C4F894626660C4F8A3
:10332000A46280F8A062D0F8B80230B1426822B13D
:1033300000212046904700B1032600224023114679
:103340002046FFF7CDFF4027A4F864513B460022FA
:1033500080212046C4F86071FFF7C2FFA584304683
:103360002762BDE8F08190F89C12042903D190F8FF
:103370009D1280F89C120020704710B590F89C12A6
:10338000032905D1D0F8B81211B1C96901B1884734
:10339000002010BD01740020704710B5D0F8C8029D
:1033A000FDF7B1FFBDE81040FFF74DBE70B5044614
:1033B00000F2AA20054600F04DF80120C4F894025E
:1033C000B4F8B002C4F8980294F8AA0210F01F01F1
:1033D0000AD001290ED0022912D000F08001204627
:1033E000BDE8704000F012B829462046BDE87040A4
:1033F00000F0CCB829462046BDE8704000F00CBA79
:1034000029462046BDE8704000F056B910B5D0F806
:10341000C802FDF796FBBDE81040FFF714BE10B5DB
:10342000D0F8C802FDF78AFFBDE81040FFF70BBED9
:1034300090F89C1280F89D12042180F89C120020C4
:10344000704710B5D0F8C802FDF7B5FBBDE81040D5
:10345000FFF7F9BD70B5054611F8010B2870087823
:1034600068704C1C2046FFF7DBF86880A41C2046DF
:10347000FFF7D6F8A880A01CFFF7D2F8E88070BD4F
:1034800038B504460020ADF80000A1B1C4F8B81268
:10349000D4F8D40204EB8000D0F8B802C16A19B1A4
:1034A00068468847C4F8D002D4F8D802401CC4F853
:1034B000D802002038BD032038BD02460020D2F8D3
:1034C000B832002B02D01B68104618477047000026
:1034D0002DE9F04188462B4E89780025044631704D
:1034E000012906D941462046FFF734FC0320BDE8F8
:1034F000F08194F89C02022702280CD003281DD0EA
:1035000041462046FFF726FC31782046FFF704FCB1
:1035100003252846EBE789B320466160FFF7CDFF1E
:10352000050004D041462046FFF714FC1DE020466C
:10353000FFF742FC032084F89C02EAE7C1B160680F
:1035400088421BD0C1B22046FFF7E6FB3178204607
:103550006160FFF7B2FF050010D041462046FFF73B
:10356000F9FB21792046FFF7D7FB84F89C72D0E75E
:1035700084F89C7220466160FFF7CEFB2046FFF77F
:103580001BFCC6E794000020FFF749BF2DE9F0417E
:103590000A78002512F060020CD0202A01D0402ABF
:1035A0007DD1D0F8D42200EB8202D2F8B822926802
:1035B000904731E04B78002201260A2B6FD2DFE8DA
:1035C00003F041666E586E08056E2D29FFF780FCEA
:1035D00067E004468888D8B9C888C8B94888802870
:1035E00016D200F07F0794F89C02032810D084F8CC
:1035F0009E7239462046FFF7D0FE2046FFF7DCFBDF
:103600001FB1022084F89C024BE084F89C6248E0E1
:10361000204644E0FFF75CFF054642E0CB88012BE3
:103620003DD190F89C32012B04D0022B02D0032B09
:1036300035D104E08260012200F1080116E0012288
:10364000011D13E090F89C22012A03D0022A01D028
:10365000032A24D1CA88022A21D1C660D0F8A41234
:1036600009B10321C160022200F10C01FFF797FBB1
:1036700017E04A88012A02D0022A03D00FE0C0F8DE
:10368000A46216E08988090A80F8A01211E090F877
:103690009C32012B08D0022B06D0032B04D0FFF75D
:1036A00059FB2846BDE8F08149880129F9D1C0F8C5
:1036B000A422FFF781FBF4E72DE9F04105460878E5
:1036C0000C790E464FF0000810F060000BD0202857
:1036D00001D040286AD121462846FFF727FBFF2862
:1036E00000D0D8B395E07078C8B3012824D003285F
:1036F0005CD195F89C02022802D0032856D10CE038
:10370000002C53D0802C51D021462846FFF77EFE56
:1037100080212846FFF77AFE7BE0708840B93CB1F3
:10372000802C05D0C88818B921462846FFF76EFEC0
:103730002846FFF741FB6CE095F89C020228DFD099
:10374000032863D1708880BB600603D021462846D9
:10375000FFF798FC2846FFF72FFBBCE700E00AE0E4
:10376000C5F8D402D5F8B8028268F2B131462846CD
:10377000904780464DE095F89C020027022802D031
:10378000032843D113E00CB1802C3FD1200604F074
:103790007F0000EB800005EB800101D5143101E0D2
:1037A00001F5AA7102220F602CE032E02EE0200623
:1037B00004F00F0000EB800005EB800009D5808C41
:1037C00020B304F07F0000EB800005EB8006143688
:1037D0000AE0B0F86401C8B104F07F0000EB80009B
:1037E00005EB800606F5AA764CB1802C07D0214661
:1037F0002846FFF73DFD10B10120306000E0376042
:10380000022231462846FFF7CAFA02E02846FFF7AF
:10381000A1FA4046BDE8F08170B50546087800245D
:103820000E4610F0600003D0202801D0402827D198
:1038300095F89C02012803D0022801D003281FD14B
:10384000B088C1B201291AD8C1B22846FFF770FA70
:10385000FF280CD058B9D5F8B8128A683AB1C5F823
:10386000D4028A68314628469047044600E0032483
:10387000F088204307D12846FFF79EFA03E031463F
:103880002846FFF767FA204670BD7047004870472A
:10389000DC05002070B50A78012302F00F054E7890
:1038A000AB401B4CD0F81C58012E17D045EA0343FF
:1038B000C0F81C3800EB4210D0F8002B12040BD4D7
:1038C000D0F8002B8B890979C3F30A031A4344EA21
:1038D00081410A43C0F8002B002070BD9BB21D43FC
:1038E000C0F81C5800EB4210D0F800391B04F3D488
:1038F000D0F800398D890979C5F30A0589042B436D
:1039000041EA82510B432343C0F80039E4E7000049
:1039100000800010D0F800196FF30A01C0F80019F8
:10392000D0F8041841F48071C0F8041800207047E2
:1039300070B5044606990A9E049D0D98012916D07B
:10394000E06840F04000E060204600F02BF8A16BFA
:103950001EB321F48031A163012D07D1A16841F08C
:103960000601A160A16841F02001A16070BDA16BBA
:1039700021F48031A163E168094A1140E160E16806
:1039800021F44011E160012803D1E06840F4801087
:10399000E060204600F006F8DEE741F48031DAE727
:1039A000BFFFBDFF08B500220D490092009B5B1CC4
:1039B00000938B420CD80369002BF7DA009202695E
:1039C00042F001020261009A521C00928A4201D91F
:1039D000032008BD0269D207F5D1002008BD000010
:1039E000400D030030B54C780A78012300EB4212F9
:1039F000012C2CD0D2F8004B002C0BDAD2F8004B63
:103A000044F00064C2F8004BD2F8004B44F080440C
:103A1000C2F8004BD0F83C580C7804F00F0403FABD
:103A200004F425EA0444C0F83C48D0F81C4809785E
:103A300001F00F018B4024EA0341C0F81C18D2F8B2
:103A4000000B19490840C2F8000B002030BDD2F825
:103A50000049002C0BDAD2F8004944F00064C2F8A7
:103A60000049D2F8004944F08044C2F80049D0F837
:103A70003C480D7805F00F0503FA05F5ADB2AC43EF
:103A8000C0F83C48D0F81C48097801F00F018B4081
:103A900099B28C43C0F81C48D2F800090349084089
:103AA000C2F80009D1E700000078F3EF007833ECAA
:103AB000D0F8001E21F00301C0F8001ED0F8041851
:103AC00021F00201C0F8041800207047D0F8001E51
:103AD00021F00301C0F8001ED0F8041841F00201E3
:103AE000C0F80418002070472DE9F04F00250E465D
:103AF0000446DDF82CC0DDF824B0109F2846294686
:103B000004EB8002C2F80411401C0F28F8D32046B1
:103B1000C7B1806B20F40012A263A06B40F40022B6
:103B2000A26308468846C4F8000ED4F80018204660
:103B3000C4F80018BCF1010F16D0D0F8001841F0FD
:103B4000030116E0D0F8040840F00202C4F804288B
:103B5000A06B40F40012A263A06B20F40022A263C9
:103B6000A06B20F48022DBE7D0F800180BB141F005
:103B70000101C0F80018102100F0EEFA00B1012593
:103B8000204600F0CBFA00B101254046C4F8108869
:103B9000C4F81488C4F81C8800214FF000694FF065
:103BA000904A4FF67F3314E004EB4112D2F800C97B
:103BB000BCF1000F06DA11B1C2F800A904E0C4F8A4
:103BC000009901E0C2F80009C2F81009C2F80839EA
:103BD000491C8E42E8D8002115E000BF04EB4112D9
:103BE000D2F800CBBCF1000F06DA11B1C2F800AB7D
:103BF00004E0C4F8009B01E0C2F8000BC2F8100B0F
:103C0000C2F8083B491C8E42E8D8D4F8101821F4B9
:103C10008072C4F81028A0616FF080406061BBF131
:103C2000000F03D1A06940F01000A061A06909490C
:103C30000843A0610C9818B1A06940F00800A06189
:103C4000012F03D1A06904490843A0612846BDE8BB
:103C5000F08F000000383C8004000040816821F0B3
:103C6000010181600020704770B50D784E78444C9A
:103C7000EBB200EB4313012E21D0D3F8100B6FF3FE
:103C80001200C3F8100BD3F8100B2040C3F8100B30
:103C9000886908B1C8688861C868C861D3F8100B22
:103CA00040F40020C3F8100BD3F8100BCC69C4F318
:103CB00012042043C3F8100B012A55D058E08E6936
:103CC000002ED3F8106932D06FF31206C3F81069D2
:103CD000D3F810692640C3F810698E69CC68A642F3
:103CE00000D98C61D3F8104944F40024C3F810497A
:103CF000D3F810498E69C6F312063443C3F810494D
:103D0000012A22D000EB4512D2F8003943F00443D7
:103D1000C2F800398A6932B3D0F83428097801F042
:103D20000F03012199400A43C0F8342826E02640B9
:103D3000C3F81069D3F8104944F40024C3F81049BB
:103D4000D3F810496FF31204D8E7496919B100EBB1
:103D50004512C2F8141900EB4510D0F8001941F0D3
:103D60000441C0F8001909E0086908B1C3F8140B50
:103D7000D3F8000B40F00440C3F8000B002070BDE6
:103D8000FFFF07E010B5036C134CA34203D9D0F832
:103D9000003B002B1EDB0023C0F8103BD0F8103B8B
:103DA00043F40023C0F8103BD0F8103B43F0180355
:103DB000C0F8103BD0F8103B43F0C043C0F8103BB4
:103DC000012907D1C0F8142BD0F8001B41F0802145
:103DD000C0F8001B002010BD0A30544F4A780B7801
:103DE000012A00EB43100BD0D0F8002B22F4001274
:103DF000C0F8002B0979032914D0022912D017E04A
:103E0000D0F8002922F40012C0F80029097903290A
:103E100001D002290CD1D0F8001941F08051C0F82E
:103E2000001905E0D0F8001B41F08051C0F8001BDC
:103E3000002070470A784B78D1B200EB4110012B7B
:103E400012D0D0F8001B002906DB2AB1D0F8001BE5
:103E500021F08041C0F8001BD0F8001B41F4001194
:103E6000C0F8001B00207047D0F80019002906DBBD
:103E70002AB1D0F8001921F08041C0F80019D0F81B
:103E8000001941F40011C0F80019EBE7F8B50C78FF
:103E90004F78764DE3B26FF0604600EB4313012F8D
:103EA00027D0D3F8104B6FF31204C3F8104BD3F89C
:103EB000104B2C40C3F8104B8D69002D75D0CC6889
:103EC00025446D1EB5FBF4F5ADB26C43CC61D3F85F
:103ED000104B06EAC5452C43C3F8104BD3F8104BE2
:103EE000CD69C5F312052C43C3F8104B012A71D0DC
:103EF000A4E08F691FB3D3F810796FF31207C3F8EA
:103F00001079D3F810792F40C3F810798F69CD68F4
:103F10002F447F1EB7FBF5F506EAC545D3F81069B7
:103F20003543C3F81059D3F810598E69C6F31206F9
:103F30003543C3F810590D79012D10D01BE0D3F88B
:103F400010692E40C3F81069D3F8105945F40025C4
:103F5000C3F81059D3F810596FF3120509E0D3F8DC
:103F6000105925F0C045C3F81059D3F8105945F041
:103F70000055C3F81059012A18D000EB4413D3F8A8
:103F8000004944F00444C3F800490C79012C2FD0B7
:103F90008A6962B3D0F83428097801F00F0301214F
:103FA00099400A43C0F834285EE036E04A691AB105
:103FB00000EB4413C3F81429097901290FD1D0F873
:103FC0000818C90500EB4411D1F8002903D442F0C8
:103FD000005202E02EE042F08052C1F8002900EBCE
:103FE0004410D0F8001941F00441C0F800193BE03A
:103FF000D0F80848E405D3F8004902D444F000544E
:1040000001E044F08054C3F8004900920A8B93B257
:104010000A78096900F0D0F926E0D3F8104BCD6892
:10402000C5F312052C43C3F8104BD3F8104B44F4DE
:10403000002459E70A690AB1C3F8142B0979012948
:104040000CD1D0F80808C005D3F8000B02D440F01A
:10405000005001E040F08050C3F8000BD3F8000B93
:1040600040F00440C3F8000B0020F8BDFFFF07E05C
:1040700038B50022009213464D780A7842F2107447
:1040800000EB4212012D19D0D2F8005B002D3CDA72
:10409000D2F8005B45F00065C2F8005B0A7800EBDF
:1040A0004212D2F8005B45F08045C2F8005B009AEE
:1040B000521C0092A24221D9012326E0D2F80059D5
:1040C000002D22DAD2F8005945F00065C2F80059F7
:1040D0000A7800EB4212D2F8005945F08045C2F848
:1040E0000059009A521C0092A242E5D80A7800EBCF
:1040F0004212D2F80029002AF3DB06E00A7800EB2E
:104100004212D2F8002B002AD1DB184638BD816854
:1041100041F00101816000207047000008B50022D5
:104120000C490092009B5B1C00938B420AD80369E8
:10413000002BF7DA009210220261009A521C0092C2
:104140008A4201D9032008BD0269D206F5D40020B5
:1041500008BD0000400D030018B500230D4A009370
:10416000009C641C009494420CD80469002CF7DA7B
:104170000093202343EA811101610099491C0091B9
:10418000914201D9032018BD01698906F5D40020A8
:1041900018BD0000400D0300D0F8080810F006001C
:1041A00004D0022803D0062801D00F207047022037
:1041B0007047406900F001007047D0F81818D0F837
:1041C0001C08084080B27047D0F81818D0F81C08B6
:1041D0000840000C704710B5D0F81038D0F83428DB
:1041E00001F00F0400EB4110E24002F00102D0F8B0
:1041F000080943EAC212104010BD00EB4111D1F88A
:10420000081BD0F8140808407047416980690840CD
:10421000704730B503460846940802F003010022B7
:1042200003F5805303E01D6840F8045B521CA24272
:10423000F9D300290BD01C680022D50024FA05F31D
:10424000491E521C090400F8013B090CF5D130BD90
:1042500070B50446C068002520F0C040E060012928
:1042600001D079B120E0E06840F00050E06001202A
:10427000FCF7CEF860696D1C10F0010F10D1322DE3
:10428000F5D30DE0E06840F08040E0600120FCF7ED
:10429000BFF860696D1C10F0010F01D0322DF5D30D
:1042A000322D01D0002070BD012070BDD0F8002853
:1042B00022F4FE62C0F80028D0F800284FF4FE6314
:1042C00003EA01110A43C0F80028002070470000EB
:1042D000022A3ED1264A274B0A449A4201D20F2194
:1042E00038E0254A254B0A449A4201D20E2131E09A
:1042F000234A244B0A449A4201D20D212AE0224A41
:10430000224B0A449A4201D20C2123E0204A214B3D
:104310000A449A4201D20B211CE01F4A1F4B0A4457
:104320009A4201D20A2115E01D4A1E4B0A449A42C4
:104330000FD31D4A1D4B0A449A4201D2082109E0BD
:104340001B4A11441B4A914201D2072102E0062177
:1043500000E00921C26822F47052C260C2684FF4C2
:10436000705303EA81210A43C260002070470000B5
:10437000405327FF00350C00401E1BFF40420F003A
:1043800000DC0BFF804F1200808CF9FE20D613005A
:1043900060B6E5FE60E3160000D3CEFE40771B005A
:1043A000C05BB3FEC091210000CA91FE20753800A9
:1043B000E05459FEE09C410010B5029C74B9DB1C2E
:1043C0009C0800EB0230002300F5805004E000BFA1
:1043D00051F8042B02605B1CA342F9D3002010BDEE
:1043E000FEE700000FB4054B10B503A9044A02987C
:1043F00000F07EF810BC5DF814FB0000F9560008D0
:10440000480100200907090E002804DB00F1E02024
:1044100080F80014704700F00F0000F1E02080F8F1
:10442000141D704730B528B1144C031F00202168BB
:104430000A4605E0084630BD9A4203D81046526845
:10444000002AF9D1002800D041680BD00468A3EB02
:104450000005A54204D11B681C440346046002E029
:10446000436000E023603AB11C68D51AA54203D12D
:1044700015682C441C6052685A6030BD4C01002005
:104480002DE9F04782460F4C10480D4E0E4F001B91
:104490004FF0000820F007054FF0010900221146F7
:1044A000504601F02FFE002802D1306810B10020E4
:1044B000BDE8F0873C60C4E90058C6F80090EDE71D
:1044C00050010020940B00204C010020904B002054
:1044D00002E008C8121F08C1002AFAD170477047CD
:1044E000002001E001C1121F002AFBD1704700002B
:1044F0002DE9FF4F8DB00F460546002606E0252822
:104500000BD0DDE90F1290476D1C761C287800282F
:10451000F5D111B03046BDE8F08F0024A246A14687
:104520000122E94900E0044315F8013F203B02FA6B
:1045300003F00842F7D128782A2810D06FF02F0214
:104540002878A0F13001092914D80AEB8A0102EB7E
:10455000410144F0020400EB010A6D1CF0E701CFB9
:104560005FEA000A03D544F40054CAF1000A44F09B
:1045700002046D1C28782E2817D115F8010F44F07D
:1045800004042A280ED06FF02F022878A0F1300101
:1045900009290AD809EB890102EB410100EB010965
:1045A0006D1CF2E757F8049B6D1C28786C280FD01F
:1045B00006DC4C2817D068280DD06A2814D104E0F6
:1045C000742810D07A280FD10DE044F400140AE0CA
:1045D00044F4801401E044F440146978814202D12B
:1045E00004F580146D1C6D1C28786E281ED00CDC20
:1045F000632830D004DC00288BD0582811D19FE0EC
:10460000642867D069280CD164E073282DD004DCBD
:104610006F2872D0702804D194E075286ED0782865
:104620006DD0DDE90F129047761C4BE1C4F30250C8
:10463000022806D0032809D0042801CF09D006603B
:1046400040E101CFF117C0E900613BE101CF0680F5
:1046500038E1067036E117F8040B8DF800000020F1
:104660008DF80100EB46012003E057F804BB4FF042
:10467000FF3061074FF0000102D40DE008F10101A5
:10468000884649450FDA8045F8DB1BF808100029F9
:10469000F4D108E008F1010188468142FADB1BF8F9
:1046A00008100029F6D1DDE90F23AAEB08008146A6
:1046B000214600F031F9304400EB080604E0DDE962
:1046C0000F121BF8010B9047B8F10108F7D22146F1
:1046D0004846F2E00A21C4F302524FF0000B089161
:1046E000022A04D001CFC117032A09D00AE0FF1D16
:1046F00027F00707F7E8020108E02CE01EE01FE0C2
:1047000000B2C117042A01D140B2C117021E71F1D3
:10471000000206DA0023D0EB030063EB01012D2237
:1047200002E0220504D52B228DF82420012203E08B
:10473000E20701D02022F7E7904653E00A210BE080
:10474000102109E010214FF0000B44F004044FF059
:104750000809089103E008214FF0000B0891C4F309
:104760000252022A04D001CF0021032A06D006E01B
:10477000FF1D27F00707F7E8020103E080B2042AD3
:1047800000D1C0B24FF0000822072BD52A78702A3A
:1047900007D0DDF820C08CF0100C5CEA0B0C05D0C3
:1047A0000EE040228DF82420012208E050EA0103A7
:1047B00006D030238DF824308DF825200222904633
:1047C000089B83F0080353EA0B030BD150EA010264
:1047D00001D1620706D530228DF824204FF0010860
:1047E000A9F101092A78582A04D038A20B9208AA04
:1047F0000A920BE03AA2F9E75B46089AFBF7E8FC5D
:104800000B9B9B5C0A9A521E0A92137050EA01029B
:10481000F2D10A98ADEB000000F1200B600702D541
:1048200024F4803401E04FF00109D94502DDA9EB01
:104830000B0000E0002000EB0B0141440890AAEBC4
:10484000010AE00306D4DDE90F232146504600F0BB
:1048500063F806444FF0000908E009A911F80900BF
:10486000DDE90F12904709F10109761CC145F4DB1F
:10487000E0030CD5DDE90F232146504600F04CF84B
:10488000064404E0DDE90F1230209047761C0899B9
:10489000481E08900029F5DC08E00A980A9900787B
:1048A000491C0A91DDE90F129047761CBBF100010B
:1048B000ABF1010BF1DC21465046DDE90F2300F09E
:1048C00019F806446D1C21E6092801003031323305
:1048D000343536373839616263646566000000003C
:1048E0003031323334353637383941424344454626
:1048F000000000002DE9F041044600251E46174641
:10490000880404D405E039462020B0476D1C641E9D
:10491000F9D52846BDE8F0812DE9F041044600258F
:104920001E469046C80301D5302700E020278804A2
:1049300004D505E041463846B0476D1C641EF9D5E4
:104940002846BDE8F08100007CB500258DF80050B8
:104950008DF8045040F27B12324933A0FFF742FD3C
:10496000394C6946206904F0B3FD18B99DF8000080
:10497000032813D001202A46294660F30F2260F352
:10498000070260F30701206904F03EFE050007D02E
:1049900003464FF4C47223492CA00DE000207CBDD7
:1049A000D4E90402617800F0D1F8050007D003468D
:1049B0004FF4C7721B4932A0FFF714FD2FE02069A6
:1049C00004F0CEFD050005D003464FF4CA72154928
:1049D00036A0F1E7A169A06804F085FC050012D0BB
:1049E00003464FF4CD720F493BA0E5E701A92069CA
:1049F00004F068FD050008D00346324609493FA08F
:104A0000FFF7F0FC01E04FF4D0769DF80400022897
:104A1000ECD14FF4D272034942A0FFF7E3FC2846E1
:104A20007CBD0000C59D00084C4F473A205B2573B4
:104A30002D25645D53746172742041332070726F50
:104A4000636573730D0A0000240100204552524C27
:104A50004F473A205B25732D25645D4133207365F4
:104A60007420696E70757420706172616D65746513
:104A700072206661696C2C2025640D0A000000001C
:104A80004552524C4F473A205B25732D25645D6D8E
:104A90006F64756C61746F722073657474696E678E
:104AA000206661696C2C2025640D0A004552524C29
:104AB0004F473A205B25732D25645D7472616E73D8
:104AC000666F726D207374617274206661696C2CFC
:104AD0002025640D0A0000004552524C4F473A20F1
:104AE0005B25732D25645D524620737461727420BA
:104AF0006661696C2C2025640D0A00004552524CF9
:104B00004F473A205B25732D25645D67657420410E
:104B10003320737461747573206661696C2C202571
:104B2000640D0A004C4F473A205B25732D25645DC8
:104B300041332070726F636573732072756E2073DA
:104B40007563636573730D0A000000002DE9F04F73
:104B50009446012500228BB007462C464FF00308EF
:104B6000032913D04FF00409042915D00226022985
:104B70001BD04FF0070B072926D001292AD0052981
:104B800036D0062947D008296BD05FE0114664F380
:104B90000F2168F3070104E0114664F30F2169F364
:104BA000070102928DF8084047E041F6DB2002AB96
:104BB000CDE90003114664F30F21029266F3070169
:104BC0008DF8088013463CE0114664F30F216BF327
:104BD0000701E6E7029211468DF80B9064F30F216E
:104BE0008DF80A6064F3070140468DF809800FE0F4
:104BF000029211468DF80B4064F30F2105200392B9
:104C00008DF80A6060F307018DF80C608DF809607B
:104C10008DF8080011E002928DF80B8011468DF896
:104C2000094064F30F21062003928DF80A6060F3B7
:104C300007018DF80C608DF8089002A8CDE900C03E
:104C40001346384604F07FFC050007D02B4640F29F
:104C5000ED12244924A0FFF7C5FB28460BB0BDE8A0
:104C6000F08F104664F30F20082161F3070082469D
:104C70001546242102A8FBF7F5FA07958DF809409F
:104C80008DF80B8005958DF80A5005208DF825408C
:104C90008DF829508DF808008DF80EB08DF827504A
:104CA00006958DF8285002A88DF824508DF80D90A7
:104CB000CDE900508DF811408DF80F608DF8264039
:104CC0008DF80C908DF810B008952B462A46514669
:104CD000384604F038FC0500C0D0014611A0FFF7AB
:104CE00081FBBAE7D09D000873656C662073616D27
:104CF000706C6520203A20206572726F72205B25EF
:104D0000732D25645D6D6F64756C61746F722063C3
:104D1000686F6F7365206572726F722025640D0A6B
:104D2000000000006476627432207365742066614E
:104D3000696C2025640D0A002DE9F04115460A46EC
:104D40004FF4C06607460024314603F0EDFF00280B
:104D500012D1642004F046FB2A463146384603F05F
:104D600025FF002808D1286818B1641C322CF0D324
:104D700001E0322C02D30320BDE8F0812A46232132
:104D8000384603F013FF0028F6D129680029F3D034
:104D90000A20F1E770B5030014464FF001000DD072
:104DA00064B10A464FF410610B2A32D2DFE802F0F8
:104DB00031080B0E1215181B21242B00022070BD88
:104DC0002246242111E0224625210EE042F2031161
:104DD00021601EE02246262107E02246272104E02A
:104DE0002246282101E022462921184603F0DEFE52
:104DF0000DE04FF0805207E022464FF4C0611846A4
:104E000003F006FF03E01122184603F08DFF00288F
:104E1000D5D04FF0FF31216070BD000038B50C4691
:104E200000210091B8B1B4B121706A4640F224610A
:104E300003F0BCFE00280FD11C4B009AD11A9A42F5
:104E40002FD00ADC01F10601062916D2DFE801F0B5
:104E50001D1F21232527022038BD012A0FD008DC81
:104E6000134951181FD0114A521CD14205D10121BA
:104E70001AE0022A05D0032A05D00B2114E00221F2
:104E800012E0032110E004210EE00C210CE00D21C2
:104E90000AE00E2108E00F2106E0102104E01121B4
:104EA00002E0122100E01321217038BD07000080CC
:104EB000F8FFFF7FF8B506004FF0000413D004F0B0
:104EC00093FA02461AA11BA0FFF78CFA304603F0B2
:104ED00003FF002808D104F087FA024614A11EA09F
:104EE000FFF780FA05E00220F8BD642004F07AFAAA
:104EF000641C304603F005FE050002D0322CF4D9C4
:104F000001E0322C0AD304F06FFA024670200090C0
:104F10001B4B07A11BA0FFF765FA032504F064FAF9
:104F2000024603A123A0FFF75DFA2846F8BD000062
:104F3000626300005B252D3873203A202530386CE1
:104F4000785D203A20656E636F64657220726573C8
:104F500065740D0A000000005B252D3873203A208F
:104F60002530386C785D203A2077616974696E6706
:104F700020636869702072656164790D0A00000021
:104F80007C9800085B252D3873203A202530386C3A
:104F9000785D203A206572726F72205B25732D2533
:104FA000645D72657365742074696D656F75740DE9
:104FB0000A0000005B252D3873203A202530386C1C
:104FC000785D203A20636869702072656164790DAC
:104FD0000A000000FEB507460020087001250C46B7
:104FE000009501AB4FF48372E021386800F0F6FEC3
:104FF00006002AD1022020709DF80400C10623D5A6
:10500000000623D525709DF80400400614D5032022
:105010002070009502AB40F20512E021386800F0E4
:10502000DDFE060011D19DF8080001070CD54007F0
:105030000AD50420207007E004F0D6F9024606A144
:1050400006A000BFFFF7CEF93046FEBD04F0CCF954
:10505000024601A10DA0F5E7683100005B252D385F
:1050600073203A202530386C785D203A206C696EC8
:105070006B6564206F6E2062757420646520696EB4
:105080007661696C65642E0D0A0000005B252D3881
:1050900073203A202530386C785D203A206E6F20DE
:1050A0006C696E6B2E0D0A0030B4104B0246104D29
:1050B0005C6801204FF44073AC4206D311B1106814
:1050C00040220EE0106810220BE0012904D031B11B
:1050D0000229F7D030BC70471068002201E0106848
:1050E000D02230BC194600F0B0BE000018010020EC
:1050F000000111002DE9FC478246C8B29146042800
:1051000009D904F071F902464FF4C6700090334B90
:1051100033A135A00CE0C1F30726062E0DD904F00B
:1051200063F902464FF4C97000902C4B2CA13BA0B0
:10513000FFF758F90920BDE8FC8700240125022764
:105140004FF00308019401280CD0022804D0032852
:1051500004D0042806D103E0019503E0019701E0A3
:10516000CDF8048040F246615046019A03F0DCFD20
:105170000028E0D1072E07D2DFE806F00604060873
:105180000A0D0F0001940AE0019508E0019706E07E
:10519000CDF8048003E0042000E00520019040F2F7
:1051A00047615046019A03F0BFFD0028C3D1019426
:1051B00040F2416401AA2146504603F0F7FC002862
:1051C000B9D1B9F1000F03D0019840F400700190FB
:1051D00021465046019A03F0A7FDACE7329900083A
:1051E000656E636F646572005B252D3873203A200D
:1051F0002530386C785D203A206572726F72205BC2
:1052000025732D25645D61652074797065206F7646
:10521000657272616E67650D0A0000005B252D38AE
:1052200073203A202530386C785D203A2065727200
:105230006F72205B25732D25645D61652063686155
:105240006E6E656C206F76657272616E67650D0AB1
:105250000000000008B5C9B203290CD904F0C4F855
:1052600002464FF4837000900B4B0CA10DA0FFF78A
:10527000B9F8092008BD0022012903D0022908D06D
:10528000032900D00222BDE808404FF4C96103F0B1
:105290004BBD0122F7E70000EE980008656E636FD2
:1052A000646572005B252D3873203A202530386CF8
:1052B000785D203A206572726F72205B25732D2510
:1052C000645D61692073616D706C657261746520E5
:1052D0006F76657272616E67650D0A002DE9F8439D
:1052E000814608A8154690E8C001C8B21C460128AE
:1052F0000DD904F079F802464FF4FB7000901C4B76
:105300001CA11EA0FFF76EF80920BDE8F88301225A
:105310004FF4CA61484603F007FD0028F5D1324634
:1053200040F25161484603F0FFFC0028EDD12A46C7
:1053300040F25261484603F0F7FC0028E5D12246CE
:1053400040F25361484603F0EFFC0028DDD14246AD
:1053500040F25461484603F0E7FC0028D5D13A46B4
:105360004846BDE8F84340F2556103F0DDBC00005B
:1053700048990008656E636F646572005B252D387F
:1053800073203A202530386C785D203A206572729F
:105390006F72205B25732D25645D7175616C697476
:1053A000792072636D6F6465206F76657272616ECD
:1053B00067650D0A000000007CB50646C8B21446B9
:1053C00002280CD904F010F8024640F25510009063
:1053D000174B184918A0FFF705F809207CBD0025D8
:1053E0000195012803D0022801D10120019040F24B
:1053F00042613046019A03F097FC0028EED10195F6
:1054000040F2416501AA2946304603F0CFFB00284F
:10541000E4D129463046019A03F086FC0028DDD10C
:10542000224640F21261304603F07EFC7CBD000053
:105430001C9900089C5200085B252D3873203A20E7
:105440002530386C785D203A206572726F72205B6F
:1054500025732D25645D76652074797065206F76DF
:10546000657272616E67650D0A0000000FB42DE968
:10547000F84FCAB2DDE90E79F8B25FEA000A0AD045
:10548000172A0FD903F0B0FF02461B200090794B7A
:1054900079A17BA013E0172A04D903F0A5FF0246E7
:1054A0001320F3E7C1F30720009002280ED903F080
:1054B0009BFF0246222000906E4B6FA17EA0FEF75C
:1054C00091FF0920BDE8F80F5DF814FB0026884B1A
:1054D000DFF820C258103546344646F6781B43F2B2
:1054E000BC41182A50D2DFE802F04C4C0C11144F8A
:1054F000171B1E202226282B2E31373B34433E41DA
:10550000464906267A4C3546953C3DE0062605255B
:1055100039E00626042501E006260225044633E08C
:1055200006260125FAE7062603E0052606E00526FD
:1055300007E0644628E0052606E004260725EDE797
:1055400004260625F5E704260525E7E703260525B5
:1055500004E00226052507E0012607255C4613E046
:1055600001260625FAE707250C460DE00625FBE790
:1055700003260225F8E701260425F5E70126032581
:10558000F2E7062607251C46BAF1000F00D1640099
:10559000032240F202610A9803F0C6FB002891D171
:1055A0004FEA19624FF4C8610A9803F0BDFB002866
:1055B00088D1324640F243610A9803F0B5FB0028D7
:1055C00080D12A4640F244610A9803F0ADFB0028DE
:1055D000E5D1224640F261610A9803F0A5FB00285C
:1055E000DDD100980022012801D0022800D001223C
:1055F00040F245610A9803F097FB0028CFD10022C2
:10560000BAF1000F00D01022C7F3072008B142F012
:105610004002C7F3074008B142F40072380E01D0CF
:1056200042F4806219F0FF0F01D042F48052C9F3B6
:10563000072008B142F00052C9F3074008B142F018
:1056400080524FF4CC610A9803F06EFB0028A6D17B
:1056500040F262610C9A0A9803F066FB00289ED122
:105660000D9A0A98BDE8F80F40F263615DF814EBFB
:1056700003F05ABBD8980008656E636F64657200CA
:105680005B252D3873203A202530386C785D203A20
:10569000206572726F72205B25732D25645D7669BB
:1056A000207265736F6C7574696F6E206F766572AA
:1056B00072616E67650D0A005B252D3873203A20F4
:1056C0002530386C785D203A206572726F72205BED
:1056D00025732D25645D766920617370656374722E
:1056E000617465206F76657272616E67650D0A0080
:1056F00014440200C021010013B54FF6FF730122CC
:1057000069460248FCF7B6FC00981CBD78020020F0
:105710002DE9FC41074600208DF80400012601AB6D
:1057200040F60272E0213846009600F057FB164C16
:10573000050022D19DF80400606001AB40F60172C3
:10574000E0213846009600F049FB050015D19DF890
:105750000410606801AB40EA012060604FF47062A1
:10576000E0213846009600F039FB050005D19DF890
:105770000410606840EA0140606004A06168FEF7C0
:1057800031FE2846BDE8FC811801002068315F72B7
:105790006576203D20307825780D0A0080B3817829
:1057A000092930D00A292ED00B292CD001292AD042
:1057B000022928D0032926D0042924D0062922D062
:1057C000072920D008291ED04FF434720C292BD081
:1057D0000D2929D00E2927D0122929D00F2927D009
:1057E000132925D0142928D0152926D0102924D0F2
:1057F000112922D0162920D017291ED00B2070473E
:10580000FFE70220FBE74FF4F06282804FF48762EB
:10581000C280092916D00B2914D00A2912D01229C6
:1058200010D015290ED012E04FF4A063838002E05F
:1058300082804FF41072C280F1E782804FF4F072E0
:10584000C280EEE7C2F34E01C18001214174002005
:10585000D5E70020704700002DE9FC414FF000051E
:105860000F4606008DF8045016D0AFB103F0BCFD12
:10587000024631A131A0FEF7B5FD40F20740316884
:1058800003F0E2FD002808D14FF47A7003F0AAFD7E
:1058900001244FF480780BE00220BDE8FC8101ABCD
:1058A0004246E0213046009400F098FA0028F4D1F6
:1058B0009DF804000028F2D03046FFF729FF0028A9
:1058C000EBD1254841682548814225A013D3FEF736
:1058D00089FDDFF8A480002408EB840130468A7833
:1058E00038F8241000F0B1FA0028D6D1641CE4B2D4
:1058F000072CF1D314E0FEF775FDDFF87C8000245F
:10590000A8F11C0808EB840130468A7838F8241086
:1059100000F09BFA0028C0D1641CE4B2072CF1D33C
:105920000820FEF7ADFD28B10660057145713860AD
:105930002846B2E70420B0E7683100005B252D3827
:1059400073203A202530386C785D203A20726573D8
:1059500065742068310D0A00180100200001110053
:10596000656E61626C65203078257820766572738B
:10597000696F6E0D0A000000AE9B00082DE9FC4720
:1059800081464FF44054002725468DF8047017A037
:10599000FEF728FD23A0FEF725FD4FF0010829465C
:1059A0002FA0FEF71FFD00261035CDF80080A2B213
:1059B00001ABE021D9F8000000F010FA9DF80410C6
:1059C00029A0FEF70FFD641C761C102EEDD328A035
:1059D000FEF708FD7F1C102FE1D326A0FEF702FD85
:1059E00023A0FEF7FFFCBDE8FC8700002D2D2D2D28
:1059F0002D2D2D2D2D2D2D2D2D2D2D2D2D2D2D2DD7
:105A00002D483120323536422D2D2D2D2D2D2D2D89
:105A10002D2D2D2D2D2D2D2D2D2D2D2D2D2D0D0AF9
:105A2000000000003078303030302030302030310D
:105A300020303220303320303420303520303620B2
:105A4000303720303820303920306120306220302B
:105A5000632030642030652030660D0A00000000AD
:105A600030782578200000002530327820000000B2
:105A70000D0A00002D2D2D2D2D2D2D2D2D2D2D2DF3
:105A80002D2D2D2D2D2D2D2D2D483120456E642DA4
:105A90002D2D2D2D2D2D2D2D2D2D2D2D2D2D2D2D36
:105AA0002D2D2D2D2D2D0D0A0000000070B50C465A
:105AB00028B1074D2978A14203D1002070BD0220F2
:105AC00070BD2146FFF7F0FA0028F9D12C7070BDA7
:105AD000180100207CB500250C468DF80450C0B19B
